{
	"contracts/Voting.sol": {
		"Voting": {
			"abi": [
				{
					"inputs": [],
					"stateMutability": "nonpayable",
					"type": "constructor"
				},
				{
					"inputs": [
						{
							"internalType": "address",
							"name": "owner",
							"type": "address"
						}
					],
					"name": "OwnableInvalidOwner",
					"type": "error"
				},
				{
					"inputs": [
						{
							"internalType": "address",
							"name": "account",
							"type": "address"
						}
					],
					"name": "OwnableUnauthorizedAccount",
					"type": "error"
				},
				{
					"anonymous": false,
					"inputs": [
						{
							"indexed": true,
							"internalType": "uint256",
							"name": "id",
							"type": "uint256"
						},
						{
							"indexed": false,
							"internalType": "string",
							"name": "name",
							"type": "string"
						}
					],
					"name": "CandidateAdded",
					"type": "event"
				},
				{
					"anonymous": false,
					"inputs": [
						{
							"indexed": false,
							"internalType": "bool",
							"name": "isOpen",
							"type": "bool"
						}
					],
					"name": "ElectionStatusChanged",
					"type": "event"
				},
				{
					"anonymous": false,
					"inputs": [
						{
							"indexed": true,
							"internalType": "address",
							"name": "previousOwner",
							"type": "address"
						},
						{
							"indexed": true,
							"internalType": "address",
							"name": "newOwner",
							"type": "address"
						}
					],
					"name": "OwnershipTransferred",
					"type": "event"
				},
				{
					"anonymous": false,
					"inputs": [
						{
							"indexed": true,
							"internalType": "address",
							"name": "voter",
							"type": "address"
						},
						{
							"indexed": true,
							"internalType": "uint256",
							"name": "candidateId",
							"type": "uint256"
						}
					],
					"name": "Voted",
					"type": "event"
				},
				{
					"inputs": [
						{
							"internalType": "string",
							"name": "_name",
							"type": "string"
						}
					],
					"name": "addCandidate",
					"outputs": [],
					"stateMutability": "nonpayable",
					"type": "function"
				},
				{
					"inputs": [],
					"name": "candidateCount",
					"outputs": [
						{
							"internalType": "uint256",
							"name": "",
							"type": "uint256"
						}
					],
					"stateMutability": "view",
					"type": "function"
				},
				{
					"inputs": [
						{
							"internalType": "uint256",
							"name": "",
							"type": "uint256"
						}
					],
					"name": "candidates",
					"outputs": [
						{
							"internalType": "uint256",
							"name": "id",
							"type": "uint256"
						},
						{
							"internalType": "string",
							"name": "name",
							"type": "string"
						},
						{
							"internalType": "uint256",
							"name": "voteCount",
							"type": "uint256"
						}
					],
					"stateMutability": "view",
					"type": "function"
				},
				{
					"inputs": [],
					"name": "closeElection",
					"outputs": [],
					"stateMutability": "nonpayable",
					"type": "function"
				},
				{
					"inputs": [],
					"name": "electionOpen",
					"outputs": [
						{
							"internalType": "bool",
							"name": "",
							"type": "bool"
						}
					],
					"stateMutability": "view",
					"type": "function"
				},
				{
					"inputs": [],
					"name": "getAllCandidates",
					"outputs": [
						{
							"internalType": "uint256[]",
							"name": "ids",
							"type": "uint256[]"
						},
						{
							"internalType": "string[]",
							"name": "names",
							"type": "string[]"
						},
						{
							"internalType": "uint256[]",
							"name": "voteCounts",
							"type": "uint256[]"
						}
					],
					"stateMutability": "view",
					"type": "function"
				},
				{
					"inputs": [],
					"name": "getTotalVotes",
					"outputs": [
						{
							"internalType": "uint256",
							"name": "total",
							"type": "uint256"
						}
					],
					"stateMutability": "view",
					"type": "function"
				},
				{
					"inputs": [
						{
							"internalType": "address",
							"name": "",
							"type": "address"
						}
					],
					"name": "hasVoted",
					"outputs": [
						{
							"internalType": "bool",
							"name": "",
							"type": "bool"
						}
					],
					"stateMutability": "view",
					"type": "function"
				},
				{
					"inputs": [],
					"name": "openElection",
					"outputs": [],
					"stateMutability": "nonpayable",
					"type": "function"
				},
				{
					"inputs": [],
					"name": "owner",
					"outputs": [
						{
							"internalType": "address",
							"name": "",
							"type": "address"
						}
					],
					"stateMutability": "view",
					"type": "function"
				},
				{
					"inputs": [
						{
							"internalType": "uint256",
							"name": "_id",
							"type": "uint256"
						}
					],
					"name": "removeCandidate",
					"outputs": [],
					"stateMutability": "nonpayable",
					"type": "function"
				},
				{
					"inputs": [],
					"name": "renounceOwnership",
					"outputs": [],
					"stateMutability": "nonpayable",
					"type": "function"
				},
				{
					"inputs": [
						{
							"internalType": "address",
							"name": "newOwner",
							"type": "address"
						}
					],
					"name": "transferOwnership",
					"outputs": [],
					"stateMutability": "nonpayable",
					"type": "function"
				},
				{
					"inputs": [
						{
							"internalType": "uint256",
							"name": "_candidateId",
							"type": "uint256"
						}
					],
					"name": "vote",
					"outputs": [],
					"stateMutability": "nonpayable",
					"type": "function"
				}
			],
			"devdoc": {
				"author": "Hackathon Team",
				"details": "Transparent on-chain voting system with one-person-one-vote enforcement.      Deployed on Ethereum Sepolia Testnet for hackathon purposes.",
				"errors": {
					"OwnableInvalidOwner(address)": [
						{
							"details": "The owner is not a valid owner account. (eg. `address(0)`)"
						}
					],
					"OwnableUnauthorizedAccount(address)": [
						{
							"details": "The caller account is not authorized to perform an operation."
						}
					]
				},
				"events": {
					"Voted(address,uint256)": {
						"params": {
							"candidateId": "The ID of the candidate they voted for",
							"voter": "The address of the voter (msg.sender)"
						}
					}
				},
				"kind": "dev",
				"methods": {
					"addCandidate(string)": {
						"details": "Only the contract owner (deployer) can call this. Cannot be called      while the election is open to ensure a fair ballot.",
						"params": {
							"_name": "The display name of the candidate."
						}
					},
					"closeElection()": {
						"details": "Only the owner can close the election."
					},
					"constructor": {
						"details": "Sets the original contract deployer as the owner via Ownable.      The election starts CLOSED — owner must call openElection() first."
					},
					"getAllCandidates()": {
						"details": "The frontend loops over these arrays to build the candidate cards.",
						"returns": {
							"ids": "       Array of candidate IDs.",
							"names": "     Array of candidate names.",
							"voteCounts": "Array of vote counts."
						}
					},
					"openElection()": {
						"details": "Only the owner can open the election. Requires at least one candidate."
					},
					"owner()": {
						"details": "Returns the address of the current owner."
					},
					"renounceOwnership()": {
						"details": "Leaves the contract without owner. It will not be possible to call `onlyOwner` functions. Can only be called by the current owner. NOTE: Renouncing ownership will leave the contract without an owner, thereby disabling any functionality that is only available to the owner."
					},
					"transferOwnership(address)": {
						"details": "Transfers ownership of the contract to a new account (`newOwner`). Can only be called by the current owner."
					},
					"vote(uint256)": {
						"details": "Uses `msg.sender` to identify the voter. Enforces:      1. The election must be open.      2. The candidate must exist.      3. The voter must not have voted before (one-person-one-vote).",
						"params": {
							"_candidateId": "The ID of the candidate to vote for."
						}
					}
				},
				"title": "Voting",
				"version": 1
			},
			"evm": {
				"assembly": "    /* \"contracts/Voting.sol\":313:9332  contract Voting is Ownable {... */\n  mstore(0x40, 0x80)\n    /* \"contracts/Voting.sol\":3691:3762  constructor() Ownable(msg.sender) {... */\n  callvalue\n  dup1\n  iszero\n  tag_1\n  jumpi\n  0x00\n  dup1\n  revert\ntag_1:\n  pop\n    /* \"contracts/Voting.sol\":3713:3723  msg.sender */\n  caller\n    /* \"@openzeppelin/contracts/access/Ownable.sol\":1297:1298  0 */\n  0x00\n    /* \"@openzeppelin/contracts/access/Ownable.sol\":1273:1299  initialOwner == address(0) */\n  0xffffffffffffffffffffffffffffffffffffffff\n  and\n    /* \"@openzeppelin/contracts/access/Ownable.sol\":1273:1285  initialOwner */\n  dup2\n    /* \"@openzeppelin/contracts/access/Ownable.sol\":1273:1299  initialOwner == address(0) */\n  0xffffffffffffffffffffffffffffffffffffffff\n  and\n  sub\n    /* \"@openzeppelin/contracts/access/Ownable.sol\":1269:1364  if (initialOwner == address(0)) {... */\n  tag_5\n  jumpi\n    /* \"@openzeppelin/contracts/access/Ownable.sol\":1350:1351  0 */\n  0x00\n    /* \"@openzeppelin/contracts/access/Ownable.sol\":1322:1353  OwnableInvalidOwner(address(0)) */\n  mload(0x40)\n  0x1e4fbdf700000000000000000000000000000000000000000000000000000000\n  dup2\n  mstore\n  0x04\n  add\n  tag_6\n  swap2\n  swap1\n  tag_7\n  jump\t// in\ntag_6:\n  mload(0x40)\n  dup1\n  swap2\n  sub\n  swap1\n  revert\n    /* \"@openzeppelin/contracts/access/Ownable.sol\":1269:1364  if (initialOwner == address(0)) {... */\ntag_5:\n    /* \"@openzeppelin/contracts/access/Ownable.sol\":1373:1405  _transferOwnership(initialOwner) */\n  tag_8\n    /* \"@openzeppelin/contracts/access/Ownable.sol\":1392:1404  initialOwner */\n  dup2\n    /* \"@openzeppelin/contracts/access/Ownable.sol\":1373:1391  _transferOwnership */\n  shl(0x20, tag_9)\n    /* \"@openzeppelin/contracts/access/Ownable.sol\":1373:1405  _transferOwnership(initialOwner) */\n  0x20\n  shr\n  jump\t// in\ntag_8:\n    /* \"@openzeppelin/contracts/access/Ownable.sol\":1225:1412  constructor(address initialOwner) {... */\n  pop\n    /* \"contracts/Voting.sol\":3750:3755  false */\n  0x00\n    /* \"contracts/Voting.sol\":3735:3747  electionOpen */\n  0x04\n  0x00\n    /* \"contracts/Voting.sol\":3735:3755  electionOpen = false */\n  0x0100\n  exp\n  dup2\n  sload\n  dup2\n  0xff\n  mul\n  not\n  and\n  swap1\n  dup4\n  iszero\n  iszero\n  mul\n  or\n  swap1\n  sstore\n  pop\n    /* \"contracts/Voting.sol\":313:9332  contract Voting is Ownable {... */\n  jump(tag_11)\n    /* \"@openzeppelin/contracts/access/Ownable.sol\":2912:3099  function _transferOwnership(address newOwner) internal virtual {... */\ntag_9:\n    /* \"@openzeppelin/contracts/access/Ownable.sol\":2985:3001  address oldOwner */\n  0x00\n    /* \"@openzeppelin/contracts/access/Ownable.sol\":3004:3010  _owner */\n  dup1\n  0x00\n  swap1\n  sload\n  swap1\n  0x0100\n  exp\n  swap1\n  div\n  0xffffffffffffffffffffffffffffffffffffffff\n  and\n    /* \"@openzeppelin/contracts/access/Ownable.sol\":2985:3010  address oldOwner = _owner */\n  swap1\n  pop\n    /* \"@openzeppelin/contracts/access/Ownable.sol\":3029:3037  newOwner */\n  dup2\n    /* \"@openzeppelin/contracts/access/Ownable.sol\":3020:3026  _owner */\n  0x00\n  dup1\n    /* \"@openzeppelin/contracts/access/Ownable.sol\":3020:3037  _owner = newOwner */\n  0x0100\n  exp\n  dup2\n  sload\n  dup2\n  0xffffffffffffffffffffffffffffffffffffffff\n  mul\n  not\n  and\n  swap1\n  dup4\n  0xffffffffffffffffffffffffffffffffffffffff\n  and\n  mul\n  or\n  swap1\n  sstore\n  pop\n    /* \"@openzeppelin/contracts/access/Ownable.sol\":3083:3091  newOwner */\n  dup2\n    /* \"@openzeppelin/contracts/access/Ownable.sol\":3052:3092  OwnershipTransferred(oldOwner, newOwner) */\n  0xffffffffffffffffffffffffffffffffffffffff\n  and\n    /* \"@openzeppelin/contracts/access/Ownable.sol\":3073:3081  oldOwner */\n  dup2\n    /* \"@openzeppelin/contracts/access/Ownable.sol\":3052:3092  OwnershipTransferred(oldOwner, newOwner) */\n  0xffffffffffffffffffffffffffffffffffffffff\n  and\n  0x8be0079c531659141344cd1fd0a4f28419497f9722a3daafe3b4186f6b6457e0\n  mload(0x40)\n  mload(0x40)\n  dup1\n  swap2\n  sub\n  swap1\n  log3\n    /* \"@openzeppelin/contracts/access/Ownable.sol\":2975:3099  {... */\n  pop\n    /* \"@openzeppelin/contracts/access/Ownable.sol\":2912:3099  function _transferOwnership(address newOwner) internal virtual {... */\n  pop\n  jump\t// out\n    /* \"#utility.yul\":7:133   */\ntag_13:\n    /* \"#utility.yul\":44:51   */\n  0x00\n    /* \"#utility.yul\":84:126   */\n  0xffffffffffffffffffffffffffffffffffffffff\n    /* \"#utility.yul\":77:82   */\n  dup3\n    /* \"#utility.yul\":73:127   */\n  and\n    /* \"#utility.yul\":62:127   */\n  swap1\n  pop\n    /* \"#utility.yul\":7:133   */\n  swap2\n  swap1\n  pop\n  jump\t// out\n    /* \"#utility.yul\":139:235   */\ntag_14:\n    /* \"#utility.yul\":176:183   */\n  0x00\n    /* \"#utility.yul\":205:229   */\n  tag_19\n    /* \"#utility.yul\":223:228   */\n  dup3\n    /* \"#utility.yul\":205:229   */\n  tag_13\n  jump\t// in\ntag_19:\n    /* \"#utility.yul\":194:229   */\n  swap1\n  pop\n    /* \"#utility.yul\":139:235   */\n  swap2\n  swap1\n  pop\n  jump\t// out\n    /* \"#utility.yul\":241:359   */\ntag_15:\n    /* \"#utility.yul\":328:352   */\n  tag_21\n    /* \"#utility.yul\":346:351   */\n  dup2\n    /* \"#utility.yul\":328:352   */\n  tag_14\n  jump\t// in\ntag_21:\n    /* \"#utility.yul\":323:326   */\n  dup3\n    /* \"#utility.yul\":316:353   */\n  mstore\n    /* \"#utility.yul\":241:359   */\n  pop\n  pop\n  jump\t// out\n    /* \"#utility.yul\":365:587   */\ntag_7:\n    /* \"#utility.yul\":458:462   */\n  0x00\n    /* \"#utility.yul\":496:498   */\n  0x20\n    /* \"#utility.yul\":485:494   */\n  dup3\n    /* \"#utility.yul\":481:499   */\n  add\n    /* \"#utility.yul\":473:499   */\n  swap1\n  pop\n    /* \"#utility.yul\":509:580   */\n  tag_23\n    /* \"#utility.yul\":577:578   */\n  0x00\n    /* \"#utility.yul\":566:575   */\n  dup4\n    /* \"#utility.yul\":562:579   */\n  add\n    /* \"#utility.yul\":553:559   */\n  dup5\n    /* \"#utility.yul\":509:580   */\n  tag_15\n  jump\t// in\ntag_23:\n    /* \"#utility.yul\":365:587   */\n  swap3\n  swap2\n  pop\n  pop\n  jump\t// out\n    /* \"contracts/Voting.sol\":313:9332  contract Voting is Ownable {... */\ntag_11:\n  dataSize(sub_0)\n  dup1\n  dataOffset(sub_0)\n  0x00\n  codecopy\n  0x00\n  return\nstop\n\nsub_0: assembly {\n        /* \"contracts/Voting.sol\":313:9332  contract Voting is Ownable {... */\n      mstore(0x40, 0x80)\n      callvalue\n      dup1\n      iszero\n      tag_1\n      jumpi\n      0x00\n      dup1\n      revert\n    tag_1:\n      pop\n      jumpi(tag_2, lt(calldatasize, 0x04))\n      shr(0xe0, calldataload(0x00))\n      dup1\n      0x6c6c32d0\n      gt\n      tag_17\n      jumpi\n      dup1\n      0x9a0e7d66\n      gt\n      tag_18\n      jumpi\n      dup1\n      0x9a0e7d66\n      eq\n      tag_13\n      jumpi\n      dup1\n      0xa9a981a3\n      eq\n      tag_14\n      jumpi\n      dup1\n      0xc5d00f5d\n      eq\n      tag_15\n      jumpi\n      dup1\n      0xf2fde38b\n      eq\n      tag_16\n      jumpi\n      jump(tag_2)\n    tag_18:\n      dup1\n      0x6c6c32d0\n      eq\n      tag_10\n      jumpi\n      dup1\n      0x715018a6\n      eq\n      tag_11\n      jumpi\n      dup1\n      0x8da5cb5b\n      eq\n      tag_12\n      jumpi\n      jump(tag_2)\n    tag_17:\n      dup1\n      0x2e6997fe\n      gt\n      tag_19\n      jumpi\n      dup1\n      0x2e6997fe\n      eq\n      tag_6\n      jumpi\n      dup1\n      0x3477ee2e\n      eq\n      tag_7\n      jumpi\n      dup1\n      0x462e91ec\n      eq\n      tag_8\n      jumpi\n      dup1\n      0x4a39d442\n      eq\n      tag_9\n      jumpi\n      jump(tag_2)\n    tag_19:\n      dup1\n      0x0121b93f\n      eq\n      tag_3\n      jumpi\n      dup1\n      0x09e9d7e2\n      eq\n      tag_4\n      jumpi\n      dup1\n      0x09eef43e\n      eq\n      tag_5\n      jumpi\n    tag_2:\n      0x00\n      dup1\n      revert\n        /* \"contracts/Voting.sol\":6617:7235  function vote(uint256 _candidateId) external {... */\n    tag_3:\n      tag_20\n      0x04\n      dup1\n      calldatasize\n      sub\n      dup2\n      add\n      swap1\n      tag_21\n      swap2\n      swap1\n      tag_22\n      jump\t// in\n    tag_21:\n      tag_23\n      jump\t// in\n    tag_20:\n      stop\n        /* \"contracts/Voting.sol\":7236:7627  function removeCandidate(uint256 _id) external onlyOwner {... */\n    tag_4:\n      tag_24\n      0x04\n      dup1\n      calldatasize\n      sub\n      dup2\n      add\n      swap1\n      tag_25\n      swap2\n      swap1\n      tag_22\n      jump\t// in\n    tag_25:\n      tag_26\n      jump\t// in\n    tag_24:\n      stop\n        /* \"contracts/Voting.sol\":1806:1846  mapping(address => bool) public hasVoted */\n    tag_5:\n      tag_27\n      0x04\n      dup1\n      calldatasize\n      sub\n      dup2\n      add\n      swap1\n      tag_28\n      swap2\n      swap1\n      tag_29\n      jump\t// in\n    tag_28:\n      tag_30\n      jump\t// in\n    tag_27:\n      mload(0x40)\n      tag_31\n      swap2\n      swap1\n      tag_32\n      jump\t// in\n    tag_31:\n      mload(0x40)\n      dup1\n      swap2\n      sub\n      swap1\n      return\n        /* \"contracts/Voting.sol\":8461:9049  function getAllCandidates()... */\n    tag_6:\n      tag_33\n      tag_34\n      jump\t// in\n    tag_33:\n      mload(0x40)\n      tag_35\n      swap4\n      swap3\n      swap2\n      swap1\n      tag_36\n      jump\t// in\n    tag_35:\n      mload(0x40)\n      dup1\n      swap2\n      sub\n      swap1\n      return\n        /* \"contracts/Voting.sol\":1661:1708  mapping(uint256 => Candidate) public candidates */\n    tag_7:\n      tag_37\n      0x04\n      dup1\n      calldatasize\n      sub\n      dup2\n      add\n      swap1\n      tag_38\n      swap2\n      swap1\n      tag_22\n      jump\t// in\n    tag_38:\n      tag_39\n      jump\t// in\n    tag_37:\n      mload(0x40)\n      tag_40\n      swap4\n      swap3\n      swap2\n      swap1\n      tag_41\n      jump\t// in\n    tag_40:\n      mload(0x40)\n      dup1\n      swap2\n      sub\n      swap1\n      return\n        /* \"contracts/Voting.sol\":4524:4990  function addCandidate(string calldata _name) external onlyOwner {... */\n    tag_8:\n      tag_42\n      0x04\n      dup1\n      calldatasize\n      sub\n      dup2\n      add\n      swap1\n      tag_43\n      swap2\n      swap1\n      tag_44\n      jump\t// in\n    tag_43:\n      tag_45\n      jump\t// in\n    tag_42:\n      stop\n        /* \"contracts/Voting.sol\":2037:2061  bool public electionOpen */\n    tag_9:\n      tag_46\n      tag_47\n      jump\t// in\n    tag_46:\n      mload(0x40)\n      tag_48\n      swap2\n      swap1\n      tag_32\n      jump\t// in\n    tag_48:\n      mload(0x40)\n      dup1\n      swap2\n      sub\n      swap1\n      return\n        /* \"contracts/Voting.sol\":5578:5771  function closeElection() external onlyOwner {... */\n    tag_10:\n      tag_49\n      tag_50\n      jump\t// in\n    tag_49:\n      stop\n        /* \"@openzeppelin/contracts/access/Ownable.sol\":2293:2394  function renounceOwnership() public virtual onlyOwner {... */\n    tag_11:\n      tag_51\n      tag_52\n      jump\t// in\n    tag_51:\n      stop\n        /* \"@openzeppelin/contracts/access/Ownable.sol\":1638:1723  function owner() public view virtual returns (address) {... */\n    tag_12:\n      tag_53\n      tag_54\n      jump\t// in\n    tag_53:\n      mload(0x40)\n      tag_55\n      swap2\n      swap1\n      tag_56\n      jump\t// in\n    tag_55:\n      mload(0x40)\n      dup1\n      swap2\n      sub\n      swap1\n      return\n        /* \"contracts/Voting.sol\":9148:9330  function getTotalVotes() external view returns (uint256 total) {... */\n    tag_13:\n      tag_57\n      tag_58\n      jump\t// in\n    tag_57:\n      mload(0x40)\n      tag_59\n      swap2\n      swap1\n      tag_60\n      jump\t// in\n    tag_59:\n      mload(0x40)\n      dup1\n      swap2\n      sub\n      swap1\n      return\n        /* \"contracts/Voting.sol\":1934:1963  uint256 public candidateCount */\n    tag_14:\n      tag_61\n      tag_62\n      jump\t// in\n    tag_61:\n      mload(0x40)\n      tag_63\n      swap2\n      swap1\n      tag_60\n      jump\t// in\n    tag_63:\n      mload(0x40)\n      dup1\n      swap2\n      sub\n      swap1\n      return\n        /* \"contracts/Voting.sol\":5164:5443  function openElection() external onlyOwner {... */\n    tag_15:\n      tag_64\n      tag_65\n      jump\t// in\n    tag_64:\n      stop\n        /* \"@openzeppelin/contracts/access/Ownable.sol\":2543:2758  function transferOwnership(address newOwner) public virtual onlyOwner {... */\n    tag_16:\n      tag_66\n      0x04\n      dup1\n      calldatasize\n      sub\n      dup2\n      add\n      swap1\n      tag_67\n      swap2\n      swap1\n      tag_29\n      jump\t// in\n    tag_67:\n      tag_68\n      jump\t// in\n    tag_66:\n      stop\n        /* \"contracts/Voting.sol\":6617:7235  function vote(uint256 _candidateId) external {... */\n    tag_23:\n        /* \"contracts/Voting.sol\":6718:6730  electionOpen */\n      0x04\n      0x00\n      swap1\n      sload\n      swap1\n      0x0100\n      exp\n      swap1\n      div\n      0xff\n      and\n        /* \"contracts/Voting.sol\":6710:6773  require(electionOpen, \"Voting: election is not currently open\") */\n      tag_70\n      jumpi\n      mload(0x40)\n      0x08c379a000000000000000000000000000000000000000000000000000000000\n      dup2\n      mstore\n      0x04\n      add\n      tag_71\n      swap1\n      tag_72\n      jump\t// in\n    tag_71:\n      mload(0x40)\n      dup1\n      swap2\n      sub\n      swap1\n      revert\n    tag_70:\n        /* \"contracts/Voting.sol\":6842:6843  0 */\n      0x00\n        /* \"contracts/Voting.sol\":6827:6839  _candidateId */\n      dup2\n        /* \"contracts/Voting.sol\":6827:6843  _candidateId > 0 */\n      gt\n        /* \"contracts/Voting.sol\":6827:6877  _candidateId > 0 && _candidateId <= candidateCount */\n      dup1\n      iszero\n      tag_73\n      jumpi\n      pop\n        /* \"contracts/Voting.sol\":6863:6877  candidateCount */\n      sload(0x03)\n        /* \"contracts/Voting.sol\":6847:6859  _candidateId */\n      dup2\n        /* \"contracts/Voting.sol\":6847:6877  _candidateId <= candidateCount */\n      gt\n      iszero\n        /* \"contracts/Voting.sol\":6827:6877  _candidateId > 0 && _candidateId <= candidateCount */\n    tag_73:\n        /* \"contracts/Voting.sol\":6819:6910  require(_candidateId > 0 && _candidateId <= candidateCount, \"Voting: invalid candidate ID\") */\n      tag_74\n      jumpi\n      mload(0x40)\n      0x08c379a000000000000000000000000000000000000000000000000000000000\n      dup2\n      mstore\n      0x04\n      add\n      tag_75\n      swap1\n      tag_76\n      jump\t// in\n    tag_75:\n      mload(0x40)\n      dup1\n      swap2\n      sub\n      swap1\n      revert\n    tag_74:\n        /* \"contracts/Voting.sol\":7006:7014  hasVoted */\n      0x02\n        /* \"contracts/Voting.sol\":7006:7026  hasVoted[msg.sender] */\n      0x00\n        /* \"contracts/Voting.sol\":7015:7025  msg.sender */\n      caller\n        /* \"contracts/Voting.sol\":7006:7026  hasVoted[msg.sender] */\n      0xffffffffffffffffffffffffffffffffffffffff\n      and\n      0xffffffffffffffffffffffffffffffffffffffff\n      and\n      dup2\n      mstore\n      0x20\n      add\n      swap1\n      dup2\n      mstore\n      0x20\n      add\n      0x00\n      keccak256\n      0x00\n      swap1\n      sload\n      swap1\n      0x0100\n      exp\n      swap1\n      div\n      0xff\n      and\n        /* \"contracts/Voting.sol\":7005:7026  !hasVoted[msg.sender] */\n      iszero\n        /* \"contracts/Voting.sol\":6997:7070  require(!hasVoted[msg.sender], \"Voting: you have already cast your vote\") */\n      tag_77\n      jumpi\n      mload(0x40)\n      0x08c379a000000000000000000000000000000000000000000000000000000000\n      dup2\n      mstore\n      0x04\n      add\n      tag_78\n      swap1\n      tag_79\n      jump\t// in\n    tag_78:\n      mload(0x40)\n      dup1\n      swap2\n      sub\n      swap1\n      revert\n    tag_77:\n        /* \"contracts/Voting.sol\":7131:7135  true */\n      0x01\n        /* \"contracts/Voting.sol\":7108:7116  hasVoted */\n      0x02\n        /* \"contracts/Voting.sol\":7108:7128  hasVoted[msg.sender] */\n      0x00\n        /* \"contracts/Voting.sol\":7117:7127  msg.sender */\n      caller\n        /* \"contracts/Voting.sol\":7108:7128  hasVoted[msg.sender] */\n      0xffffffffffffffffffffffffffffffffffffffff\n      and\n      0xffffffffffffffffffffffffffffffffffffffff\n      and\n      dup2\n      mstore\n      0x20\n      add\n      swap1\n      dup2\n      mstore\n      0x20\n      add\n      0x00\n      keccak256\n      0x00\n        /* \"contracts/Voting.sol\":7108:7135  hasVoted[msg.sender] = true */\n      0x0100\n      exp\n      dup2\n      sload\n      dup2\n      0xff\n      mul\n      not\n      and\n      swap1\n      dup4\n      iszero\n      iszero\n      mul\n      or\n      swap1\n      sstore\n      pop\n        /* \"contracts/Voting.sol\":7145:7155  candidates */\n      0x01\n        /* \"contracts/Voting.sol\":7145:7169  candidates[_candidateId] */\n      0x00\n        /* \"contracts/Voting.sol\":7156:7168  _candidateId */\n      dup3\n        /* \"contracts/Voting.sol\":7145:7169  candidates[_candidateId] */\n      dup2\n      mstore\n      0x20\n      add\n      swap1\n      dup2\n      mstore\n      0x20\n      add\n      0x00\n      keccak256\n        /* \"contracts/Voting.sol\":7145:7179  candidates[_candidateId].voteCount */\n      0x02\n      add\n      0x00\n        /* \"contracts/Voting.sol\":7145:7181  candidates[_candidateId].voteCount++ */\n      dup2\n      sload\n      dup1\n      swap3\n      swap2\n      swap1\n      tag_80\n      swap1\n      tag_81\n      jump\t// in\n    tag_80:\n      swap2\n      swap1\n      pop\n      sstore\n      pop\n        /* \"contracts/Voting.sol\":7215:7227  _candidateId */\n      dup1\n        /* \"contracts/Voting.sol\":7203:7213  msg.sender */\n      caller\n        /* \"contracts/Voting.sol\":7197:7228  Voted(msg.sender, _candidateId) */\n      0xffffffffffffffffffffffffffffffffffffffff\n      and\n      0x4d99b957a2bc29a30ebd96a7be8e68fe50a3c701db28a91436490b7d53870ca4\n      mload(0x40)\n      mload(0x40)\n      dup1\n      swap2\n      sub\n      swap1\n      log3\n        /* \"contracts/Voting.sol\":6617:7235  function vote(uint256 _candidateId) external {... */\n      pop\n      jump\t// out\n        /* \"contracts/Voting.sol\":7236:7627  function removeCandidate(uint256 _id) external onlyOwner {... */\n    tag_26:\n        /* \"@openzeppelin/contracts/access/Ownable.sol\":1531:1544  _checkOwner() */\n      tag_83\n        /* \"@openzeppelin/contracts/access/Ownable.sol\":1531:1542  _checkOwner */\n      tag_84\n        /* \"@openzeppelin/contracts/access/Ownable.sol\":1531:1544  _checkOwner() */\n      jump\t// in\n    tag_83:\n        /* \"contracts/Voting.sol\":7308:7320  electionOpen */\n      0x04\n      0x00\n      swap1\n      sload\n      swap1\n      0x0100\n      exp\n      swap1\n      div\n      0xff\n      and\n        /* \"contracts/Voting.sol\":7307:7320  !electionOpen */\n      iszero\n        /* \"contracts/Voting.sol\":7299:7369  require(!electionOpen, \"Voting: cannot remove while election is open\") */\n      tag_86\n      jumpi\n      mload(0x40)\n      0x08c379a000000000000000000000000000000000000000000000000000000000\n      dup2\n      mstore\n      0x04\n      add\n      tag_87\n      swap1\n      tag_88\n      jump\t// in\n    tag_87:\n      mload(0x40)\n      dup1\n      swap2\n      sub\n      swap1\n      revert\n    tag_86:\n        /* \"contracts/Voting.sol\":7389:7390  0 */\n      0x00\n        /* \"contracts/Voting.sol\":7383:7386  _id */\n      dup2\n        /* \"contracts/Voting.sol\":7383:7390  _id > 0 */\n      gt\n        /* \"contracts/Voting.sol\":7383:7415  _id > 0 && _id <= candidateCount */\n      dup1\n      iszero\n      tag_89\n      jumpi\n      pop\n        /* \"contracts/Voting.sol\":7401:7415  candidateCount */\n      sload(0x03)\n        /* \"contracts/Voting.sol\":7394:7397  _id */\n      dup2\n        /* \"contracts/Voting.sol\":7394:7415  _id <= candidateCount */\n      gt\n      iszero\n        /* \"contracts/Voting.sol\":7383:7415  _id > 0 && _id <= candidateCount */\n    tag_89:\n        /* \"contracts/Voting.sol\":7375:7448  require(_id > 0 && _id <= candidateCount, \"Voting: invalid candidate ID\") */\n      tag_90\n      jumpi\n      mload(0x40)\n      0x08c379a000000000000000000000000000000000000000000000000000000000\n      dup2\n      mstore\n      0x04\n      add\n      tag_91\n      swap1\n      tag_76\n      jump\t// in\n    tag_91:\n      mload(0x40)\n      dup1\n      swap2\n      sub\n      swap1\n      revert\n    tag_90:\n        /* \"contracts/Voting.sol\":7499:7500  0 */\n      0x00\n        /* \"contracts/Voting.sol\":7468:7478  candidates */\n      0x01\n        /* \"contracts/Voting.sol\":7468:7483  candidates[_id] */\n      0x00\n        /* \"contracts/Voting.sol\":7479:7482  _id */\n      dup4\n        /* \"contracts/Voting.sol\":7468:7483  candidates[_id] */\n      dup2\n      mstore\n      0x20\n      add\n      swap1\n      dup2\n      mstore\n      0x20\n      add\n      0x00\n      keccak256\n        /* \"contracts/Voting.sol\":7468:7488  candidates[_id].name */\n      0x01\n      add\n        /* \"contracts/Voting.sol\":7462:7496  bytes(candidates[_id].name).length */\n      dup1\n      sload\n      tag_92\n      swap1\n      tag_93\n      jump\t// in\n    tag_92:\n      swap1\n      pop\n        /* \"contracts/Voting.sol\":7462:7500  bytes(candidates[_id].name).length > 0 */\n      gt\n        /* \"contracts/Voting.sol\":7454:7538  require(bytes(candidates[_id].name).length > 0, \"Voting: candidate already removed\") */\n      tag_94\n      jumpi\n      mload(0x40)\n      0x08c379a000000000000000000000000000000000000000000000000000000000\n      dup2\n      mstore\n      0x04\n      add\n      tag_95\n      swap1\n      tag_96\n      jump\t// in\n    tag_95:\n      mload(0x40)\n      dup1\n      swap2\n      sub\n      swap1\n      revert\n    tag_94:\n        /* \"contracts/Voting.sol\":7556:7566  candidates */\n      0x01\n        /* \"contracts/Voting.sol\":7556:7571  candidates[_id] */\n      0x00\n        /* \"contracts/Voting.sol\":7567:7570  _id */\n      dup3\n        /* \"contracts/Voting.sol\":7556:7571  candidates[_id] */\n      dup2\n      mstore\n      0x20\n      add\n      swap1\n      dup2\n      mstore\n      0x20\n      add\n      0x00\n      keccak256\n      0x00\n        /* \"contracts/Voting.sol\":7549:7571  delete candidates[_id] */\n      dup1\n      dup3\n      add\n      0x00\n      swap1\n      sstore\n      0x01\n      dup3\n      add\n      0x00\n      tag_97\n      swap2\n      swap1\n      tag_98\n      jump\t// in\n    tag_97:\n      0x02\n      dup3\n      add\n      0x00\n      swap1\n      sstore\n      pop\n      pop\n        /* \"contracts/Voting.sol\":7597:7600  _id */\n      dup1\n        /* \"contracts/Voting.sol\":7582:7605  CandidateAdded(_id, \"\") */\n      0xe83b2a43e7e82d975c8a0a6d2f045153c869e111136a34d1889ab7b598e396a3\n      mload(0x40)\n      tag_99\n      swap1\n      tag_100\n      jump\t// in\n    tag_99:\n      mload(0x40)\n      dup1\n      swap2\n      sub\n      swap1\n      log2\n        /* \"contracts/Voting.sol\":7236:7627  function removeCandidate(uint256 _id) external onlyOwner {... */\n      pop\n      jump\t// out\n        /* \"contracts/Voting.sol\":1806:1846  mapping(address => bool) public hasVoted */\n    tag_30:\n      mstore(0x20, 0x02)\n      dup1\n      0x00\n      mstore\n      keccak256(0x00, 0x40)\n      0x00\n      swap2\n      pop\n      sload\n      swap1\n      0x0100\n      exp\n      swap1\n      div\n      0xff\n      and\n      dup2\n      jump\t// out\n        /* \"contracts/Voting.sol\":8461:9049  function getAllCandidates()... */\n    tag_34:\n        /* \"contracts/Voting.sol\":8549:8569  uint256[] memory ids */\n      0x60\n        /* \"contracts/Voting.sol\":8583:8605  string[]  memory names */\n      dup1\n        /* \"contracts/Voting.sol\":8619:8646  uint256[] memory voteCounts */\n      0x60\n        /* \"contracts/Voting.sol\":8698:8712  candidateCount */\n      sload(0x03)\n        /* \"contracts/Voting.sol\":8684:8713  new uint256[](candidateCount) */\n      0xffffffffffffffff\n      dup2\n      gt\n      iszero\n      tag_102\n      jumpi\n      tag_103\n      tag_104\n      jump\t// in\n    tag_103:\n    tag_102:\n      mload(0x40)\n      swap1\n      dup1\n      dup3\n      mstore\n      dup1\n      0x20\n      mul\n      0x20\n      add\n      dup3\n      add\n      0x40\n      mstore\n      dup1\n      iszero\n      tag_105\n      jumpi\n      dup2\n      0x20\n      add\n      0x20\n      dup3\n      mul\n      dup1\n      calldatasize\n      dup4\n      calldatacopy\n      dup1\n      dup3\n      add\n      swap2\n      pop\n      pop\n      swap1\n      pop\n    tag_105:\n      pop\n        /* \"contracts/Voting.sol\":8671:8713  ids        = new uint256[](candidateCount) */\n      swap3\n      pop\n        /* \"contracts/Voting.sol\":8749:8763  candidateCount */\n      sload(0x03)\n        /* \"contracts/Voting.sol\":8736:8764  new string[](candidateCount) */\n      0xffffffffffffffff\n      dup2\n      gt\n      iszero\n      tag_106\n      jumpi\n      tag_107\n      tag_104\n      jump\t// in\n    tag_107:\n    tag_106:\n      mload(0x40)\n      swap1\n      dup1\n      dup3\n      mstore\n      dup1\n      0x20\n      mul\n      0x20\n      add\n      dup3\n      add\n      0x40\n      mstore\n      dup1\n      iszero\n      tag_108\n      jumpi\n      dup2\n      0x20\n      add\n    tag_109:\n      0x60\n      dup2\n      mstore\n      0x20\n      add\n      swap1\n      0x01\n      swap1\n      sub\n      swap1\n      dup2\n      tag_109\n      jumpi\n      swap1\n      pop\n    tag_108:\n      pop\n        /* \"contracts/Voting.sol\":8723:8764  names      = new string[](candidateCount) */\n      swap2\n      pop\n        /* \"contracts/Voting.sol\":8801:8815  candidateCount */\n      sload(0x03)\n        /* \"contracts/Voting.sol\":8787:8816  new uint256[](candidateCount) */\n      0xffffffffffffffff\n      dup2\n      gt\n      iszero\n      tag_110\n      jumpi\n      tag_111\n      tag_104\n      jump\t// in\n    tag_111:\n    tag_110:\n      mload(0x40)\n      swap1\n      dup1\n      dup3\n      mstore\n      dup1\n      0x20\n      mul\n      0x20\n      add\n      dup3\n      add\n      0x40\n      mstore\n      dup1\n      iszero\n      tag_112\n      jumpi\n      dup2\n      0x20\n      add\n      0x20\n      dup3\n      mul\n      dup1\n      calldatasize\n      dup4\n      calldatacopy\n      dup1\n      dup3\n      add\n      swap2\n      pop\n      pop\n      swap1\n      pop\n    tag_112:\n      pop\n        /* \"contracts/Voting.sol\":8774:8816  voteCounts = new uint256[](candidateCount) */\n      swap1\n      pop\n        /* \"contracts/Voting.sol\":8832:8841  uint256 i */\n      0x00\n        /* \"contracts/Voting.sol\":8844:8845  1 */\n      0x01\n        /* \"contracts/Voting.sol\":8832:8845  uint256 i = 1 */\n      swap1\n      pop\n        /* \"contracts/Voting.sol\":8827:9043  for (uint256 i = 1; i <= candidateCount; i++) {... */\n    tag_113:\n        /* \"contracts/Voting.sol\":8852:8866  candidateCount */\n      sload(0x03)\n        /* \"contracts/Voting.sol\":8847:8848  i */\n      dup2\n        /* \"contracts/Voting.sol\":8847:8866  i <= candidateCount */\n      gt\n        /* \"contracts/Voting.sol\":8827:9043  for (uint256 i = 1; i <= candidateCount; i++) {... */\n      tag_114\n      jumpi\n        /* \"contracts/Voting.sol\":8907:8917  candidates */\n      0x01\n        /* \"contracts/Voting.sol\":8907:8920  candidates[i] */\n      0x00\n        /* \"contracts/Voting.sol\":8918:8919  i */\n      dup3\n        /* \"contracts/Voting.sol\":8907:8920  candidates[i] */\n      dup2\n      mstore\n      0x20\n      add\n      swap1\n      dup2\n      mstore\n      0x20\n      add\n      0x00\n      keccak256\n        /* \"contracts/Voting.sol\":8907:8923  candidates[i].id */\n      0x00\n      add\n      sload\n        /* \"contracts/Voting.sol\":8887:8890  ids */\n      dup5\n        /* \"contracts/Voting.sol\":8895:8896  1 */\n      0x01\n        /* \"contracts/Voting.sol\":8891:8892  i */\n      dup4\n        /* \"contracts/Voting.sol\":8891:8896  i - 1 */\n      tag_116\n      swap2\n      swap1\n      tag_117\n      jump\t// in\n    tag_116:\n        /* \"contracts/Voting.sol\":8887:8897  ids[i - 1] */\n      dup2\n      mload\n      dup2\n      lt\n      tag_118\n      jumpi\n      tag_119\n      tag_120\n      jump\t// in\n    tag_119:\n    tag_118:\n      0x20\n      mul\n      0x20\n      add\n      add\n        /* \"contracts/Voting.sol\":8887:8923  ids[i - 1]        = candidates[i].id */\n      dup2\n      dup2\n      mstore\n      pop\n      pop\n        /* \"contracts/Voting.sol\":8957:8967  candidates */\n      0x01\n        /* \"contracts/Voting.sol\":8957:8970  candidates[i] */\n      0x00\n        /* \"contracts/Voting.sol\":8968:8969  i */\n      dup3\n        /* \"contracts/Voting.sol\":8957:8970  candidates[i] */\n      dup2\n      mstore\n      0x20\n      add\n      swap1\n      dup2\n      mstore\n      0x20\n      add\n      0x00\n      keccak256\n        /* \"contracts/Voting.sol\":8957:8975  candidates[i].name */\n      0x01\n      add\n        /* \"contracts/Voting.sol\":8937:8975  names[i - 1]      = candidates[i].name */\n      dup1\n      sload\n      tag_121\n      swap1\n      tag_93\n      jump\t// in\n    tag_121:\n      dup1\n      0x1f\n      add\n      0x20\n      dup1\n      swap2\n      div\n      mul\n      0x20\n      add\n      mload(0x40)\n      swap1\n      dup2\n      add\n      0x40\n      mstore\n      dup1\n      swap3\n      swap2\n      swap1\n      dup2\n      dup2\n      mstore\n      0x20\n      add\n      dup3\n      dup1\n      sload\n      tag_122\n      swap1\n      tag_93\n      jump\t// in\n    tag_122:\n      dup1\n      iszero\n      tag_123\n      jumpi\n      dup1\n      0x1f\n      lt\n      tag_124\n      jumpi\n      0x0100\n      dup1\n      dup4\n      sload\n      div\n      mul\n      dup4\n      mstore\n      swap2\n      0x20\n      add\n      swap2\n      jump(tag_123)\n    tag_124:\n      dup3\n      add\n      swap2\n      swap1\n      0x00\n      mstore\n      keccak256(0x00, 0x20)\n      swap1\n    tag_125:\n      dup2\n      sload\n      dup2\n      mstore\n      swap1\n      0x01\n      add\n      swap1\n      0x20\n      add\n      dup1\n      dup4\n      gt\n      tag_125\n      jumpi\n      dup3\n      swap1\n      sub\n      0x1f\n      and\n      dup3\n      add\n      swap2\n    tag_123:\n      pop\n      pop\n      pop\n      pop\n      pop\n        /* \"contracts/Voting.sol\":8937:8942  names */\n      dup4\n        /* \"contracts/Voting.sol\":8947:8948  1 */\n      0x01\n        /* \"contracts/Voting.sol\":8943:8944  i */\n      dup4\n        /* \"contracts/Voting.sol\":8943:8948  i - 1 */\n      tag_126\n      swap2\n      swap1\n      tag_117\n      jump\t// in\n    tag_126:\n        /* \"contracts/Voting.sol\":8937:8949  names[i - 1] */\n      dup2\n      mload\n      dup2\n      lt\n      tag_127\n      jumpi\n      tag_128\n      tag_120\n      jump\t// in\n    tag_128:\n    tag_127:\n      0x20\n      mul\n      0x20\n      add\n      add\n        /* \"contracts/Voting.sol\":8937:8975  names[i - 1]      = candidates[i].name */\n      dup2\n      swap1\n      mstore\n      pop\n        /* \"contracts/Voting.sol\":9009:9019  candidates */\n      0x01\n        /* \"contracts/Voting.sol\":9009:9022  candidates[i] */\n      0x00\n        /* \"contracts/Voting.sol\":9020:9021  i */\n      dup3\n        /* \"contracts/Voting.sol\":9009:9022  candidates[i] */\n      dup2\n      mstore\n      0x20\n      add\n      swap1\n      dup2\n      mstore\n      0x20\n      add\n      0x00\n      keccak256\n        /* \"contracts/Voting.sol\":9009:9032  candidates[i].voteCount */\n      0x02\n      add\n      sload\n        /* \"contracts/Voting.sol\":8989:8999  voteCounts */\n      dup3\n        /* \"contracts/Voting.sol\":9004:9005  1 */\n      0x01\n        /* \"contracts/Voting.sol\":9000:9001  i */\n      dup4\n        /* \"contracts/Voting.sol\":9000:9005  i - 1 */\n      tag_129\n      swap2\n      swap1\n      tag_117\n      jump\t// in\n    tag_129:\n        /* \"contracts/Voting.sol\":8989:9006  voteCounts[i - 1] */\n      dup2\n      mload\n      dup2\n      lt\n      tag_130\n      jumpi\n      tag_131\n      tag_120\n      jump\t// in\n    tag_131:\n    tag_130:\n      0x20\n      mul\n      0x20\n      add\n      add\n        /* \"contracts/Voting.sol\":8989:9032  voteCounts[i - 1] = candidates[i].voteCount */\n      dup2\n      dup2\n      mstore\n      pop\n      pop\n        /* \"contracts/Voting.sol\":8868:8871  i++ */\n      dup1\n      dup1\n      tag_132\n      swap1\n      tag_81\n      jump\t// in\n    tag_132:\n      swap2\n      pop\n      pop\n        /* \"contracts/Voting.sol\":8827:9043  for (uint256 i = 1; i <= candidateCount; i++) {... */\n      jump(tag_113)\n    tag_114:\n      pop\n        /* \"contracts/Voting.sol\":8461:9049  function getAllCandidates()... */\n      swap1\n      swap2\n      swap3\n      jump\t// out\n        /* \"contracts/Voting.sol\":1661:1708  mapping(uint256 => Candidate) public candidates */\n    tag_39:\n      mstore(0x20, 0x01)\n      dup1\n      0x00\n      mstore\n      keccak256(0x00, 0x40)\n      0x00\n      swap2\n      pop\n      swap1\n      pop\n      dup1\n      0x00\n      add\n      sload\n      swap1\n      dup1\n      0x01\n      add\n      dup1\n      sload\n      tag_133\n      swap1\n      tag_93\n      jump\t// in\n    tag_133:\n      dup1\n      0x1f\n      add\n      0x20\n      dup1\n      swap2\n      div\n      mul\n      0x20\n      add\n      mload(0x40)\n      swap1\n      dup2\n      add\n      0x40\n      mstore\n      dup1\n      swap3\n      swap2\n      swap1\n      dup2\n      dup2\n      mstore\n      0x20\n      add\n      dup3\n      dup1\n      sload\n      tag_134\n      swap1\n      tag_93\n      jump\t// in\n    tag_134:\n      dup1\n      iszero\n      tag_135\n      jumpi\n      dup1\n      0x1f\n      lt\n      tag_136\n      jumpi\n      0x0100\n      dup1\n      dup4\n      sload\n      div\n      mul\n      dup4\n      mstore\n      swap2\n      0x20\n      add\n      swap2\n      jump(tag_135)\n    tag_136:\n      dup3\n      add\n      swap2\n      swap1\n      0x00\n      mstore\n      keccak256(0x00, 0x20)\n      swap1\n    tag_137:\n      dup2\n      sload\n      dup2\n      mstore\n      swap1\n      0x01\n      add\n      swap1\n      0x20\n      add\n      dup1\n      dup4\n      gt\n      tag_137\n      jumpi\n      dup3\n      swap1\n      sub\n      0x1f\n      and\n      dup3\n      add\n      swap2\n    tag_135:\n      pop\n      pop\n      pop\n      pop\n      pop\n      swap1\n      dup1\n      0x02\n      add\n      sload\n      swap1\n      pop\n      dup4\n      jump\t// out\n        /* \"contracts/Voting.sol\":4524:4990  function addCandidate(string calldata _name) external onlyOwner {... */\n    tag_45:\n        /* \"@openzeppelin/contracts/access/Ownable.sol\":1531:1544  _checkOwner() */\n      tag_139\n        /* \"@openzeppelin/contracts/access/Ownable.sol\":1531:1542  _checkOwner */\n      tag_84\n        /* \"@openzeppelin/contracts/access/Ownable.sol\":1531:1544  _checkOwner() */\n      jump\t// in\n    tag_139:\n        /* \"contracts/Voting.sol\":4607:4619  electionOpen */\n      0x04\n      0x00\n      swap1\n      sload\n      swap1\n      0x0100\n      exp\n      swap1\n      div\n      0xff\n      and\n        /* \"contracts/Voting.sol\":4606:4619  !electionOpen */\n      iszero\n        /* \"contracts/Voting.sol\":4598:4676  require(!electionOpen, \"Voting: cannot add candidates while election is open\") */\n      tag_141\n      jumpi\n      mload(0x40)\n      0x08c379a000000000000000000000000000000000000000000000000000000000\n      dup2\n      mstore\n      0x04\n      add\n      tag_142\n      swap1\n      tag_143\n      jump\t// in\n    tag_142:\n      mload(0x40)\n      dup1\n      swap2\n      sub\n      swap1\n      revert\n    tag_141:\n        /* \"contracts/Voting.sol\":4716:4717  0 */\n      0x00\n        /* \"contracts/Voting.sol\":4700:4705  _name */\n      dup3\n      dup3\n        /* \"contracts/Voting.sol\":4694:4713  bytes(_name).length */\n      swap1\n      pop\n        /* \"contracts/Voting.sol\":4694:4717  bytes(_name).length > 0 */\n      gt\n        /* \"contracts/Voting.sol\":4686:4760  require(bytes(_name).length > 0, \"Voting: candidate name cannot be empty\") */\n      tag_144\n      jumpi\n      mload(0x40)\n      0x08c379a000000000000000000000000000000000000000000000000000000000\n      dup2\n      mstore\n      0x04\n      add\n      tag_145\n      swap1\n      tag_146\n      jump\t// in\n    tag_145:\n      mload(0x40)\n      dup1\n      swap2\n      sub\n      swap1\n      revert\n    tag_144:\n        /* \"contracts/Voting.sol\":4771:4785  candidateCount */\n      0x03\n      0x00\n        /* \"contracts/Voting.sol\":4771:4787  candidateCount++ */\n      dup2\n      sload\n      dup1\n      swap3\n      swap2\n      swap1\n      tag_147\n      swap1\n      tag_81\n      jump\t// in\n    tag_147:\n      swap2\n      swap1\n      pop\n      sstore\n      pop\n        /* \"contracts/Voting.sol\":4826:4930  Candidate({... */\n      mload(0x40)\n      dup1\n      0x60\n      add\n      0x40\n      mstore\n      dup1\n        /* \"contracts/Voting.sol\":4854:4868  candidateCount */\n      sload(0x03)\n        /* \"contracts/Voting.sol\":4826:4930  Candidate({... */\n      dup2\n      mstore\n      0x20\n      add\n        /* \"contracts/Voting.sol\":4888:4893  _name */\n      dup4\n      dup4\n        /* \"contracts/Voting.sol\":4826:4930  Candidate({... */\n      dup1\n      dup1\n      0x1f\n      add\n      0x20\n      dup1\n      swap2\n      div\n      mul\n      0x20\n      add\n      mload(0x40)\n      swap1\n      dup2\n      add\n      0x40\n      mstore\n      dup1\n      swap4\n      swap3\n      swap2\n      swap1\n      dup2\n      dup2\n      mstore\n      0x20\n      add\n      dup4\n      dup4\n      dup1\n      dup3\n      dup5\n      calldatacopy\n      0x00\n      dup2\n      dup5\n      add\n      mstore\n      not(0x1f)\n      0x1f\n      dup3\n      add\n      and\n      swap1\n      pop\n      dup1\n      dup4\n      add\n      swap3\n      pop\n      pop\n      pop\n      pop\n      pop\n      pop\n      pop\n      dup2\n      mstore\n      0x20\n      add\n        /* \"contracts/Voting.sol\":4918:4919  0 */\n      0x00\n        /* \"contracts/Voting.sol\":4826:4930  Candidate({... */\n      dup2\n      mstore\n      pop\n        /* \"contracts/Voting.sol\":4797:4807  candidates */\n      0x01\n        /* \"contracts/Voting.sol\":4797:4823  candidates[candidateCount] */\n      0x00\n        /* \"contracts/Voting.sol\":4808:4822  candidateCount */\n      sload(0x03)\n        /* \"contracts/Voting.sol\":4797:4823  candidates[candidateCount] */\n      dup2\n      mstore\n      0x20\n      add\n      swap1\n      dup2\n      mstore\n      0x20\n      add\n      0x00\n      keccak256\n        /* \"contracts/Voting.sol\":4797:4930  candidates[candidateCount] = Candidate({... */\n      0x00\n      dup3\n      add\n      mload\n      dup2\n      0x00\n      add\n      sstore\n      0x20\n      dup3\n      add\n      mload\n      dup2\n      0x01\n      add\n      swap1\n      dup2\n      tag_148\n      swap2\n      swap1\n      tag_149\n      jump\t// in\n    tag_148:\n      pop\n      0x40\n      dup3\n      add\n      mload\n      dup2\n      0x02\n      add\n      sstore\n      swap1\n      pop\n      pop\n        /* \"contracts/Voting.sol\":4961:4975  candidateCount */\n      sload(0x03)\n        /* \"contracts/Voting.sol\":4946:4983  CandidateAdded(candidateCount, _name) */\n      0xe83b2a43e7e82d975c8a0a6d2f045153c869e111136a34d1889ab7b598e396a3\n        /* \"contracts/Voting.sol\":4977:4982  _name */\n      dup4\n      dup4\n        /* \"contracts/Voting.sol\":4946:4983  CandidateAdded(candidateCount, _name) */\n      mload(0x40)\n      tag_150\n      swap3\n      swap2\n      swap1\n      tag_151\n      jump\t// in\n    tag_150:\n      mload(0x40)\n      dup1\n      swap2\n      sub\n      swap1\n      log2\n        /* \"contracts/Voting.sol\":4524:4990  function addCandidate(string calldata _name) external onlyOwner {... */\n      pop\n      pop\n      jump\t// out\n        /* \"contracts/Voting.sol\":2037:2061  bool public electionOpen */\n    tag_47:\n      0x04\n      0x00\n      swap1\n      sload\n      swap1\n      0x0100\n      exp\n      swap1\n      div\n      0xff\n      and\n      dup2\n      jump\t// out\n        /* \"contracts/Voting.sol\":5578:5771  function closeElection() external onlyOwner {... */\n    tag_50:\n        /* \"@openzeppelin/contracts/access/Ownable.sol\":1531:1544  _checkOwner() */\n      tag_153\n        /* \"@openzeppelin/contracts/access/Ownable.sol\":1531:1542  _checkOwner */\n      tag_84\n        /* \"@openzeppelin/contracts/access/Ownable.sol\":1531:1544  _checkOwner() */\n      jump\t// in\n    tag_153:\n        /* \"contracts/Voting.sol\":5640:5652  electionOpen */\n      0x04\n      0x00\n      swap1\n      sload\n      swap1\n      0x0100\n      exp\n      swap1\n      div\n      0xff\n      and\n        /* \"contracts/Voting.sol\":5632:5691  require(electionOpen, \"Voting: election is already closed\") */\n      tag_155\n      jumpi\n      mload(0x40)\n      0x08c379a000000000000000000000000000000000000000000000000000000000\n      dup2\n      mstore\n      0x04\n      add\n      tag_156\n      swap1\n      tag_157\n      jump\t// in\n    tag_156:\n      mload(0x40)\n      dup1\n      swap2\n      sub\n      swap1\n      revert\n    tag_155:\n        /* \"contracts/Voting.sol\":5716:5721  false */\n      0x00\n        /* \"contracts/Voting.sol\":5701:5713  electionOpen */\n      0x04\n      0x00\n        /* \"contracts/Voting.sol\":5701:5721  electionOpen = false */\n      0x0100\n      exp\n      dup2\n      sload\n      dup2\n      0xff\n      mul\n      not\n      and\n      swap1\n      dup4\n      iszero\n      iszero\n      mul\n      or\n      swap1\n      sstore\n      pop\n        /* \"contracts/Voting.sol\":5736:5764  ElectionStatusChanged(false) */\n      0xe87fa5a9385947fdf4bf79b7b6d9e791d5c1bf2460fd1192586fa4f98a38e15a\n        /* \"contracts/Voting.sol\":5758:5763  false */\n      0x00\n        /* \"contracts/Voting.sol\":5736:5764  ElectionStatusChanged(false) */\n      mload(0x40)\n      tag_158\n      swap2\n      swap1\n      tag_32\n      jump\t// in\n    tag_158:\n      mload(0x40)\n      dup1\n      swap2\n      sub\n      swap1\n      log1\n        /* \"contracts/Voting.sol\":5578:5771  function closeElection() external onlyOwner {... */\n      jump\t// out\n        /* \"@openzeppelin/contracts/access/Ownable.sol\":2293:2394  function renounceOwnership() public virtual onlyOwner {... */\n    tag_52:\n        /* \"@openzeppelin/contracts/access/Ownable.sol\":1531:1544  _checkOwner() */\n      tag_160\n        /* \"@openzeppelin/contracts/access/Ownable.sol\":1531:1542  _checkOwner */\n      tag_84\n        /* \"@openzeppelin/contracts/access/Ownable.sol\":1531:1544  _checkOwner() */\n      jump\t// in\n    tag_160:\n        /* \"@openzeppelin/contracts/access/Ownable.sol\":2357:2387  _transferOwnership(address(0)) */\n      tag_162\n        /* \"@openzeppelin/contracts/access/Ownable.sol\":2384:2385  0 */\n      0x00\n        /* \"@openzeppelin/contracts/access/Ownable.sol\":2357:2375  _transferOwnership */\n      tag_163\n        /* \"@openzeppelin/contracts/access/Ownable.sol\":2357:2387  _transferOwnership(address(0)) */\n      jump\t// in\n    tag_162:\n        /* \"@openzeppelin/contracts/access/Ownable.sol\":2293:2394  function renounceOwnership() public virtual onlyOwner {... */\n      jump\t// out\n        /* \"@openzeppelin/contracts/access/Ownable.sol\":1638:1723  function owner() public view virtual returns (address) {... */\n    tag_54:\n        /* \"@openzeppelin/contracts/access/Ownable.sol\":1684:1691  address */\n      0x00\n        /* \"@openzeppelin/contracts/access/Ownable.sol\":1710:1716  _owner */\n      dup1\n      0x00\n      swap1\n      sload\n      swap1\n      0x0100\n      exp\n      swap1\n      div\n      0xffffffffffffffffffffffffffffffffffffffff\n      and\n        /* \"@openzeppelin/contracts/access/Ownable.sol\":1703:1716  return _owner */\n      swap1\n      pop\n        /* \"@openzeppelin/contracts/access/Ownable.sol\":1638:1723  function owner() public view virtual returns (address) {... */\n      swap1\n      jump\t// out\n        /* \"contracts/Voting.sol\":9148:9330  function getTotalVotes() external view returns (uint256 total) {... */\n    tag_58:\n        /* \"contracts/Voting.sol\":9196:9209  uint256 total */\n      0x00\n        /* \"contracts/Voting.sol\":9226:9235  uint256 i */\n      dup1\n        /* \"contracts/Voting.sol\":9238:9239  1 */\n      0x01\n        /* \"contracts/Voting.sol\":9226:9239  uint256 i = 1 */\n      swap1\n      pop\n        /* \"contracts/Voting.sol\":9221:9324  for (uint256 i = 1; i <= candidateCount; i++) {... */\n    tag_166:\n        /* \"contracts/Voting.sol\":9246:9260  candidateCount */\n      sload(0x03)\n        /* \"contracts/Voting.sol\":9241:9242  i */\n      dup2\n        /* \"contracts/Voting.sol\":9241:9260  i <= candidateCount */\n      gt\n        /* \"contracts/Voting.sol\":9221:9324  for (uint256 i = 1; i <= candidateCount; i++) {... */\n      tag_167\n      jumpi\n        /* \"contracts/Voting.sol\":9290:9300  candidates */\n      0x01\n        /* \"contracts/Voting.sol\":9290:9303  candidates[i] */\n      0x00\n        /* \"contracts/Voting.sol\":9301:9302  i */\n      dup3\n        /* \"contracts/Voting.sol\":9290:9303  candidates[i] */\n      dup2\n      mstore\n      0x20\n      add\n      swap1\n      dup2\n      mstore\n      0x20\n      add\n      0x00\n      keccak256\n        /* \"contracts/Voting.sol\":9290:9313  candidates[i].voteCount */\n      0x02\n      add\n      sload\n        /* \"contracts/Voting.sol\":9281:9313  total += candidates[i].voteCount */\n      dup3\n      tag_169\n      swap2\n      swap1\n      tag_170\n      jump\t// in\n    tag_169:\n      swap2\n      pop\n        /* \"contracts/Voting.sol\":9262:9265  i++ */\n      dup1\n      dup1\n      tag_171\n      swap1\n      tag_81\n      jump\t// in\n    tag_171:\n      swap2\n      pop\n      pop\n        /* \"contracts/Voting.sol\":9221:9324  for (uint256 i = 1; i <= candidateCount; i++) {... */\n      jump(tag_166)\n    tag_167:\n      pop\n        /* \"contracts/Voting.sol\":9148:9330  function getTotalVotes() external view returns (uint256 total) {... */\n      swap1\n      jump\t// out\n        /* \"contracts/Voting.sol\":1934:1963  uint256 public candidateCount */\n    tag_62:\n      sload(0x03)\n      dup2\n      jump\t// out\n        /* \"contracts/Voting.sol\":5164:5443  function openElection() external onlyOwner {... */\n    tag_65:\n        /* \"@openzeppelin/contracts/access/Ownable.sol\":1531:1544  _checkOwner() */\n      tag_173\n        /* \"@openzeppelin/contracts/access/Ownable.sol\":1531:1542  _checkOwner */\n      tag_84\n        /* \"@openzeppelin/contracts/access/Ownable.sol\":1531:1544  _checkOwner() */\n      jump\t// in\n    tag_173:\n        /* \"contracts/Voting.sol\":5242:5243  0 */\n      0x00\n        /* \"contracts/Voting.sol\":5225:5239  candidateCount */\n      sload(0x03)\n        /* \"contracts/Voting.sol\":5225:5243  candidateCount > 0 */\n      gt\n        /* \"contracts/Voting.sol\":5217:5297  require(candidateCount > 0, \"Voting: add at least one candidate before opening\") */\n      tag_175\n      jumpi\n      mload(0x40)\n      0x08c379a000000000000000000000000000000000000000000000000000000000\n      dup2\n      mstore\n      0x04\n      add\n      tag_176\n      swap1\n      tag_177\n      jump\t// in\n    tag_176:\n      mload(0x40)\n      dup1\n      swap2\n      sub\n      swap1\n      revert\n    tag_175:\n        /* \"contracts/Voting.sol\":5316:5328  electionOpen */\n      0x04\n      0x00\n      swap1\n      sload\n      swap1\n      0x0100\n      exp\n      swap1\n      div\n      0xff\n      and\n        /* \"contracts/Voting.sol\":5315:5328  !electionOpen */\n      iszero\n        /* \"contracts/Voting.sol\":5307:5365  require(!electionOpen, \"Voting: election is already open\") */\n      tag_178\n      jumpi\n      mload(0x40)\n      0x08c379a000000000000000000000000000000000000000000000000000000000\n      dup2\n      mstore\n      0x04\n      add\n      tag_179\n      swap1\n      tag_180\n      jump\t// in\n    tag_179:\n      mload(0x40)\n      dup1\n      swap2\n      sub\n      swap1\n      revert\n    tag_178:\n        /* \"contracts/Voting.sol\":5390:5394  true */\n      0x01\n        /* \"contracts/Voting.sol\":5375:5387  electionOpen */\n      0x04\n      0x00\n        /* \"contracts/Voting.sol\":5375:5394  electionOpen = true */\n      0x0100\n      exp\n      dup2\n      sload\n      dup2\n      0xff\n      mul\n      not\n      and\n      swap1\n      dup4\n      iszero\n      iszero\n      mul\n      or\n      swap1\n      sstore\n      pop\n        /* \"contracts/Voting.sol\":5409:5436  ElectionStatusChanged(true) */\n      0xe87fa5a9385947fdf4bf79b7b6d9e791d5c1bf2460fd1192586fa4f98a38e15a\n        /* \"contracts/Voting.sol\":5431:5435  true */\n      0x01\n        /* \"contracts/Voting.sol\":5409:5436  ElectionStatusChanged(true) */\n      mload(0x40)\n      tag_181\n      swap2\n      swap1\n      tag_32\n      jump\t// in\n    tag_181:\n      mload(0x40)\n      dup1\n      swap2\n      sub\n      swap1\n      log1\n        /* \"contracts/Voting.sol\":5164:5443  function openElection() external onlyOwner {... */\n      jump\t// out\n        /* \"@openzeppelin/contracts/access/Ownable.sol\":2543:2758  function transferOwnership(address newOwner) public virtual onlyOwner {... */\n    tag_68:\n        /* \"@openzeppelin/contracts/access/Ownable.sol\":1531:1544  _checkOwner() */\n      tag_183\n        /* \"@openzeppelin/contracts/access/Ownable.sol\":1531:1542  _checkOwner */\n      tag_84\n        /* \"@openzeppelin/contracts/access/Ownable.sol\":1531:1544  _checkOwner() */\n      jump\t// in\n    tag_183:\n        /* \"@openzeppelin/contracts/access/Ownable.sol\":2647:2648  0 */\n      0x00\n        /* \"@openzeppelin/contracts/access/Ownable.sol\":2627:2649  newOwner == address(0) */\n      0xffffffffffffffffffffffffffffffffffffffff\n      and\n        /* \"@openzeppelin/contracts/access/Ownable.sol\":2627:2635  newOwner */\n      dup2\n        /* \"@openzeppelin/contracts/access/Ownable.sol\":2627:2649  newOwner == address(0) */\n      0xffffffffffffffffffffffffffffffffffffffff\n      and\n      sub\n        /* \"@openzeppelin/contracts/access/Ownable.sol\":2623:2714  if (newOwner == address(0)) {... */\n      tag_185\n      jumpi\n        /* \"@openzeppelin/contracts/access/Ownable.sol\":2700:2701  0 */\n      0x00\n        /* \"@openzeppelin/contracts/access/Ownable.sol\":2672:2703  OwnableInvalidOwner(address(0)) */\n      mload(0x40)\n      0x1e4fbdf700000000000000000000000000000000000000000000000000000000\n      dup2\n      mstore\n      0x04\n      add\n      tag_186\n      swap2\n      swap1\n      tag_56\n      jump\t// in\n    tag_186:\n      mload(0x40)\n      dup1\n      swap2\n      sub\n      swap1\n      revert\n        /* \"@openzeppelin/contracts/access/Ownable.sol\":2623:2714  if (newOwner == address(0)) {... */\n    tag_185:\n        /* \"@openzeppelin/contracts/access/Ownable.sol\":2723:2751  _transferOwnership(newOwner) */\n      tag_187\n        /* \"@openzeppelin/contracts/access/Ownable.sol\":2742:2750  newOwner */\n      dup2\n        /* \"@openzeppelin/contracts/access/Ownable.sol\":2723:2741  _transferOwnership */\n      tag_163\n        /* \"@openzeppelin/contracts/access/Ownable.sol\":2723:2751  _transferOwnership(newOwner) */\n      jump\t// in\n    tag_187:\n        /* \"@openzeppelin/contracts/access/Ownable.sol\":2543:2758  function transferOwnership(address newOwner) public virtual onlyOwner {... */\n      pop\n      jump\t// out\n        /* \"@openzeppelin/contracts/access/Ownable.sol\":1796:1958  function _checkOwner() internal view virtual {... */\n    tag_84:\n        /* \"@openzeppelin/contracts/access/Ownable.sol\":1866:1878  _msgSender() */\n      tag_189\n        /* \"@openzeppelin/contracts/access/Ownable.sol\":1866:1876  _msgSender */\n      tag_190\n        /* \"@openzeppelin/contracts/access/Ownable.sol\":1866:1878  _msgSender() */\n      jump\t// in\n    tag_189:\n        /* \"@openzeppelin/contracts/access/Ownable.sol\":1855:1878  owner() != _msgSender() */\n      0xffffffffffffffffffffffffffffffffffffffff\n      and\n        /* \"@openzeppelin/contracts/access/Ownable.sol\":1855:1862  owner() */\n      tag_191\n        /* \"@openzeppelin/contracts/access/Ownable.sol\":1855:1860  owner */\n      tag_54\n        /* \"@openzeppelin/contracts/access/Ownable.sol\":1855:1862  owner() */\n      jump\t// in\n    tag_191:\n        /* \"@openzeppelin/contracts/access/Ownable.sol\":1855:1878  owner() != _msgSender() */\n      0xffffffffffffffffffffffffffffffffffffffff\n      and\n      eq\n        /* \"@openzeppelin/contracts/access/Ownable.sol\":1851:1952  if (owner() != _msgSender()) {... */\n      tag_192\n      jumpi\n        /* \"@openzeppelin/contracts/access/Ownable.sol\":1928:1940  _msgSender() */\n      tag_193\n        /* \"@openzeppelin/contracts/access/Ownable.sol\":1928:1938  _msgSender */\n      tag_190\n        /* \"@openzeppelin/contracts/access/Ownable.sol\":1928:1940  _msgSender() */\n      jump\t// in\n    tag_193:\n        /* \"@openzeppelin/contracts/access/Ownable.sol\":1901:1941  OwnableUnauthorizedAccount(_msgSender()) */\n      mload(0x40)\n      0x118cdaa700000000000000000000000000000000000000000000000000000000\n      dup2\n      mstore\n      0x04\n      add\n      tag_194\n      swap2\n      swap1\n      tag_56\n      jump\t// in\n    tag_194:\n      mload(0x40)\n      dup1\n      swap2\n      sub\n      swap1\n      revert\n        /* \"@openzeppelin/contracts/access/Ownable.sol\":1851:1952  if (owner() != _msgSender()) {... */\n    tag_192:\n        /* \"@openzeppelin/contracts/access/Ownable.sol\":1796:1958  function _checkOwner() internal view virtual {... */\n      jump\t// out\n        /* \"@openzeppelin/contracts/access/Ownable.sol\":2912:3099  function _transferOwnership(address newOwner) internal virtual {... */\n    tag_163:\n        /* \"@openzeppelin/contracts/access/Ownable.sol\":2985:3001  address oldOwner */\n      0x00\n        /* \"@openzeppelin/contracts/access/Ownable.sol\":3004:3010  _owner */\n      dup1\n      0x00\n      swap1\n      sload\n      swap1\n      0x0100\n      exp\n      swap1\n      div\n      0xffffffffffffffffffffffffffffffffffffffff\n      and\n        /* \"@openzeppelin/contracts/access/Ownable.sol\":2985:3010  address oldOwner = _owner */\n      swap1\n      pop\n        /* \"@openzeppelin/contracts/access/Ownable.sol\":3029:3037  newOwner */\n      dup2\n        /* \"@openzeppelin/contracts/access/Ownable.sol\":3020:3026  _owner */\n      0x00\n      dup1\n        /* \"@openzeppelin/contracts/access/Ownable.sol\":3020:3037  _owner = newOwner */\n      0x0100\n      exp\n      dup2\n      sload\n      dup2\n      0xffffffffffffffffffffffffffffffffffffffff\n      mul\n      not\n      and\n      swap1\n      dup4\n      0xffffffffffffffffffffffffffffffffffffffff\n      and\n      mul\n      or\n      swap1\n      sstore\n      pop\n        /* \"@openzeppelin/contracts/access/Ownable.sol\":3083:3091  newOwner */\n      dup2\n        /* \"@openzeppelin/contracts/access/Ownable.sol\":3052:3092  OwnershipTransferred(oldOwner, newOwner) */\n      0xffffffffffffffffffffffffffffffffffffffff\n      and\n        /* \"@openzeppelin/contracts/access/Ownable.sol\":3073:3081  oldOwner */\n      dup2\n        /* \"@openzeppelin/contracts/access/Ownable.sol\":3052:3092  OwnershipTransferred(oldOwner, newOwner) */\n      0xffffffffffffffffffffffffffffffffffffffff\n      and\n      0x8be0079c531659141344cd1fd0a4f28419497f9722a3daafe3b4186f6b6457e0\n      mload(0x40)\n      mload(0x40)\n      dup1\n      swap2\n      sub\n      swap1\n      log3\n        /* \"@openzeppelin/contracts/access/Ownable.sol\":2975:3099  {... */\n      pop\n        /* \"@openzeppelin/contracts/access/Ownable.sol\":2912:3099  function _transferOwnership(address newOwner) internal virtual {... */\n      pop\n      jump\t// out\n        /* \"@openzeppelin/contracts/utils/Context.sol\":656:752  function _msgSender() internal view virtual returns (address) {... */\n    tag_190:\n        /* \"@openzeppelin/contracts/utils/Context.sol\":709:716  address */\n      0x00\n        /* \"@openzeppelin/contracts/utils/Context.sol\":735:745  msg.sender */\n      caller\n        /* \"@openzeppelin/contracts/utils/Context.sol\":728:745  return msg.sender */\n      swap1\n      pop\n        /* \"@openzeppelin/contracts/utils/Context.sol\":656:752  function _msgSender() internal view virtual returns (address) {... */\n      swap1\n      jump\t// out\n    tag_98:\n      pop\n      dup1\n      sload\n      tag_197\n      swap1\n      tag_93\n      jump\t// in\n    tag_197:\n      0x00\n      dup3\n      sstore\n      dup1\n      0x1f\n      lt\n      tag_199\n      jumpi\n      pop\n      jump(tag_198)\n    tag_199:\n      0x1f\n      add\n      0x20\n      swap1\n      div\n      swap1\n      0x00\n      mstore\n      keccak256(0x00, 0x20)\n      swap1\n      dup2\n      add\n      swap1\n      tag_200\n      swap2\n      swap1\n      tag_201\n      jump\t// in\n    tag_200:\n    tag_198:\n      pop\n      jump\t// out\n    tag_201:\n    tag_202:\n      dup1\n      dup3\n      gt\n      iszero\n      tag_203\n      jumpi\n      0x00\n      dup2\n      0x00\n      swap1\n      sstore\n      pop\n      0x01\n      add\n      jump(tag_202)\n    tag_203:\n      pop\n      swap1\n      jump\t// out\n        /* \"#utility.yul\":88:205   */\n    tag_205:\n        /* \"#utility.yul\":197:198   */\n      0x00\n        /* \"#utility.yul\":194:195   */\n      dup1\n        /* \"#utility.yul\":187:199   */\n      revert\n        /* \"#utility.yul\":211:328   */\n    tag_206:\n        /* \"#utility.yul\":320:321   */\n      0x00\n        /* \"#utility.yul\":317:318   */\n      dup1\n        /* \"#utility.yul\":310:322   */\n      revert\n        /* \"#utility.yul\":334:411   */\n    tag_207:\n        /* \"#utility.yul\":371:378   */\n      0x00\n        /* \"#utility.yul\":400:405   */\n      dup2\n        /* \"#utility.yul\":389:405   */\n      swap1\n      pop\n        /* \"#utility.yul\":334:411   */\n      swap2\n      swap1\n      pop\n      jump\t// out\n        /* \"#utility.yul\":417:539   */\n    tag_208:\n        /* \"#utility.yul\":490:514   */\n      tag_289\n        /* \"#utility.yul\":508:513   */\n      dup2\n        /* \"#utility.yul\":490:514   */\n      tag_207\n      jump\t// in\n    tag_289:\n        /* \"#utility.yul\":483:488   */\n      dup2\n        /* \"#utility.yul\":480:515   */\n      eq\n        /* \"#utility.yul\":470:533   */\n      tag_290\n      jumpi\n        /* \"#utility.yul\":529:530   */\n      0x00\n        /* \"#utility.yul\":526:527   */\n      dup1\n        /* \"#utility.yul\":519:531   */\n      revert\n        /* \"#utility.yul\":470:533   */\n    tag_290:\n        /* \"#utility.yul\":417:539   */\n      pop\n      jump\t// out\n        /* \"#utility.yul\":545:684   */\n    tag_209:\n        /* \"#utility.yul\":591:596   */\n      0x00\n        /* \"#utility.yul\":629:635   */\n      dup2\n        /* \"#utility.yul\":616:636   */\n      calldataload\n        /* \"#utility.yul\":607:636   */\n      swap1\n      pop\n        /* \"#utility.yul\":645:678   */\n      tag_292\n        /* \"#utility.yul\":672:677   */\n      dup2\n        /* \"#utility.yul\":645:678   */\n      tag_208\n      jump\t// in\n    tag_292:\n        /* \"#utility.yul\":545:684   */\n      swap3\n      swap2\n      pop\n      pop\n      jump\t// out\n        /* \"#utility.yul\":690:1019   */\n    tag_22:\n        /* \"#utility.yul\":749:755   */\n      0x00\n        /* \"#utility.yul\":798:800   */\n      0x20\n        /* \"#utility.yul\":786:795   */\n      dup3\n        /* \"#utility.yul\":777:784   */\n      dup5\n        /* \"#utility.yul\":773:796   */\n      sub\n        /* \"#utility.yul\":769:801   */\n      slt\n        /* \"#utility.yul\":766:885   */\n      iszero\n      tag_294\n      jumpi\n        /* \"#utility.yul\":804:883   */\n      tag_295\n      tag_205\n      jump\t// in\n    tag_295:\n        /* \"#utility.yul\":766:885   */\n    tag_294:\n        /* \"#utility.yul\":924:925   */\n      0x00\n        /* \"#utility.yul\":949:1002   */\n      tag_296\n        /* \"#utility.yul\":994:1001   */\n      dup5\n        /* \"#utility.yul\":985:991   */\n      dup3\n        /* \"#utility.yul\":974:983   */\n      dup6\n        /* \"#utility.yul\":970:992   */\n      add\n        /* \"#utility.yul\":949:1002   */\n      tag_209\n      jump\t// in\n    tag_296:\n        /* \"#utility.yul\":939:1002   */\n      swap2\n      pop\n        /* \"#utility.yul\":895:1012   */\n      pop\n        /* \"#utility.yul\":690:1019   */\n      swap3\n      swap2\n      pop\n      pop\n      jump\t// out\n        /* \"#utility.yul\":1025:1151   */\n    tag_210:\n        /* \"#utility.yul\":1062:1069   */\n      0x00\n        /* \"#utility.yul\":1102:1144   */\n      0xffffffffffffffffffffffffffffffffffffffff\n        /* \"#utility.yul\":1095:1100   */\n      dup3\n        /* \"#utility.yul\":1091:1145   */\n      and\n        /* \"#utility.yul\":1080:1145   */\n      swap1\n      pop\n        /* \"#utility.yul\":1025:1151   */\n      swap2\n      swap1\n      pop\n      jump\t// out\n        /* \"#utility.yul\":1157:1253   */\n    tag_211:\n        /* \"#utility.yul\":1194:1201   */\n      0x00\n        /* \"#utility.yul\":1223:1247   */\n      tag_299\n        /* \"#utility.yul\":1241:1246   */\n      dup3\n        /* \"#utility.yul\":1223:1247   */\n      tag_210\n      jump\t// in\n    tag_299:\n        /* \"#utility.yul\":1212:1247   */\n      swap1\n      pop\n        /* \"#utility.yul\":1157:1253   */\n      swap2\n      swap1\n      pop\n      jump\t// out\n        /* \"#utility.yul\":1259:1381   */\n    tag_212:\n        /* \"#utility.yul\":1332:1356   */\n      tag_301\n        /* \"#utility.yul\":1350:1355   */\n      dup2\n        /* \"#utility.yul\":1332:1356   */\n      tag_211\n      jump\t// in\n    tag_301:\n        /* \"#utility.yul\":1325:1330   */\n      dup2\n        /* \"#utility.yul\":1322:1357   */\n      eq\n        /* \"#utility.yul\":1312:1375   */\n      tag_302\n      jumpi\n        /* \"#utility.yul\":1371:1372   */\n      0x00\n        /* \"#utility.yul\":1368:1369   */\n      dup1\n        /* \"#utility.yul\":1361:1373   */\n      revert\n        /* \"#utility.yul\":1312:1375   */\n    tag_302:\n        /* \"#utility.yul\":1259:1381   */\n      pop\n      jump\t// out\n        /* \"#utility.yul\":1387:1526   */\n    tag_213:\n        /* \"#utility.yul\":1433:1438   */\n      0x00\n        /* \"#utility.yul\":1471:1477   */\n      dup2\n        /* \"#utility.yul\":1458:1478   */\n      calldataload\n        /* \"#utility.yul\":1449:1478   */\n      swap1\n      pop\n        /* \"#utility.yul\":1487:1520   */\n      tag_304\n        /* \"#utility.yul\":1514:1519   */\n      dup2\n        /* \"#utility.yul\":1487:1520   */\n      tag_212\n      jump\t// in\n    tag_304:\n        /* \"#utility.yul\":1387:1526   */\n      swap3\n      swap2\n      pop\n      pop\n      jump\t// out\n        /* \"#utility.yul\":1532:1861   */\n    tag_29:\n        /* \"#utility.yul\":1591:1597   */\n      0x00\n        /* \"#utility.yul\":1640:1642   */\n      0x20\n        /* \"#utility.yul\":1628:1637   */\n      dup3\n        /* \"#utility.yul\":1619:1626   */\n      dup5\n        /* \"#utility.yul\":1615:1638   */\n      sub\n        /* \"#utility.yul\":1611:1643   */\n      slt\n        /* \"#utility.yul\":1608:1727   */\n      iszero\n      tag_306\n      jumpi\n        /* \"#utility.yul\":1646:1725   */\n      tag_307\n      tag_205\n      jump\t// in\n    tag_307:\n        /* \"#utility.yul\":1608:1727   */\n    tag_306:\n        /* \"#utility.yul\":1766:1767   */\n      0x00\n        /* \"#utility.yul\":1791:1844   */\n      tag_308\n        /* \"#utility.yul\":1836:1843   */\n      dup5\n        /* \"#utility.yul\":1827:1833   */\n      dup3\n        /* \"#utility.yul\":1816:1825   */\n      dup6\n        /* \"#utility.yul\":1812:1834   */\n      add\n        /* \"#utility.yul\":1791:1844   */\n      tag_213\n      jump\t// in\n    tag_308:\n        /* \"#utility.yul\":1781:1844   */\n      swap2\n      pop\n        /* \"#utility.yul\":1737:1854   */\n      pop\n        /* \"#utility.yul\":1532:1861   */\n      swap3\n      swap2\n      pop\n      pop\n      jump\t// out\n        /* \"#utility.yul\":1867:1957   */\n    tag_214:\n        /* \"#utility.yul\":1901:1908   */\n      0x00\n        /* \"#utility.yul\":1944:1949   */\n      dup2\n        /* \"#utility.yul\":1937:1950   */\n      iszero\n        /* \"#utility.yul\":1930:1951   */\n      iszero\n        /* \"#utility.yul\":1919:1951   */\n      swap1\n      pop\n        /* \"#utility.yul\":1867:1957   */\n      swap2\n      swap1\n      pop\n      jump\t// out\n        /* \"#utility.yul\":1963:2072   */\n    tag_215:\n        /* \"#utility.yul\":2044:2065   */\n      tag_311\n        /* \"#utility.yul\":2059:2064   */\n      dup2\n        /* \"#utility.yul\":2044:2065   */\n      tag_214\n      jump\t// in\n    tag_311:\n        /* \"#utility.yul\":2039:2042   */\n      dup3\n        /* \"#utility.yul\":2032:2066   */\n      mstore\n        /* \"#utility.yul\":1963:2072   */\n      pop\n      pop\n      jump\t// out\n        /* \"#utility.yul\":2078:2288   */\n    tag_32:\n        /* \"#utility.yul\":2165:2169   */\n      0x00\n        /* \"#utility.yul\":2203:2205   */\n      0x20\n        /* \"#utility.yul\":2192:2201   */\n      dup3\n        /* \"#utility.yul\":2188:2206   */\n      add\n        /* \"#utility.yul\":2180:2206   */\n      swap1\n      pop\n        /* \"#utility.yul\":2216:2281   */\n      tag_313\n        /* \"#utility.yul\":2278:2279   */\n      0x00\n        /* \"#utility.yul\":2267:2276   */\n      dup4\n        /* \"#utility.yul\":2263:2280   */\n      add\n        /* \"#utility.yul\":2254:2260   */\n      dup5\n        /* \"#utility.yul\":2216:2281   */\n      tag_215\n      jump\t// in\n    tag_313:\n        /* \"#utility.yul\":2078:2288   */\n      swap3\n      swap2\n      pop\n      pop\n      jump\t// out\n        /* \"#utility.yul\":2294:2408   */\n    tag_216:\n        /* \"#utility.yul\":2361:2367   */\n      0x00\n        /* \"#utility.yul\":2395:2400   */\n      dup2\n        /* \"#utility.yul\":2389:2401   */\n      mload\n        /* \"#utility.yul\":2379:2401   */\n      swap1\n      pop\n        /* \"#utility.yul\":2294:2408   */\n      swap2\n      swap1\n      pop\n      jump\t// out\n        /* \"#utility.yul\":2414:2598   */\n    tag_217:\n        /* \"#utility.yul\":2513:2524   */\n      0x00\n        /* \"#utility.yul\":2547:2553   */\n      dup3\n        /* \"#utility.yul\":2542:2545   */\n      dup3\n        /* \"#utility.yul\":2535:2554   */\n      mstore\n        /* \"#utility.yul\":2587:2591   */\n      0x20\n        /* \"#utility.yul\":2582:2585   */\n      dup3\n        /* \"#utility.yul\":2578:2592   */\n      add\n        /* \"#utility.yul\":2563:2592   */\n      swap1\n      pop\n        /* \"#utility.yul\":2414:2598   */\n      swap3\n      swap2\n      pop\n      pop\n      jump\t// out\n        /* \"#utility.yul\":2604:2736   */\n    tag_218:\n        /* \"#utility.yul\":2671:2675   */\n      0x00\n        /* \"#utility.yul\":2694:2697   */\n      dup2\n        /* \"#utility.yul\":2686:2697   */\n      swap1\n      pop\n        /* \"#utility.yul\":2724:2728   */\n      0x20\n        /* \"#utility.yul\":2719:2722   */\n      dup3\n        /* \"#utility.yul\":2715:2729   */\n      add\n        /* \"#utility.yul\":2707:2729   */\n      swap1\n      pop\n        /* \"#utility.yul\":2604:2736   */\n      swap2\n      swap1\n      pop\n      jump\t// out\n        /* \"#utility.yul\":2742:2850   */\n    tag_219:\n        /* \"#utility.yul\":2819:2843   */\n      tag_318\n        /* \"#utility.yul\":2837:2842   */\n      dup2\n        /* \"#utility.yul\":2819:2843   */\n      tag_207\n      jump\t// in\n    tag_318:\n        /* \"#utility.yul\":2814:2817   */\n      dup3\n        /* \"#utility.yul\":2807:2844   */\n      mstore\n        /* \"#utility.yul\":2742:2850   */\n      pop\n      pop\n      jump\t// out\n        /* \"#utility.yul\":2856:3035   */\n    tag_220:\n        /* \"#utility.yul\":2925:2935   */\n      0x00\n        /* \"#utility.yul\":2946:2992   */\n      tag_320\n        /* \"#utility.yul\":2988:2991   */\n      dup4\n        /* \"#utility.yul\":2980:2986   */\n      dup4\n        /* \"#utility.yul\":2946:2992   */\n      tag_219\n      jump\t// in\n    tag_320:\n        /* \"#utility.yul\":3024:3028   */\n      0x20\n        /* \"#utility.yul\":3019:3022   */\n      dup4\n        /* \"#utility.yul\":3015:3029   */\n      add\n        /* \"#utility.yul\":3001:3029   */\n      swap1\n      pop\n        /* \"#utility.yul\":2856:3035   */\n      swap3\n      swap2\n      pop\n      pop\n      jump\t// out\n        /* \"#utility.yul\":3041:3154   */\n    tag_221:\n        /* \"#utility.yul\":3111:3115   */\n      0x00\n        /* \"#utility.yul\":3143:3147   */\n      0x20\n        /* \"#utility.yul\":3138:3141   */\n      dup3\n        /* \"#utility.yul\":3134:3148   */\n      add\n        /* \"#utility.yul\":3126:3148   */\n      swap1\n      pop\n        /* \"#utility.yul\":3041:3154   */\n      swap2\n      swap1\n      pop\n      jump\t// out\n        /* \"#utility.yul\":3190:3922   */\n    tag_222:\n        /* \"#utility.yul\":3309:3312   */\n      0x00\n        /* \"#utility.yul\":3338:3392   */\n      tag_323\n        /* \"#utility.yul\":3386:3391   */\n      dup3\n        /* \"#utility.yul\":3338:3392   */\n      tag_216\n      jump\t// in\n    tag_323:\n        /* \"#utility.yul\":3408:3494   */\n      tag_324\n        /* \"#utility.yul\":3487:3493   */\n      dup2\n        /* \"#utility.yul\":3482:3485   */\n      dup6\n        /* \"#utility.yul\":3408:3494   */\n      tag_217\n      jump\t// in\n    tag_324:\n        /* \"#utility.yul\":3401:3494   */\n      swap4\n      pop\n        /* \"#utility.yul\":3518:3574   */\n      tag_325\n        /* \"#utility.yul\":3568:3573   */\n      dup4\n        /* \"#utility.yul\":3518:3574   */\n      tag_218\n      jump\t// in\n    tag_325:\n        /* \"#utility.yul\":3597:3604   */\n      dup1\n        /* \"#utility.yul\":3628:3629   */\n      0x00\n        /* \"#utility.yul\":3613:3897   */\n    tag_326:\n        /* \"#utility.yul\":3638:3644   */\n      dup4\n        /* \"#utility.yul\":3635:3636   */\n      dup2\n        /* \"#utility.yul\":3632:3645   */\n      lt\n        /* \"#utility.yul\":3613:3897   */\n      iszero\n      tag_328\n      jumpi\n        /* \"#utility.yul\":3714:3720   */\n      dup2\n        /* \"#utility.yul\":3708:3721   */\n      mload\n        /* \"#utility.yul\":3741:3804   */\n      tag_329\n        /* \"#utility.yul\":3800:3803   */\n      dup9\n        /* \"#utility.yul\":3785:3798   */\n      dup3\n        /* \"#utility.yul\":3741:3804   */\n      tag_220\n      jump\t// in\n    tag_329:\n        /* \"#utility.yul\":3734:3804   */\n      swap8\n      pop\n        /* \"#utility.yul\":3827:3887   */\n      tag_330\n        /* \"#utility.yul\":3880:3886   */\n      dup4\n        /* \"#utility.yul\":3827:3887   */\n      tag_221\n      jump\t// in\n    tag_330:\n        /* \"#utility.yul\":3817:3887   */\n      swap3\n      pop\n        /* \"#utility.yul\":3673:3897   */\n      pop\n        /* \"#utility.yul\":3660:3661   */\n      0x01\n        /* \"#utility.yul\":3657:3658   */\n      dup2\n        /* \"#utility.yul\":3653:3662   */\n      add\n        /* \"#utility.yul\":3648:3662   */\n      swap1\n      pop\n        /* \"#utility.yul\":3613:3897   */\n      jump(tag_326)\n    tag_328:\n        /* \"#utility.yul\":3617:3631   */\n      pop\n        /* \"#utility.yul\":3913:3916   */\n      dup6\n        /* \"#utility.yul\":3906:3916   */\n      swap4\n      pop\n        /* \"#utility.yul\":3314:3922   */\n      pop\n      pop\n      pop\n        /* \"#utility.yul\":3190:3922   */\n      swap3\n      swap2\n      pop\n      pop\n      jump\t// out\n        /* \"#utility.yul\":3928:4052   */\n    tag_223:\n        /* \"#utility.yul\":4005:4011   */\n      0x00\n        /* \"#utility.yul\":4039:4044   */\n      dup2\n        /* \"#utility.yul\":4033:4045   */\n      mload\n        /* \"#utility.yul\":4023:4045   */\n      swap1\n      pop\n        /* \"#utility.yul\":3928:4052   */\n      swap2\n      swap1\n      pop\n      jump\t// out\n        /* \"#utility.yul\":4058:4252   */\n    tag_224:\n        /* \"#utility.yul\":4167:4178   */\n      0x00\n        /* \"#utility.yul\":4201:4207   */\n      dup3\n        /* \"#utility.yul\":4196:4199   */\n      dup3\n        /* \"#utility.yul\":4189:4208   */\n      mstore\n        /* \"#utility.yul\":4241:4245   */\n      0x20\n        /* \"#utility.yul\":4236:4239   */\n      dup3\n        /* \"#utility.yul\":4232:4246   */\n      add\n        /* \"#utility.yul\":4217:4246   */\n      swap1\n      pop\n        /* \"#utility.yul\":4058:4252   */\n      swap3\n      swap2\n      pop\n      pop\n      jump\t// out\n        /* \"#utility.yul\":4258:4400   */\n    tag_225:\n        /* \"#utility.yul\":4335:4339   */\n      0x00\n        /* \"#utility.yul\":4358:4361   */\n      dup2\n        /* \"#utility.yul\":4350:4361   */\n      swap1\n      pop\n        /* \"#utility.yul\":4388:4392   */\n      0x20\n        /* \"#utility.yul\":4383:4386   */\n      dup3\n        /* \"#utility.yul\":4379:4393   */\n      add\n        /* \"#utility.yul\":4371:4393   */\n      swap1\n      pop\n        /* \"#utility.yul\":4258:4400   */\n      swap2\n      swap1\n      pop\n      jump\t// out\n        /* \"#utility.yul\":4406:4505   */\n    tag_226:\n        /* \"#utility.yul\":4458:4464   */\n      0x00\n        /* \"#utility.yul\":4492:4497   */\n      dup2\n        /* \"#utility.yul\":4486:4498   */\n      mload\n        /* \"#utility.yul\":4476:4498   */\n      swap1\n      pop\n        /* \"#utility.yul\":4406:4505   */\n      swap2\n      swap1\n      pop\n      jump\t// out\n        /* \"#utility.yul\":4511:4670   */\n    tag_227:\n        /* \"#utility.yul\":4585:4596   */\n      0x00\n        /* \"#utility.yul\":4619:4625   */\n      dup3\n        /* \"#utility.yul\":4614:4617   */\n      dup3\n        /* \"#utility.yul\":4607:4626   */\n      mstore\n        /* \"#utility.yul\":4659:4663   */\n      0x20\n        /* \"#utility.yul\":4654:4657   */\n      dup3\n        /* \"#utility.yul\":4650:4664   */\n      add\n        /* \"#utility.yul\":4635:4664   */\n      swap1\n      pop\n        /* \"#utility.yul\":4511:4670   */\n      swap3\n      swap2\n      pop\n      pop\n      jump\t// out\n        /* \"#utility.yul\":4676:4922   */\n    tag_228:\n        /* \"#utility.yul\":4757:4758   */\n      0x00\n        /* \"#utility.yul\":4767:4880   */\n    tag_337:\n        /* \"#utility.yul\":4781:4787   */\n      dup4\n        /* \"#utility.yul\":4778:4779   */\n      dup2\n        /* \"#utility.yul\":4775:4788   */\n      lt\n        /* \"#utility.yul\":4767:4880   */\n      iszero\n      tag_339\n      jumpi\n        /* \"#utility.yul\":4866:4867   */\n      dup1\n        /* \"#utility.yul\":4861:4864   */\n      dup3\n        /* \"#utility.yul\":4857:4868   */\n      add\n        /* \"#utility.yul\":4851:4869   */\n      mload\n        /* \"#utility.yul\":4847:4848   */\n      dup2\n        /* \"#utility.yul\":4842:4845   */\n      dup5\n        /* \"#utility.yul\":4838:4849   */\n      add\n        /* \"#utility.yul\":4831:4870   */\n      mstore\n        /* \"#utility.yul\":4803:4805   */\n      0x20\n        /* \"#utility.yul\":4800:4801   */\n      dup2\n        /* \"#utility.yul\":4796:4806   */\n      add\n        /* \"#utility.yul\":4791:4806   */\n      swap1\n      pop\n        /* \"#utility.yul\":4767:4880   */\n      jump(tag_337)\n    tag_339:\n        /* \"#utility.yul\":4914:4915   */\n      0x00\n        /* \"#utility.yul\":4905:4911   */\n      dup5\n        /* \"#utility.yul\":4900:4903   */\n      dup5\n        /* \"#utility.yul\":4896:4912   */\n      add\n        /* \"#utility.yul\":4889:4916   */\n      mstore\n        /* \"#utility.yul\":4738:4922   */\n      pop\n        /* \"#utility.yul\":4676:4922   */\n      pop\n      pop\n      pop\n      jump\t// out\n        /* \"#utility.yul\":4928:5030   */\n    tag_229:\n        /* \"#utility.yul\":4969:4975   */\n      0x00\n        /* \"#utility.yul\":5020:5022   */\n      0x1f\n        /* \"#utility.yul\":5016:5023   */\n      not\n        /* \"#utility.yul\":5011:5013   */\n      0x1f\n        /* \"#utility.yul\":5004:5009   */\n      dup4\n        /* \"#utility.yul\":5000:5014   */\n      add\n        /* \"#utility.yul\":4996:5024   */\n      and\n        /* \"#utility.yul\":4986:5024   */\n      swap1\n      pop\n        /* \"#utility.yul\":4928:5030   */\n      swap2\n      swap1\n      pop\n      jump\t// out\n        /* \"#utility.yul\":5036:5393   */\n    tag_230:\n        /* \"#utility.yul\":5114:5117   */\n      0x00\n        /* \"#utility.yul\":5142:5181   */\n      tag_342\n        /* \"#utility.yul\":5175:5180   */\n      dup3\n        /* \"#utility.yul\":5142:5181   */\n      tag_226\n      jump\t// in\n    tag_342:\n        /* \"#utility.yul\":5197:5258   */\n      tag_343\n        /* \"#utility.yul\":5251:5257   */\n      dup2\n        /* \"#utility.yul\":5246:5249   */\n      dup6\n        /* \"#utility.yul\":5197:5258   */\n      tag_227\n      jump\t// in\n    tag_343:\n        /* \"#utility.yul\":5190:5258   */\n      swap4\n      pop\n        /* \"#utility.yul\":5267:5332   */\n      tag_344\n        /* \"#utility.yul\":5325:5331   */\n      dup2\n        /* \"#utility.yul\":5320:5323   */\n      dup6\n        /* \"#utility.yul\":5313:5317   */\n      0x20\n        /* \"#utility.yul\":5306:5311   */\n      dup7\n        /* \"#utility.yul\":5302:5318   */\n      add\n        /* \"#utility.yul\":5267:5332   */\n      tag_228\n      jump\t// in\n    tag_344:\n        /* \"#utility.yul\":5357:5386   */\n      tag_345\n        /* \"#utility.yul\":5379:5385   */\n      dup2\n        /* \"#utility.yul\":5357:5386   */\n      tag_229\n      jump\t// in\n    tag_345:\n        /* \"#utility.yul\":5352:5355   */\n      dup5\n        /* \"#utility.yul\":5348:5387   */\n      add\n        /* \"#utility.yul\":5341:5387   */\n      swap2\n      pop\n        /* \"#utility.yul\":5118:5393   */\n      pop\n        /* \"#utility.yul\":5036:5393   */\n      swap3\n      swap2\n      pop\n      pop\n      jump\t// out\n        /* \"#utility.yul\":5399:5595   */\n    tag_231:\n        /* \"#utility.yul\":5488:5498   */\n      0x00\n        /* \"#utility.yul\":5523:5589   */\n      tag_347\n        /* \"#utility.yul\":5585:5588   */\n      dup4\n        /* \"#utility.yul\":5577:5583   */\n      dup4\n        /* \"#utility.yul\":5523:5589   */\n      tag_230\n      jump\t// in\n    tag_347:\n        /* \"#utility.yul\":5509:5589   */\n      swap1\n      pop\n        /* \"#utility.yul\":5399:5595   */\n      swap3\n      swap2\n      pop\n      pop\n      jump\t// out\n        /* \"#utility.yul\":5601:5724   */\n    tag_232:\n        /* \"#utility.yul\":5681:5685   */\n      0x00\n        /* \"#utility.yul\":5713:5717   */\n      0x20\n        /* \"#utility.yul\":5708:5711   */\n      dup3\n        /* \"#utility.yul\":5704:5718   */\n      add\n        /* \"#utility.yul\":5696:5718   */\n      swap1\n      pop\n        /* \"#utility.yul\":5601:5724   */\n      swap2\n      swap1\n      pop\n      jump\t// out\n        /* \"#utility.yul\":5758:6749   */\n    tag_233:\n        /* \"#utility.yul\":5897:5900   */\n      0x00\n        /* \"#utility.yul\":5926:5990   */\n      tag_350\n        /* \"#utility.yul\":5984:5989   */\n      dup3\n        /* \"#utility.yul\":5926:5990   */\n      tag_223\n      jump\t// in\n    tag_350:\n        /* \"#utility.yul\":6006:6102   */\n      tag_351\n        /* \"#utility.yul\":6095:6101   */\n      dup2\n        /* \"#utility.yul\":6090:6093   */\n      dup6\n        /* \"#utility.yul\":6006:6102   */\n      tag_224\n      jump\t// in\n    tag_351:\n        /* \"#utility.yul\":5999:6102   */\n      swap4\n      pop\n        /* \"#utility.yul\":6128:6131   */\n      dup4\n        /* \"#utility.yul\":6173:6177   */\n      0x20\n        /* \"#utility.yul\":6165:6171   */\n      dup3\n        /* \"#utility.yul\":6161:6178   */\n      mul\n        /* \"#utility.yul\":6156:6159   */\n      dup6\n        /* \"#utility.yul\":6152:6179   */\n      add\n        /* \"#utility.yul\":6203:6269   */\n      tag_352\n        /* \"#utility.yul\":6263:6268   */\n      dup6\n        /* \"#utility.yul\":6203:6269   */\n      tag_225\n      jump\t// in\n    tag_352:\n        /* \"#utility.yul\":6292:6299   */\n      dup1\n        /* \"#utility.yul\":6323:6324   */\n      0x00\n        /* \"#utility.yul\":6308:6704   */\n    tag_353:\n        /* \"#utility.yul\":6333:6339   */\n      dup6\n        /* \"#utility.yul\":6330:6331   */\n      dup2\n        /* \"#utility.yul\":6327:6340   */\n      lt\n        /* \"#utility.yul\":6308:6704   */\n      iszero\n      tag_355\n      jumpi\n        /* \"#utility.yul\":6404:6413   */\n      dup5\n        /* \"#utility.yul\":6398:6402   */\n      dup5\n        /* \"#utility.yul\":6394:6414   */\n      sub\n        /* \"#utility.yul\":6389:6392   */\n      dup10\n        /* \"#utility.yul\":6382:6415   */\n      mstore\n        /* \"#utility.yul\":6455:6461   */\n      dup2\n        /* \"#utility.yul\":6449:6462   */\n      mload\n        /* \"#utility.yul\":6483:6567   */\n      tag_356\n        /* \"#utility.yul\":6562:6566   */\n      dup6\n        /* \"#utility.yul\":6547:6560   */\n      dup3\n        /* \"#utility.yul\":6483:6567   */\n      tag_231\n      jump\t// in\n    tag_356:\n        /* \"#utility.yul\":6475:6567   */\n      swap5\n      pop\n        /* \"#utility.yul\":6590:6660   */\n      tag_357\n        /* \"#utility.yul\":6653:6659   */\n      dup4\n        /* \"#utility.yul\":6590:6660   */\n      tag_232\n      jump\t// in\n    tag_357:\n        /* \"#utility.yul\":6580:6660   */\n      swap3\n      pop\n        /* \"#utility.yul\":6689:6693   */\n      0x20\n        /* \"#utility.yul\":6684:6687   */\n      dup11\n        /* \"#utility.yul\":6680:6694   */\n      add\n        /* \"#utility.yul\":6673:6694   */\n      swap10\n      pop\n        /* \"#utility.yul\":6368:6704   */\n      pop\n        /* \"#utility.yul\":6355:6356   */\n      0x01\n        /* \"#utility.yul\":6352:6353   */\n      dup2\n        /* \"#utility.yul\":6348:6357   */\n      add\n        /* \"#utility.yul\":6343:6357   */\n      swap1\n      pop\n        /* \"#utility.yul\":6308:6704   */\n      jump(tag_353)\n    tag_355:\n        /* \"#utility.yul\":6312:6326   */\n      pop\n        /* \"#utility.yul\":6720:6724   */\n      dup3\n        /* \"#utility.yul\":6713:6724   */\n      swap8\n      pop\n        /* \"#utility.yul\":6740:6743   */\n      dup8\n        /* \"#utility.yul\":6733:6743   */\n      swap6\n      pop\n        /* \"#utility.yul\":5902:6749   */\n      pop\n      pop\n      pop\n      pop\n      pop\n        /* \"#utility.yul\":5758:6749   */\n      swap3\n      swap2\n      pop\n      pop\n      jump\t// out\n        /* \"#utility.yul\":6755:7690   */\n    tag_36:\n        /* \"#utility.yul\":7074:7078   */\n      0x00\n        /* \"#utility.yul\":7112:7114   */\n      0x60\n        /* \"#utility.yul\":7101:7110   */\n      dup3\n        /* \"#utility.yul\":7097:7115   */\n      add\n        /* \"#utility.yul\":7089:7115   */\n      swap1\n      pop\n        /* \"#utility.yul\":7161:7170   */\n      dup2\n        /* \"#utility.yul\":7155:7159   */\n      dup2\n        /* \"#utility.yul\":7151:7171   */\n      sub\n        /* \"#utility.yul\":7147:7148   */\n      0x00\n        /* \"#utility.yul\":7136:7145   */\n      dup4\n        /* \"#utility.yul\":7132:7149   */\n      add\n        /* \"#utility.yul\":7125:7172   */\n      mstore\n        /* \"#utility.yul\":7189:7297   */\n      tag_359\n        /* \"#utility.yul\":7292:7296   */\n      dup2\n        /* \"#utility.yul\":7283:7289   */\n      dup7\n        /* \"#utility.yul\":7189:7297   */\n      tag_222\n      jump\t// in\n    tag_359:\n        /* \"#utility.yul\":7181:7297   */\n      swap1\n      pop\n        /* \"#utility.yul\":7344:7353   */\n      dup2\n        /* \"#utility.yul\":7338:7342   */\n      dup2\n        /* \"#utility.yul\":7334:7354   */\n      sub\n        /* \"#utility.yul\":7329:7331   */\n      0x20\n        /* \"#utility.yul\":7318:7327   */\n      dup4\n        /* \"#utility.yul\":7314:7332   */\n      add\n        /* \"#utility.yul\":7307:7355   */\n      mstore\n        /* \"#utility.yul\":7372:7500   */\n      tag_360\n        /* \"#utility.yul\":7495:7499   */\n      dup2\n        /* \"#utility.yul\":7486:7492   */\n      dup6\n        /* \"#utility.yul\":7372:7500   */\n      tag_233\n      jump\t// in\n    tag_360:\n        /* \"#utility.yul\":7364:7500   */\n      swap1\n      pop\n        /* \"#utility.yul\":7547:7556   */\n      dup2\n        /* \"#utility.yul\":7541:7545   */\n      dup2\n        /* \"#utility.yul\":7537:7557   */\n      sub\n        /* \"#utility.yul\":7532:7534   */\n      0x40\n        /* \"#utility.yul\":7521:7530   */\n      dup4\n        /* \"#utility.yul\":7517:7535   */\n      add\n        /* \"#utility.yul\":7510:7558   */\n      mstore\n        /* \"#utility.yul\":7575:7683   */\n      tag_361\n        /* \"#utility.yul\":7678:7682   */\n      dup2\n        /* \"#utility.yul\":7669:7675   */\n      dup5\n        /* \"#utility.yul\":7575:7683   */\n      tag_222\n      jump\t// in\n    tag_361:\n        /* \"#utility.yul\":7567:7683   */\n      swap1\n      pop\n        /* \"#utility.yul\":6755:7690   */\n      swap5\n      swap4\n      pop\n      pop\n      pop\n      pop\n      jump\t// out\n        /* \"#utility.yul\":7696:7814   */\n    tag_234:\n        /* \"#utility.yul\":7783:7807   */\n      tag_363\n        /* \"#utility.yul\":7801:7806   */\n      dup2\n        /* \"#utility.yul\":7783:7807   */\n      tag_207\n      jump\t// in\n    tag_363:\n        /* \"#utility.yul\":7778:7781   */\n      dup3\n        /* \"#utility.yul\":7771:7808   */\n      mstore\n        /* \"#utility.yul\":7696:7814   */\n      pop\n      pop\n      jump\t// out\n        /* \"#utility.yul\":7820:7989   */\n    tag_235:\n        /* \"#utility.yul\":7904:7915   */\n      0x00\n        /* \"#utility.yul\":7938:7944   */\n      dup3\n        /* \"#utility.yul\":7933:7936   */\n      dup3\n        /* \"#utility.yul\":7926:7945   */\n      mstore\n        /* \"#utility.yul\":7978:7982   */\n      0x20\n        /* \"#utility.yul\":7973:7976   */\n      dup3\n        /* \"#utility.yul\":7969:7983   */\n      add\n        /* \"#utility.yul\":7954:7983   */\n      swap1\n      pop\n        /* \"#utility.yul\":7820:7989   */\n      swap3\n      swap2\n      pop\n      pop\n      jump\t// out\n        /* \"#utility.yul\":7995:8372   */\n    tag_236:\n        /* \"#utility.yul\":8083:8086   */\n      0x00\n        /* \"#utility.yul\":8111:8150   */\n      tag_366\n        /* \"#utility.yul\":8144:8149   */\n      dup3\n        /* \"#utility.yul\":8111:8150   */\n      tag_226\n      jump\t// in\n    tag_366:\n        /* \"#utility.yul\":8166:8237   */\n      tag_367\n        /* \"#utility.yul\":8230:8236   */\n      dup2\n        /* \"#utility.yul\":8225:8228   */\n      dup6\n        /* \"#utility.yul\":8166:8237   */\n      tag_235\n      jump\t// in\n    tag_367:\n        /* \"#utility.yul\":8159:8237   */\n      swap4\n      pop\n        /* \"#utility.yul\":8246:8311   */\n      tag_368\n        /* \"#utility.yul\":8304:8310   */\n      dup2\n        /* \"#utility.yul\":8299:8302   */\n      dup6\n        /* \"#utility.yul\":8292:8296   */\n      0x20\n        /* \"#utility.yul\":8285:8290   */\n      dup7\n        /* \"#utility.yul\":8281:8297   */\n      add\n        /* \"#utility.yul\":8246:8311   */\n      tag_228\n      jump\t// in\n    tag_368:\n        /* \"#utility.yul\":8336:8365   */\n      tag_369\n        /* \"#utility.yul\":8358:8364   */\n      dup2\n        /* \"#utility.yul\":8336:8365   */\n      tag_229\n      jump\t// in\n    tag_369:\n        /* \"#utility.yul\":8331:8334   */\n      dup5\n        /* \"#utility.yul\":8327:8366   */\n      add\n        /* \"#utility.yul\":8320:8366   */\n      swap2\n      pop\n        /* \"#utility.yul\":8087:8372   */\n      pop\n        /* \"#utility.yul\":7995:8372   */\n      swap3\n      swap2\n      pop\n      pop\n      jump\t// out\n        /* \"#utility.yul\":8378:8911   */\n    tag_41:\n        /* \"#utility.yul\":8547:8551   */\n      0x00\n        /* \"#utility.yul\":8585:8587   */\n      0x60\n        /* \"#utility.yul\":8574:8583   */\n      dup3\n        /* \"#utility.yul\":8570:8588   */\n      add\n        /* \"#utility.yul\":8562:8588   */\n      swap1\n      pop\n        /* \"#utility.yul\":8598:8669   */\n      tag_371\n        /* \"#utility.yul\":8666:8667   */\n      0x00\n        /* \"#utility.yul\":8655:8664   */\n      dup4\n        /* \"#utility.yul\":8651:8668   */\n      add\n        /* \"#utility.yul\":8642:8648   */\n      dup7\n        /* \"#utility.yul\":8598:8669   */\n      tag_234\n      jump\t// in\n    tag_371:\n        /* \"#utility.yul\":8716:8725   */\n      dup2\n        /* \"#utility.yul\":8710:8714   */\n      dup2\n        /* \"#utility.yul\":8706:8726   */\n      sub\n        /* \"#utility.yul\":8701:8703   */\n      0x20\n        /* \"#utility.yul\":8690:8699   */\n      dup4\n        /* \"#utility.yul\":8686:8704   */\n      add\n        /* \"#utility.yul\":8679:8727   */\n      mstore\n        /* \"#utility.yul\":8744:8822   */\n      tag_372\n        /* \"#utility.yul\":8817:8821   */\n      dup2\n        /* \"#utility.yul\":8808:8814   */\n      dup6\n        /* \"#utility.yul\":8744:8822   */\n      tag_236\n      jump\t// in\n    tag_372:\n        /* \"#utility.yul\":8736:8822   */\n      swap1\n      pop\n        /* \"#utility.yul\":8832:8904   */\n      tag_373\n        /* \"#utility.yul\":8900:8902   */\n      0x40\n        /* \"#utility.yul\":8889:8898   */\n      dup4\n        /* \"#utility.yul\":8885:8903   */\n      add\n        /* \"#utility.yul\":8876:8882   */\n      dup5\n        /* \"#utility.yul\":8832:8904   */\n      tag_234\n      jump\t// in\n    tag_373:\n        /* \"#utility.yul\":8378:8911   */\n      swap5\n      swap4\n      pop\n      pop\n      pop\n      pop\n      jump\t// out\n        /* \"#utility.yul\":8917:9034   */\n    tag_237:\n        /* \"#utility.yul\":9026:9027   */\n      0x00\n        /* \"#utility.yul\":9023:9024   */\n      dup1\n        /* \"#utility.yul\":9016:9028   */\n      revert\n        /* \"#utility.yul\":9040:9157   */\n    tag_238:\n        /* \"#utility.yul\":9149:9150   */\n      0x00\n        /* \"#utility.yul\":9146:9147   */\n      dup1\n        /* \"#utility.yul\":9139:9151   */\n      revert\n        /* \"#utility.yul\":9163:9280   */\n    tag_239:\n        /* \"#utility.yul\":9272:9273   */\n      0x00\n        /* \"#utility.yul\":9269:9270   */\n      dup1\n        /* \"#utility.yul\":9262:9274   */\n      revert\n        /* \"#utility.yul\":9300:9853   */\n    tag_240:\n        /* \"#utility.yul\":9358:9366   */\n      0x00\n        /* \"#utility.yul\":9368:9374   */\n      dup1\n        /* \"#utility.yul\":9418:9421   */\n      dup4\n        /* \"#utility.yul\":9411:9415   */\n      0x1f\n        /* \"#utility.yul\":9403:9409   */\n      dup5\n        /* \"#utility.yul\":9399:9416   */\n      add\n        /* \"#utility.yul\":9395:9422   */\n      slt\n        /* \"#utility.yul\":9385:9507   */\n      tag_378\n      jumpi\n        /* \"#utility.yul\":9426:9505   */\n      tag_379\n      tag_237\n      jump\t// in\n    tag_379:\n        /* \"#utility.yul\":9385:9507   */\n    tag_378:\n        /* \"#utility.yul\":9539:9545   */\n      dup3\n        /* \"#utility.yul\":9526:9546   */\n      calldataload\n        /* \"#utility.yul\":9516:9546   */\n      swap1\n      pop\n        /* \"#utility.yul\":9569:9587   */\n      0xffffffffffffffff\n        /* \"#utility.yul\":9561:9567   */\n      dup2\n        /* \"#utility.yul\":9558:9588   */\n      gt\n        /* \"#utility.yul\":9555:9672   */\n      iszero\n      tag_380\n      jumpi\n        /* \"#utility.yul\":9591:9670   */\n      tag_381\n      tag_238\n      jump\t// in\n    tag_381:\n        /* \"#utility.yul\":9555:9672   */\n    tag_380:\n        /* \"#utility.yul\":9705:9709   */\n      0x20\n        /* \"#utility.yul\":9697:9703   */\n      dup4\n        /* \"#utility.yul\":9693:9710   */\n      add\n        /* \"#utility.yul\":9681:9710   */\n      swap2\n      pop\n        /* \"#utility.yul\":9759:9762   */\n      dup4\n        /* \"#utility.yul\":9751:9755   */\n      0x01\n        /* \"#utility.yul\":9743:9749   */\n      dup3\n        /* \"#utility.yul\":9739:9756   */\n      mul\n        /* \"#utility.yul\":9729:9737   */\n      dup4\n        /* \"#utility.yul\":9725:9757   */\n      add\n        /* \"#utility.yul\":9722:9763   */\n      gt\n        /* \"#utility.yul\":9719:9847   */\n      iszero\n      tag_382\n      jumpi\n        /* \"#utility.yul\":9766:9845   */\n      tag_383\n      tag_239\n      jump\t// in\n    tag_383:\n        /* \"#utility.yul\":9719:9847   */\n    tag_382:\n        /* \"#utility.yul\":9300:9853   */\n      swap3\n      pop\n      swap3\n      swap1\n      pop\n      jump\t// out\n        /* \"#utility.yul\":9859:10388   */\n    tag_44:\n        /* \"#utility.yul\":9930:9936   */\n      0x00\n        /* \"#utility.yul\":9938:9944   */\n      dup1\n        /* \"#utility.yul\":9987:9989   */\n      0x20\n        /* \"#utility.yul\":9975:9984   */\n      dup4\n        /* \"#utility.yul\":9966:9973   */\n      dup6\n        /* \"#utility.yul\":9962:9985   */\n      sub\n        /* \"#utility.yul\":9958:9990   */\n      slt\n        /* \"#utility.yul\":9955:10074   */\n      iszero\n      tag_385\n      jumpi\n        /* \"#utility.yul\":9993:10072   */\n      tag_386\n      tag_205\n      jump\t// in\n    tag_386:\n        /* \"#utility.yul\":9955:10074   */\n    tag_385:\n        /* \"#utility.yul\":10141:10142   */\n      0x00\n        /* \"#utility.yul\":10130:10139   */\n      dup4\n        /* \"#utility.yul\":10126:10143   */\n      add\n        /* \"#utility.yul\":10113:10144   */\n      calldataload\n        /* \"#utility.yul\":10171:10189   */\n      0xffffffffffffffff\n        /* \"#utility.yul\":10163:10169   */\n      dup2\n        /* \"#utility.yul\":10160:10190   */\n      gt\n        /* \"#utility.yul\":10157:10274   */\n      iszero\n      tag_387\n      jumpi\n        /* \"#utility.yul\":10193:10272   */\n      tag_388\n      tag_206\n      jump\t// in\n    tag_388:\n        /* \"#utility.yul\":10157:10274   */\n    tag_387:\n        /* \"#utility.yul\":10306:10371   */\n      tag_389\n        /* \"#utility.yul\":10363:10370   */\n      dup6\n        /* \"#utility.yul\":10354:10360   */\n      dup3\n        /* \"#utility.yul\":10343:10352   */\n      dup7\n        /* \"#utility.yul\":10339:10361   */\n      add\n        /* \"#utility.yul\":10306:10371   */\n      tag_240\n      jump\t// in\n    tag_389:\n        /* \"#utility.yul\":10288:10371   */\n      swap3\n      pop\n      swap3\n      pop\n        /* \"#utility.yul\":10084:10381   */\n      pop\n        /* \"#utility.yul\":9859:10388   */\n      swap3\n      pop\n      swap3\n      swap1\n      pop\n      jump\t// out\n        /* \"#utility.yul\":10394:10512   */\n    tag_241:\n        /* \"#utility.yul\":10481:10505   */\n      tag_391\n        /* \"#utility.yul\":10499:10504   */\n      dup2\n        /* \"#utility.yul\":10481:10505   */\n      tag_211\n      jump\t// in\n    tag_391:\n        /* \"#utility.yul\":10476:10479   */\n      dup3\n        /* \"#utility.yul\":10469:10506   */\n      mstore\n        /* \"#utility.yul\":10394:10512   */\n      pop\n      pop\n      jump\t// out\n        /* \"#utility.yul\":10518:10740   */\n    tag_56:\n        /* \"#utility.yul\":10611:10615   */\n      0x00\n        /* \"#utility.yul\":10649:10651   */\n      0x20\n        /* \"#utility.yul\":10638:10647   */\n      dup3\n        /* \"#utility.yul\":10634:10652   */\n      add\n        /* \"#utility.yul\":10626:10652   */\n      swap1\n      pop\n        /* \"#utility.yul\":10662:10733   */\n      tag_393\n        /* \"#utility.yul\":10730:10731   */\n      0x00\n        /* \"#utility.yul\":10719:10728   */\n      dup4\n        /* \"#utility.yul\":10715:10732   */\n      add\n        /* \"#utility.yul\":10706:10712   */\n      dup5\n        /* \"#utility.yul\":10662:10733   */\n      tag_241\n      jump\t// in\n    tag_393:\n        /* \"#utility.yul\":10518:10740   */\n      swap3\n      swap2\n      pop\n      pop\n      jump\t// out\n        /* \"#utility.yul\":10746:10968   */\n    tag_60:\n        /* \"#utility.yul\":10839:10843   */\n      0x00\n        /* \"#utility.yul\":10877:10879   */\n      0x20\n        /* \"#utility.yul\":10866:10875   */\n      dup3\n        /* \"#utility.yul\":10862:10880   */\n      add\n        /* \"#utility.yul\":10854:10880   */\n      swap1\n      pop\n        /* \"#utility.yul\":10890:10961   */\n      tag_395\n        /* \"#utility.yul\":10958:10959   */\n      0x00\n        /* \"#utility.yul\":10947:10956   */\n      dup4\n        /* \"#utility.yul\":10943:10960   */\n      add\n        /* \"#utility.yul\":10934:10940   */\n      dup5\n        /* \"#utility.yul\":10890:10961   */\n      tag_234\n      jump\t// in\n    tag_395:\n        /* \"#utility.yul\":10746:10968   */\n      swap3\n      swap2\n      pop\n      pop\n      jump\t// out\n        /* \"#utility.yul\":10974:11199   */\n    tag_242:\n        /* \"#utility.yul\":11114:11148   */\n      0x566f74696e673a20656c656374696f6e206973206e6f742063757272656e746c\n        /* \"#utility.yul\":11110:11111   */\n      0x00\n        /* \"#utility.yul\":11102:11108   */\n      dup3\n        /* \"#utility.yul\":11098:11112   */\n      add\n        /* \"#utility.yul\":11091:11149   */\n      mstore\n        /* \"#utility.yul\":11183:11191   */\n      0x79206f70656e0000000000000000000000000000000000000000000000000000\n        /* \"#utility.yul\":11178:11180   */\n      0x20\n        /* \"#utility.yul\":11170:11176   */\n      dup3\n        /* \"#utility.yul\":11166:11181   */\n      add\n        /* \"#utility.yul\":11159:11192   */\n      mstore\n        /* \"#utility.yul\":10974:11199   */\n      pop\n      jump\t// out\n        /* \"#utility.yul\":11205:11571   */\n    tag_243:\n        /* \"#utility.yul\":11347:11350   */\n      0x00\n        /* \"#utility.yul\":11368:11435   */\n      tag_398\n        /* \"#utility.yul\":11432:11434   */\n      0x26\n        /* \"#utility.yul\":11427:11430   */\n      dup4\n        /* \"#utility.yul\":11368:11435   */\n      tag_235\n      jump\t// in\n    tag_398:\n        /* \"#utility.yul\":11361:11435   */\n      swap2\n      pop\n        /* \"#utility.yul\":11444:11537   */\n      tag_399\n        /* \"#utility.yul\":11533:11536   */\n      dup3\n        /* \"#utility.yul\":11444:11537   */\n      tag_242\n      jump\t// in\n    tag_399:\n        /* \"#utility.yul\":11562:11564   */\n      0x40\n        /* \"#utility.yul\":11557:11560   */\n      dup3\n        /* \"#utility.yul\":11553:11565   */\n      add\n        /* \"#utility.yul\":11546:11565   */\n      swap1\n      pop\n        /* \"#utility.yul\":11205:11571   */\n      swap2\n      swap1\n      pop\n      jump\t// out\n        /* \"#utility.yul\":11577:11996   */\n    tag_72:\n        /* \"#utility.yul\":11743:11747   */\n      0x00\n        /* \"#utility.yul\":11781:11783   */\n      0x20\n        /* \"#utility.yul\":11770:11779   */\n      dup3\n        /* \"#utility.yul\":11766:11784   */\n      add\n        /* \"#utility.yul\":11758:11784   */\n      swap1\n      pop\n        /* \"#utility.yul\":11830:11839   */\n      dup2\n        /* \"#utility.yul\":11824:11828   */\n      dup2\n        /* \"#utility.yul\":11820:11840   */\n      sub\n        /* \"#utility.yul\":11816:11817   */\n      0x00\n        /* \"#utility.yul\":11805:11814   */\n      dup4\n        /* \"#utility.yul\":11801:11818   */\n      add\n        /* \"#utility.yul\":11794:11841   */\n      mstore\n        /* \"#utility.yul\":11858:11989   */\n      tag_401\n        /* \"#utility.yul\":11984:11988   */\n      dup2\n        /* \"#utility.yul\":11858:11989   */\n      tag_243\n      jump\t// in\n    tag_401:\n        /* \"#utility.yul\":11850:11989   */\n      swap1\n      pop\n        /* \"#utility.yul\":11577:11996   */\n      swap2\n      swap1\n      pop\n      jump\t// out\n        /* \"#utility.yul\":12002:12180   */\n    tag_244:\n        /* \"#utility.yul\":12142:12172   */\n      0x566f74696e673a20696e76616c69642063616e64696461746520494400000000\n        /* \"#utility.yul\":12138:12139   */\n      0x00\n        /* \"#utility.yul\":12130:12136   */\n      dup3\n        /* \"#utility.yul\":12126:12140   */\n      add\n        /* \"#utility.yul\":12119:12173   */\n      mstore\n        /* \"#utility.yul\":12002:12180   */\n      pop\n      jump\t// out\n        /* \"#utility.yul\":12186:12552   */\n    tag_245:\n        /* \"#utility.yul\":12328:12331   */\n      0x00\n        /* \"#utility.yul\":12349:12416   */\n      tag_404\n        /* \"#utility.yul\":12413:12415   */\n      0x1c\n        /* \"#utility.yul\":12408:12411   */\n      dup4\n        /* \"#utility.yul\":12349:12416   */\n      tag_235\n      jump\t// in\n    tag_404:\n        /* \"#utility.yul\":12342:12416   */\n      swap2\n      pop\n        /* \"#utility.yul\":12425:12518   */\n      tag_405\n        /* \"#utility.yul\":12514:12517   */\n      dup3\n        /* \"#utility.yul\":12425:12518   */\n      tag_244\n      jump\t// in\n    tag_405:\n        /* \"#utility.yul\":12543:12545   */\n      0x20\n        /* \"#utility.yul\":12538:12541   */\n      dup3\n        /* \"#utility.yul\":12534:12546   */\n      add\n        /* \"#utility.yul\":12527:12546   */\n      swap1\n      pop\n        /* \"#utility.yul\":12186:12552   */\n      swap2\n      swap1\n      pop\n      jump\t// out\n        /* \"#utility.yul\":12558:12977   */\n    tag_76:\n        /* \"#utility.yul\":12724:12728   */\n      0x00\n        /* \"#utility.yul\":12762:12764   */\n      0x20\n        /* \"#utility.yul\":12751:12760   */\n      dup3\n        /* \"#utility.yul\":12747:12765   */\n      add\n        /* \"#utility.yul\":12739:12765   */\n      swap1\n      pop\n        /* \"#utility.yul\":12811:12820   */\n      dup2\n        /* \"#utility.yul\":12805:12809   */\n      dup2\n        /* \"#utility.yul\":12801:12821   */\n      sub\n        /* \"#utility.yul\":12797:12798   */\n      0x00\n        /* \"#utility.yul\":12786:12795   */\n      dup4\n        /* \"#utility.yul\":12782:12799   */\n      add\n        /* \"#utility.yul\":12775:12822   */\n      mstore\n        /* \"#utility.yul\":12839:12970   */\n      tag_407\n        /* \"#utility.yul\":12965:12969   */\n      dup2\n        /* \"#utility.yul\":12839:12970   */\n      tag_245\n      jump\t// in\n    tag_407:\n        /* \"#utility.yul\":12831:12970   */\n      swap1\n      pop\n        /* \"#utility.yul\":12558:12977   */\n      swap2\n      swap1\n      pop\n      jump\t// out\n        /* \"#utility.yul\":12983:13209   */\n    tag_246:\n        /* \"#utility.yul\":13123:13157   */\n      0x566f74696e673a20796f75206861766520616c7265616479206361737420796f\n        /* \"#utility.yul\":13119:13120   */\n      0x00\n        /* \"#utility.yul\":13111:13117   */\n      dup3\n        /* \"#utility.yul\":13107:13121   */\n      add\n        /* \"#utility.yul\":13100:13158   */\n      mstore\n        /* \"#utility.yul\":13192:13201   */\n      0x757220766f746500000000000000000000000000000000000000000000000000\n        /* \"#utility.yul\":13187:13189   */\n      0x20\n        /* \"#utility.yul\":13179:13185   */\n      dup3\n        /* \"#utility.yul\":13175:13190   */\n      add\n        /* \"#utility.yul\":13168:13202   */\n      mstore\n        /* \"#utility.yul\":12983:13209   */\n      pop\n      jump\t// out\n        /* \"#utility.yul\":13215:13581   */\n    tag_247:\n        /* \"#utility.yul\":13357:13360   */\n      0x00\n        /* \"#utility.yul\":13378:13445   */\n      tag_410\n        /* \"#utility.yul\":13442:13444   */\n      0x27\n        /* \"#utility.yul\":13437:13440   */\n      dup4\n        /* \"#utility.yul\":13378:13445   */\n      tag_235\n      jump\t// in\n    tag_410:\n        /* \"#utility.yul\":13371:13445   */\n      swap2\n      pop\n        /* \"#utility.yul\":13454:13547   */\n      tag_411\n        /* \"#utility.yul\":13543:13546   */\n      dup3\n        /* \"#utility.yul\":13454:13547   */\n      tag_246\n      jump\t// in\n    tag_411:\n        /* \"#utility.yul\":13572:13574   */\n      0x40\n        /* \"#utility.yul\":13567:13570   */\n      dup3\n        /* \"#utility.yul\":13563:13575   */\n      add\n        /* \"#utility.yul\":13556:13575   */\n      swap1\n      pop\n        /* \"#utility.yul\":13215:13581   */\n      swap2\n      swap1\n      pop\n      jump\t// out\n        /* \"#utility.yul\":13587:14006   */\n    tag_79:\n        /* \"#utility.yul\":13753:13757   */\n      0x00\n        /* \"#utility.yul\":13791:13793   */\n      0x20\n        /* \"#utility.yul\":13780:13789   */\n      dup3\n        /* \"#utility.yul\":13776:13794   */\n      add\n        /* \"#utility.yul\":13768:13794   */\n      swap1\n      pop\n        /* \"#utility.yul\":13840:13849   */\n      dup2\n        /* \"#utility.yul\":13834:13838   */\n      dup2\n        /* \"#utility.yul\":13830:13850   */\n      sub\n        /* \"#utility.yul\":13826:13827   */\n      0x00\n        /* \"#utility.yul\":13815:13824   */\n      dup4\n        /* \"#utility.yul\":13811:13828   */\n      add\n        /* \"#utility.yul\":13804:13851   */\n      mstore\n        /* \"#utility.yul\":13868:13999   */\n      tag_413\n        /* \"#utility.yul\":13994:13998   */\n      dup2\n        /* \"#utility.yul\":13868:13999   */\n      tag_247\n      jump\t// in\n    tag_413:\n        /* \"#utility.yul\":13860:13999   */\n      swap1\n      pop\n        /* \"#utility.yul\":13587:14006   */\n      swap2\n      swap1\n      pop\n      jump\t// out\n        /* \"#utility.yul\":14012:14192   */\n    tag_248:\n        /* \"#utility.yul\":14060:14137   */\n      0x4e487b7100000000000000000000000000000000000000000000000000000000\n        /* \"#utility.yul\":14057:14058   */\n      0x00\n        /* \"#utility.yul\":14050:14138   */\n      mstore\n        /* \"#utility.yul\":14157:14161   */\n      0x11\n        /* \"#utility.yul\":14154:14155   */\n      0x04\n        /* \"#utility.yul\":14147:14162   */\n      mstore\n        /* \"#utility.yul\":14181:14185   */\n      0x24\n        /* \"#utility.yul\":14178:14179   */\n      0x00\n        /* \"#utility.yul\":14171:14186   */\n      revert\n        /* \"#utility.yul\":14198:14431   */\n    tag_81:\n        /* \"#utility.yul\":14237:14240   */\n      0x00\n        /* \"#utility.yul\":14260:14284   */\n      tag_416\n        /* \"#utility.yul\":14278:14283   */\n      dup3\n        /* \"#utility.yul\":14260:14284   */\n      tag_207\n      jump\t// in\n    tag_416:\n        /* \"#utility.yul\":14251:14284   */\n      swap2\n      pop\n        /* \"#utility.yul\":14306:14372   */\n      0xffffffffffffffffffffffffffffffffffffffffffffffffffffffffffffffff\n        /* \"#utility.yul\":14299:14304   */\n      dup3\n        /* \"#utility.yul\":14296:14373   */\n      sub\n        /* \"#utility.yul\":14293:14396   */\n      tag_417\n      jumpi\n        /* \"#utility.yul\":14376:14394   */\n      tag_418\n      tag_248\n      jump\t// in\n    tag_418:\n        /* \"#utility.yul\":14293:14396   */\n    tag_417:\n        /* \"#utility.yul\":14423:14424   */\n      0x01\n        /* \"#utility.yul\":14416:14421   */\n      dup3\n        /* \"#utility.yul\":14412:14425   */\n      add\n        /* \"#utility.yul\":14405:14425   */\n      swap1\n      pop\n        /* \"#utility.yul\":14198:14431   */\n      swap2\n      swap1\n      pop\n      jump\t// out\n        /* \"#utility.yul\":14437:14668   */\n    tag_249:\n        /* \"#utility.yul\":14577:14611   */\n      0x566f74696e673a2063616e6e6f742072656d6f7665207768696c6520656c6563\n        /* \"#utility.yul\":14573:14574   */\n      0x00\n        /* \"#utility.yul\":14565:14571   */\n      dup3\n        /* \"#utility.yul\":14561:14575   */\n      add\n        /* \"#utility.yul\":14554:14612   */\n      mstore\n        /* \"#utility.yul\":14646:14660   */\n      0x74696f6e206973206f70656e0000000000000000000000000000000000000000\n        /* \"#utility.yul\":14641:14643   */\n      0x20\n        /* \"#utility.yul\":14633:14639   */\n      dup3\n        /* \"#utility.yul\":14629:14644   */\n      add\n        /* \"#utility.yul\":14622:14661   */\n      mstore\n        /* \"#utility.yul\":14437:14668   */\n      pop\n      jump\t// out\n        /* \"#utility.yul\":14674:15040   */\n    tag_250:\n        /* \"#utility.yul\":14816:14819   */\n      0x00\n        /* \"#utility.yul\":14837:14904   */\n      tag_421\n        /* \"#utility.yul\":14901:14903   */\n      0x2c\n        /* \"#utility.yul\":14896:14899   */\n      dup4\n        /* \"#utility.yul\":14837:14904   */\n      tag_235\n      jump\t// in\n    tag_421:\n        /* \"#utility.yul\":14830:14904   */\n      swap2\n      pop\n        /* \"#utility.yul\":14913:15006   */\n      tag_422\n        /* \"#utility.yul\":15002:15005   */\n      dup3\n        /* \"#utility.yul\":14913:15006   */\n      tag_249\n      jump\t// in\n    tag_422:\n        /* \"#utility.yul\":15031:15033   */\n      0x40\n        /* \"#utility.yul\":15026:15029   */\n      dup3\n        /* \"#utility.yul\":15022:15034   */\n      add\n        /* \"#utility.yul\":15015:15034   */\n      swap1\n      pop\n        /* \"#utility.yul\":14674:15040   */\n      swap2\n      swap1\n      pop\n      jump\t// out\n        /* \"#utility.yul\":15046:15465   */\n    tag_88:\n        /* \"#utility.yul\":15212:15216   */\n      0x00\n        /* \"#utility.yul\":15250:15252   */\n      0x20\n        /* \"#utility.yul\":15239:15248   */\n      dup3\n        /* \"#utility.yul\":15235:15253   */\n      add\n        /* \"#utility.yul\":15227:15253   */\n      swap1\n      pop\n        /* \"#utility.yul\":15299:15308   */\n      dup2\n        /* \"#utility.yul\":15293:15297   */\n      dup2\n        /* \"#utility.yul\":15289:15309   */\n      sub\n        /* \"#utility.yul\":15285:15286   */\n      0x00\n        /* \"#utility.yul\":15274:15283   */\n      dup4\n        /* \"#utility.yul\":15270:15287   */\n      add\n        /* \"#utility.yul\":15263:15310   */\n      mstore\n        /* \"#utility.yul\":15327:15458   */\n      tag_424\n        /* \"#utility.yul\":15453:15457   */\n      dup2\n        /* \"#utility.yul\":15327:15458   */\n      tag_250\n      jump\t// in\n    tag_424:\n        /* \"#utility.yul\":15319:15458   */\n      swap1\n      pop\n        /* \"#utility.yul\":15046:15465   */\n      swap2\n      swap1\n      pop\n      jump\t// out\n        /* \"#utility.yul\":15471:15651   */\n    tag_251:\n        /* \"#utility.yul\":15519:15596   */\n      0x4e487b7100000000000000000000000000000000000000000000000000000000\n        /* \"#utility.yul\":15516:15517   */\n      0x00\n        /* \"#utility.yul\":15509:15597   */\n      mstore\n        /* \"#utility.yul\":15616:15620   */\n      0x22\n        /* \"#utility.yul\":15613:15614   */\n      0x04\n        /* \"#utility.yul\":15606:15621   */\n      mstore\n        /* \"#utility.yul\":15640:15644   */\n      0x24\n        /* \"#utility.yul\":15637:15638   */\n      0x00\n        /* \"#utility.yul\":15630:15645   */\n      revert\n        /* \"#utility.yul\":15657:15977   */\n    tag_93:\n        /* \"#utility.yul\":15701:15707   */\n      0x00\n        /* \"#utility.yul\":15738:15739   */\n      0x02\n        /* \"#utility.yul\":15732:15736   */\n      dup3\n        /* \"#utility.yul\":15728:15740   */\n      div\n        /* \"#utility.yul\":15718:15740   */\n      swap1\n      pop\n        /* \"#utility.yul\":15785:15786   */\n      0x01\n        /* \"#utility.yul\":15779:15783   */\n      dup3\n        /* \"#utility.yul\":15775:15787   */\n      and\n        /* \"#utility.yul\":15806:15824   */\n      dup1\n        /* \"#utility.yul\":15796:15877   */\n      tag_427\n      jumpi\n        /* \"#utility.yul\":15862:15866   */\n      0x7f\n        /* \"#utility.yul\":15854:15860   */\n      dup3\n        /* \"#utility.yul\":15850:15867   */\n      and\n        /* \"#utility.yul\":15840:15867   */\n      swap2\n      pop\n        /* \"#utility.yul\":15796:15877   */\n    tag_427:\n        /* \"#utility.yul\":15924:15926   */\n      0x20\n        /* \"#utility.yul\":15916:15922   */\n      dup3\n        /* \"#utility.yul\":15913:15927   */\n      lt\n        /* \"#utility.yul\":15893:15911   */\n      dup2\n        /* \"#utility.yul\":15890:15928   */\n      sub\n        /* \"#utility.yul\":15887:15971   */\n      tag_428\n      jumpi\n        /* \"#utility.yul\":15943:15961   */\n      tag_429\n      tag_251\n      jump\t// in\n    tag_429:\n        /* \"#utility.yul\":15887:15971   */\n    tag_428:\n        /* \"#utility.yul\":15708:15977   */\n      pop\n        /* \"#utility.yul\":15657:15977   */\n      swap2\n      swap1\n      pop\n      jump\t// out\n        /* \"#utility.yul\":15983:16203   */\n    tag_252:\n        /* \"#utility.yul\":16123:16157   */\n      0x566f74696e673a2063616e64696461746520616c72656164792072656d6f7665\n        /* \"#utility.yul\":16119:16120   */\n      0x00\n        /* \"#utility.yul\":16111:16117   */\n      dup3\n        /* \"#utility.yul\":16107:16121   */\n      add\n        /* \"#utility.yul\":16100:16158   */\n      mstore\n        /* \"#utility.yul\":16192:16195   */\n      0x6400000000000000000000000000000000000000000000000000000000000000\n        /* \"#utility.yul\":16187:16189   */\n      0x20\n        /* \"#utility.yul\":16179:16185   */\n      dup3\n        /* \"#utility.yul\":16175:16190   */\n      add\n        /* \"#utility.yul\":16168:16196   */\n      mstore\n        /* \"#utility.yul\":15983:16203   */\n      pop\n      jump\t// out\n        /* \"#utility.yul\":16209:16575   */\n    tag_253:\n        /* \"#utility.yul\":16351:16354   */\n      0x00\n        /* \"#utility.yul\":16372:16439   */\n      tag_432\n        /* \"#utility.yul\":16436:16438   */\n      0x21\n        /* \"#utility.yul\":16431:16434   */\n      dup4\n        /* \"#utility.yul\":16372:16439   */\n      tag_235\n      jump\t// in\n    tag_432:\n        /* \"#utility.yul\":16365:16439   */\n      swap2\n      pop\n        /* \"#utility.yul\":16448:16541   */\n      tag_433\n        /* \"#utility.yul\":16537:16540   */\n      dup3\n        /* \"#utility.yul\":16448:16541   */\n      tag_252\n      jump\t// in\n    tag_433:\n        /* \"#utility.yul\":16566:16568   */\n      0x40\n        /* \"#utility.yul\":16561:16564   */\n      dup3\n        /* \"#utility.yul\":16557:16569   */\n      add\n        /* \"#utility.yul\":16550:16569   */\n      swap1\n      pop\n        /* \"#utility.yul\":16209:16575   */\n      swap2\n      swap1\n      pop\n      jump\t// out\n        /* \"#utility.yul\":16581:17000   */\n    tag_96:\n        /* \"#utility.yul\":16747:16751   */\n      0x00\n        /* \"#utility.yul\":16785:16787   */\n      0x20\n        /* \"#utility.yul\":16774:16783   */\n      dup3\n        /* \"#utility.yul\":16770:16788   */\n      add\n        /* \"#utility.yul\":16762:16788   */\n      swap1\n      pop\n        /* \"#utility.yul\":16834:16843   */\n      dup2\n        /* \"#utility.yul\":16828:16832   */\n      dup2\n        /* \"#utility.yul\":16824:16844   */\n      sub\n        /* \"#utility.yul\":16820:16821   */\n      0x00\n        /* \"#utility.yul\":16809:16818   */\n      dup4\n        /* \"#utility.yul\":16805:16822   */\n      add\n        /* \"#utility.yul\":16798:16845   */\n      mstore\n        /* \"#utility.yul\":16862:16993   */\n      tag_435\n        /* \"#utility.yul\":16988:16992   */\n      dup2\n        /* \"#utility.yul\":16862:16993   */\n      tag_253\n      jump\t// in\n    tag_435:\n        /* \"#utility.yul\":16854:16993   */\n      swap1\n      pop\n        /* \"#utility.yul\":16581:17000   */\n      swap2\n      swap1\n      pop\n      jump\t// out\n        /* \"#utility.yul\":17006:17120   */\n    tag_254:\n      pop\n      jump\t// out\n        /* \"#utility.yul\":17126:17490   */\n    tag_255:\n        /* \"#utility.yul\":17268:17271   */\n      0x00\n        /* \"#utility.yul\":17289:17355   */\n      tag_438\n        /* \"#utility.yul\":17353:17354   */\n      0x00\n        /* \"#utility.yul\":17348:17351   */\n      dup4\n        /* \"#utility.yul\":17289:17355   */\n      tag_235\n      jump\t// in\n    tag_438:\n        /* \"#utility.yul\":17282:17355   */\n      swap2\n      pop\n        /* \"#utility.yul\":17364:17457   */\n      tag_439\n        /* \"#utility.yul\":17453:17456   */\n      dup3\n        /* \"#utility.yul\":17364:17457   */\n      tag_254\n      jump\t// in\n    tag_439:\n        /* \"#utility.yul\":17482:17483   */\n      0x00\n        /* \"#utility.yul\":17477:17480   */\n      dup3\n        /* \"#utility.yul\":17473:17484   */\n      add\n        /* \"#utility.yul\":17466:17484   */\n      swap1\n      pop\n        /* \"#utility.yul\":17126:17490   */\n      swap2\n      swap1\n      pop\n      jump\t// out\n        /* \"#utility.yul\":17496:17915   */\n    tag_100:\n        /* \"#utility.yul\":17662:17666   */\n      0x00\n        /* \"#utility.yul\":17700:17702   */\n      0x20\n        /* \"#utility.yul\":17689:17698   */\n      dup3\n        /* \"#utility.yul\":17685:17703   */\n      add\n        /* \"#utility.yul\":17677:17703   */\n      swap1\n      pop\n        /* \"#utility.yul\":17749:17758   */\n      dup2\n        /* \"#utility.yul\":17743:17747   */\n      dup2\n        /* \"#utility.yul\":17739:17759   */\n      sub\n        /* \"#utility.yul\":17735:17736   */\n      0x00\n        /* \"#utility.yul\":17724:17733   */\n      dup4\n        /* \"#utility.yul\":17720:17737   */\n      add\n        /* \"#utility.yul\":17713:17760   */\n      mstore\n        /* \"#utility.yul\":17777:17908   */\n      tag_441\n        /* \"#utility.yul\":17903:17907   */\n      dup2\n        /* \"#utility.yul\":17777:17908   */\n      tag_255\n      jump\t// in\n    tag_441:\n        /* \"#utility.yul\":17769:17908   */\n      swap1\n      pop\n        /* \"#utility.yul\":17496:17915   */\n      swap2\n      swap1\n      pop\n      jump\t// out\n        /* \"#utility.yul\":17921:18101   */\n    tag_104:\n        /* \"#utility.yul\":17969:18046   */\n      0x4e487b7100000000000000000000000000000000000000000000000000000000\n        /* \"#utility.yul\":17966:17967   */\n      0x00\n        /* \"#utility.yul\":17959:18047   */\n      mstore\n        /* \"#utility.yul\":18066:18070   */\n      0x41\n        /* \"#utility.yul\":18063:18064   */\n      0x04\n        /* \"#utility.yul\":18056:18071   */\n      mstore\n        /* \"#utility.yul\":18090:18094   */\n      0x24\n        /* \"#utility.yul\":18087:18088   */\n      0x00\n        /* \"#utility.yul\":18080:18095   */\n      revert\n        /* \"#utility.yul\":18107:18301   */\n    tag_117:\n        /* \"#utility.yul\":18147:18151   */\n      0x00\n        /* \"#utility.yul\":18167:18187   */\n      tag_444\n        /* \"#utility.yul\":18185:18186   */\n      dup3\n        /* \"#utility.yul\":18167:18187   */\n      tag_207\n      jump\t// in\n    tag_444:\n        /* \"#utility.yul\":18162:18187   */\n      swap2\n      pop\n        /* \"#utility.yul\":18201:18221   */\n      tag_445\n        /* \"#utility.yul\":18219:18220   */\n      dup4\n        /* \"#utility.yul\":18201:18221   */\n      tag_207\n      jump\t// in\n    tag_445:\n        /* \"#utility.yul\":18196:18221   */\n      swap3\n      pop\n        /* \"#utility.yul\":18245:18246   */\n      dup3\n        /* \"#utility.yul\":18242:18243   */\n      dup3\n        /* \"#utility.yul\":18238:18247   */\n      sub\n        /* \"#utility.yul\":18230:18247   */\n      swap1\n      pop\n        /* \"#utility.yul\":18269:18270   */\n      dup2\n        /* \"#utility.yul\":18263:18267   */\n      dup2\n        /* \"#utility.yul\":18260:18271   */\n      gt\n        /* \"#utility.yul\":18257:18294   */\n      iszero\n      tag_446\n      jumpi\n        /* \"#utility.yul\":18274:18292   */\n      tag_447\n      tag_248\n      jump\t// in\n    tag_447:\n        /* \"#utility.yul\":18257:18294   */\n    tag_446:\n        /* \"#utility.yul\":18107:18301   */\n      swap3\n      swap2\n      pop\n      pop\n      jump\t// out\n        /* \"#utility.yul\":18307:18487   */\n    tag_120:\n        /* \"#utility.yul\":18355:18432   */\n      0x4e487b7100000000000000000000000000000000000000000000000000000000\n        /* \"#utility.yul\":18352:18353   */\n      0x00\n        /* \"#utility.yul\":18345:18433   */\n      mstore\n        /* \"#utility.yul\":18452:18456   */\n      0x32\n        /* \"#utility.yul\":18449:18450   */\n      0x04\n        /* \"#utility.yul\":18442:18457   */\n      mstore\n        /* \"#utility.yul\":18476:18480   */\n      0x24\n        /* \"#utility.yul\":18473:18474   */\n      0x00\n        /* \"#utility.yul\":18466:18481   */\n      revert\n        /* \"#utility.yul\":18493:18732   */\n    tag_256:\n        /* \"#utility.yul\":18633:18667   */\n      0x566f74696e673a2063616e6e6f74206164642063616e64696461746573207768\n        /* \"#utility.yul\":18629:18630   */\n      0x00\n        /* \"#utility.yul\":18621:18627   */\n      dup3\n        /* \"#utility.yul\":18617:18631   */\n      add\n        /* \"#utility.yul\":18610:18668   */\n      mstore\n        /* \"#utility.yul\":18702:18724   */\n      0x696c6520656c656374696f6e206973206f70656e000000000000000000000000\n        /* \"#utility.yul\":18697:18699   */\n      0x20\n        /* \"#utility.yul\":18689:18695   */\n      dup3\n        /* \"#utility.yul\":18685:18700   */\n      add\n        /* \"#utility.yul\":18678:18725   */\n      mstore\n        /* \"#utility.yul\":18493:18732   */\n      pop\n      jump\t// out\n        /* \"#utility.yul\":18738:19104   */\n    tag_257:\n        /* \"#utility.yul\":18880:18883   */\n      0x00\n        /* \"#utility.yul\":18901:18968   */\n      tag_451\n        /* \"#utility.yul\":18965:18967   */\n      0x34\n        /* \"#utility.yul\":18960:18963   */\n      dup4\n        /* \"#utility.yul\":18901:18968   */\n      tag_235\n      jump\t// in\n    tag_451:\n        /* \"#utility.yul\":18894:18968   */\n      swap2\n      pop\n        /* \"#utility.yul\":18977:19070   */\n      tag_452\n        /* \"#utility.yul\":19066:19069   */\n      dup3\n        /* \"#utility.yul\":18977:19070   */\n      tag_256\n      jump\t// in\n    tag_452:\n        /* \"#utility.yul\":19095:19097   */\n      0x40\n        /* \"#utility.yul\":19090:19093   */\n      dup3\n        /* \"#utility.yul\":19086:19098   */\n      add\n        /* \"#utility.yul\":19079:19098   */\n      swap1\n      pop\n        /* \"#utility.yul\":18738:19104   */\n      swap2\n      swap1\n      pop\n      jump\t// out\n        /* \"#utility.yul\":19110:19529   */\n    tag_143:\n        /* \"#utility.yul\":19276:19280   */\n      0x00\n        /* \"#utility.yul\":19314:19316   */\n      0x20\n        /* \"#utility.yul\":19303:19312   */\n      dup3\n        /* \"#utility.yul\":19299:19317   */\n      add\n        /* \"#utility.yul\":19291:19317   */\n      swap1\n      pop\n        /* \"#utility.yul\":19363:19372   */\n      dup2\n        /* \"#utility.yul\":19357:19361   */\n      dup2\n        /* \"#utility.yul\":19353:19373   */\n      sub\n        /* \"#utility.yul\":19349:19350   */\n      0x00\n        /* \"#utility.yul\":19338:19347   */\n      dup4\n        /* \"#utility.yul\":19334:19351   */\n      add\n        /* \"#utility.yul\":19327:19374   */\n      mstore\n        /* \"#utility.yul\":19391:19522   */\n      tag_454\n        /* \"#utility.yul\":19517:19521   */\n      dup2\n        /* \"#utility.yul\":19391:19522   */\n      tag_257\n      jump\t// in\n    tag_454:\n        /* \"#utility.yul\":19383:19522   */\n      swap1\n      pop\n        /* \"#utility.yul\":19110:19529   */\n      swap2\n      swap1\n      pop\n      jump\t// out\n        /* \"#utility.yul\":19535:19760   */\n    tag_258:\n        /* \"#utility.yul\":19675:19709   */\n      0x566f74696e673a2063616e646964617465206e616d652063616e6e6f74206265\n        /* \"#utility.yul\":19671:19672   */\n      0x00\n        /* \"#utility.yul\":19663:19669   */\n      dup3\n        /* \"#utility.yul\":19659:19673   */\n      add\n        /* \"#utility.yul\":19652:19710   */\n      mstore\n        /* \"#utility.yul\":19744:19752   */\n      0x20656d7074790000000000000000000000000000000000000000000000000000\n        /* \"#utility.yul\":19739:19741   */\n      0x20\n        /* \"#utility.yul\":19731:19737   */\n      dup3\n        /* \"#utility.yul\":19727:19742   */\n      add\n        /* \"#utility.yul\":19720:19753   */\n      mstore\n        /* \"#utility.yul\":19535:19760   */\n      pop\n      jump\t// out\n        /* \"#utility.yul\":19766:20132   */\n    tag_259:\n        /* \"#utility.yul\":19908:19911   */\n      0x00\n        /* \"#utility.yul\":19929:19996   */\n      tag_457\n        /* \"#utility.yul\":19993:19995   */\n      0x26\n        /* \"#utility.yul\":19988:19991   */\n      dup4\n        /* \"#utility.yul\":19929:19996   */\n      tag_235\n      jump\t// in\n    tag_457:\n        /* \"#utility.yul\":19922:19996   */\n      swap2\n      pop\n        /* \"#utility.yul\":20005:20098   */\n      tag_458\n        /* \"#utility.yul\":20094:20097   */\n      dup3\n        /* \"#utility.yul\":20005:20098   */\n      tag_258\n      jump\t// in\n    tag_458:\n        /* \"#utility.yul\":20123:20125   */\n      0x40\n        /* \"#utility.yul\":20118:20121   */\n      dup3\n        /* \"#utility.yul\":20114:20126   */\n      add\n        /* \"#utility.yul\":20107:20126   */\n      swap1\n      pop\n        /* \"#utility.yul\":19766:20132   */\n      swap2\n      swap1\n      pop\n      jump\t// out\n        /* \"#utility.yul\":20138:20557   */\n    tag_146:\n        /* \"#utility.yul\":20304:20308   */\n      0x00\n        /* \"#utility.yul\":20342:20344   */\n      0x20\n        /* \"#utility.yul\":20331:20340   */\n      dup3\n        /* \"#utility.yul\":20327:20345   */\n      add\n        /* \"#utility.yul\":20319:20345   */\n      swap1\n      pop\n        /* \"#utility.yul\":20391:20400   */\n      dup2\n        /* \"#utility.yul\":20385:20389   */\n      dup2\n        /* \"#utility.yul\":20381:20401   */\n      sub\n        /* \"#utility.yul\":20377:20378   */\n      0x00\n        /* \"#utility.yul\":20366:20375   */\n      dup4\n        /* \"#utility.yul\":20362:20379   */\n      add\n        /* \"#utility.yul\":20355:20402   */\n      mstore\n        /* \"#utility.yul\":20419:20550   */\n      tag_460\n        /* \"#utility.yul\":20545:20549   */\n      dup2\n        /* \"#utility.yul\":20419:20550   */\n      tag_259\n      jump\t// in\n    tag_460:\n        /* \"#utility.yul\":20411:20550   */\n      swap1\n      pop\n        /* \"#utility.yul\":20138:20557   */\n      swap2\n      swap1\n      pop\n      jump\t// out\n        /* \"#utility.yul\":20563:20704   */\n    tag_260:\n        /* \"#utility.yul\":20612:20616   */\n      0x00\n        /* \"#utility.yul\":20635:20638   */\n      dup2\n        /* \"#utility.yul\":20627:20638   */\n      swap1\n      pop\n        /* \"#utility.yul\":20658:20661   */\n      dup2\n        /* \"#utility.yul\":20655:20656   */\n      0x00\n        /* \"#utility.yul\":20648:20662   */\n      mstore\n        /* \"#utility.yul\":20692:20696   */\n      0x20\n        /* \"#utility.yul\":20689:20690   */\n      0x00\n        /* \"#utility.yul\":20679:20697   */\n      keccak256\n        /* \"#utility.yul\":20671:20697   */\n      swap1\n      pop\n        /* \"#utility.yul\":20563:20704   */\n      swap2\n      swap1\n      pop\n      jump\t// out\n        /* \"#utility.yul\":20710:20803   */\n    tag_261:\n        /* \"#utility.yul\":20747:20753   */\n      0x00\n        /* \"#utility.yul\":20794:20796   */\n      0x20\n        /* \"#utility.yul\":20789:20791   */\n      0x1f\n        /* \"#utility.yul\":20782:20787   */\n      dup4\n        /* \"#utility.yul\":20778:20792   */\n      add\n        /* \"#utility.yul\":20774:20797   */\n      div\n        /* \"#utility.yul\":20764:20797   */\n      swap1\n      pop\n        /* \"#utility.yul\":20710:20803   */\n      swap2\n      swap1\n      pop\n      jump\t// out\n        /* \"#utility.yul\":20809:20916   */\n    tag_262:\n        /* \"#utility.yul\":20853:20861   */\n      0x00\n        /* \"#utility.yul\":20903:20908   */\n      dup3\n        /* \"#utility.yul\":20897:20901   */\n      dup3\n        /* \"#utility.yul\":20893:20909   */\n      shl\n        /* \"#utility.yul\":20872:20909   */\n      swap1\n      pop\n        /* \"#utility.yul\":20809:20916   */\n      swap3\n      swap2\n      pop\n      pop\n      jump\t// out\n        /* \"#utility.yul\":20922:21315   */\n    tag_263:\n        /* \"#utility.yul\":20991:20997   */\n      0x00\n        /* \"#utility.yul\":21041:21042   */\n      0x08\n        /* \"#utility.yul\":21029:21039   */\n      dup4\n        /* \"#utility.yul\":21025:21043   */\n      mul\n        /* \"#utility.yul\":21064:21161   */\n      tag_465\n        /* \"#utility.yul\":21094:21160   */\n      0xffffffffffffffffffffffffffffffffffffffffffffffffffffffffffffffff\n        /* \"#utility.yul\":21083:21092   */\n      dup3\n        /* \"#utility.yul\":21064:21161   */\n      tag_262\n      jump\t// in\n    tag_465:\n        /* \"#utility.yul\":21182:21221   */\n      tag_466\n        /* \"#utility.yul\":21212:21220   */\n      dup7\n        /* \"#utility.yul\":21201:21210   */\n      dup4\n        /* \"#utility.yul\":21182:21221   */\n      tag_262\n      jump\t// in\n    tag_466:\n        /* \"#utility.yul\":21170:21221   */\n      swap6\n      pop\n        /* \"#utility.yul\":21254:21258   */\n      dup1\n        /* \"#utility.yul\":21250:21259   */\n      not\n        /* \"#utility.yul\":21243:21248   */\n      dup5\n        /* \"#utility.yul\":21239:21260   */\n      and\n        /* \"#utility.yul\":21230:21260   */\n      swap4\n      pop\n        /* \"#utility.yul\":21303:21307   */\n      dup1\n        /* \"#utility.yul\":21293:21301   */\n      dup7\n        /* \"#utility.yul\":21289:21308   */\n      and\n        /* \"#utility.yul\":21282:21287   */\n      dup5\n        /* \"#utility.yul\":21279:21309   */\n      or\n        /* \"#utility.yul\":21269:21309   */\n      swap3\n      pop\n        /* \"#utility.yul\":20998:21315   */\n      pop\n      pop\n        /* \"#utility.yul\":20922:21315   */\n      swap4\n      swap3\n      pop\n      pop\n      pop\n      jump\t// out\n        /* \"#utility.yul\":21321:21381   */\n    tag_264:\n        /* \"#utility.yul\":21349:21352   */\n      0x00\n        /* \"#utility.yul\":21370:21375   */\n      dup2\n        /* \"#utility.yul\":21363:21375   */\n      swap1\n      pop\n        /* \"#utility.yul\":21321:21381   */\n      swap2\n      swap1\n      pop\n      jump\t// out\n        /* \"#utility.yul\":21387:21529   */\n    tag_265:\n        /* \"#utility.yul\":21437:21446   */\n      0x00\n        /* \"#utility.yul\":21470:21523   */\n      tag_469\n        /* \"#utility.yul\":21488:21522   */\n      tag_470\n        /* \"#utility.yul\":21497:21521   */\n      tag_471\n        /* \"#utility.yul\":21515:21520   */\n      dup5\n        /* \"#utility.yul\":21497:21521   */\n      tag_207\n      jump\t// in\n    tag_471:\n        /* \"#utility.yul\":21488:21522   */\n      tag_264\n      jump\t// in\n    tag_470:\n        /* \"#utility.yul\":21470:21523   */\n      tag_207\n      jump\t// in\n    tag_469:\n        /* \"#utility.yul\":21457:21523   */\n      swap1\n      pop\n        /* \"#utility.yul\":21387:21529   */\n      swap2\n      swap1\n      pop\n      jump\t// out\n        /* \"#utility.yul\":21535:21610   */\n    tag_266:\n        /* \"#utility.yul\":21578:21581   */\n      0x00\n        /* \"#utility.yul\":21599:21604   */\n      dup2\n        /* \"#utility.yul\":21592:21604   */\n      swap1\n      pop\n        /* \"#utility.yul\":21535:21610   */\n      swap2\n      swap1\n      pop\n      jump\t// out\n        /* \"#utility.yul\":21616:21885   */\n    tag_267:\n        /* \"#utility.yul\":21726:21765   */\n      tag_474\n        /* \"#utility.yul\":21757:21764   */\n      dup4\n        /* \"#utility.yul\":21726:21765   */\n      tag_265\n      jump\t// in\n    tag_474:\n        /* \"#utility.yul\":21787:21878   */\n      tag_475\n        /* \"#utility.yul\":21836:21877   */\n      tag_476\n        /* \"#utility.yul\":21860:21876   */\n      dup3\n        /* \"#utility.yul\":21836:21877   */\n      tag_266\n      jump\t// in\n    tag_476:\n        /* \"#utility.yul\":21828:21834   */\n      dup5\n        /* \"#utility.yul\":21821:21825   */\n      dup5\n        /* \"#utility.yul\":21815:21826   */\n      sload\n        /* \"#utility.yul\":21787:21878   */\n      tag_263\n      jump\t// in\n    tag_475:\n        /* \"#utility.yul\":21781:21785   */\n      dup3\n        /* \"#utility.yul\":21774:21879   */\n      sstore\n        /* \"#utility.yul\":21692:21885   */\n      pop\n        /* \"#utility.yul\":21616:21885   */\n      pop\n      pop\n      pop\n      jump\t// out\n        /* \"#utility.yul\":21891:21964   */\n    tag_268:\n        /* \"#utility.yul\":21936:21939   */\n      0x00\n        /* \"#utility.yul\":21891:21964   */\n      swap1\n      jump\t// out\n        /* \"#utility.yul\":21970:22159   */\n    tag_269:\n        /* \"#utility.yul\":22047:22079   */\n      tag_479\n      tag_268\n      jump\t// in\n    tag_479:\n        /* \"#utility.yul\":22088:22153   */\n      tag_480\n        /* \"#utility.yul\":22146:22152   */\n      dup2\n        /* \"#utility.yul\":22138:22144   */\n      dup5\n        /* \"#utility.yul\":22132:22136   */\n      dup5\n        /* \"#utility.yul\":22088:22153   */\n      tag_267\n      jump\t// in\n    tag_480:\n        /* \"#utility.yul\":22023:22159   */\n      pop\n        /* \"#utility.yul\":21970:22159   */\n      pop\n      pop\n      jump\t// out\n        /* \"#utility.yul\":22165:22351   */\n    tag_270:\n        /* \"#utility.yul\":22225:22345   */\n    tag_482:\n        /* \"#utility.yul\":22242:22245   */\n      dup2\n        /* \"#utility.yul\":22235:22240   */\n      dup2\n        /* \"#utility.yul\":22232:22246   */\n      lt\n        /* \"#utility.yul\":22225:22345   */\n      iszero\n      tag_484\n      jumpi\n        /* \"#utility.yul\":22296:22335   */\n      tag_485\n        /* \"#utility.yul\":22333:22334   */\n      0x00\n        /* \"#utility.yul\":22326:22331   */\n      dup3\n        /* \"#utility.yul\":22296:22335   */\n      tag_269\n      jump\t// in\n    tag_485:\n        /* \"#utility.yul\":22269:22270   */\n      0x01\n        /* \"#utility.yul\":22262:22267   */\n      dup2\n        /* \"#utility.yul\":22258:22271   */\n      add\n        /* \"#utility.yul\":22249:22271   */\n      swap1\n      pop\n        /* \"#utility.yul\":22225:22345   */\n      jump(tag_482)\n    tag_484:\n        /* \"#utility.yul\":22165:22351   */\n      pop\n      pop\n      jump\t// out\n        /* \"#utility.yul\":22357:22900   */\n    tag_271:\n        /* \"#utility.yul\":22458:22460   */\n      0x1f\n        /* \"#utility.yul\":22453:22456   */\n      dup3\n        /* \"#utility.yul\":22450:22461   */\n      gt\n        /* \"#utility.yul\":22447:22893   */\n      iszero\n      tag_487\n      jumpi\n        /* \"#utility.yul\":22492:22530   */\n      tag_488\n        /* \"#utility.yul\":22524:22529   */\n      dup2\n        /* \"#utility.yul\":22492:22530   */\n      tag_260\n      jump\t// in\n    tag_488:\n        /* \"#utility.yul\":22576:22605   */\n      tag_489\n        /* \"#utility.yul\":22594:22604   */\n      dup5\n        /* \"#utility.yul\":22576:22605   */\n      tag_261\n      jump\t// in\n    tag_489:\n        /* \"#utility.yul\":22566:22574   */\n      dup2\n        /* \"#utility.yul\":22562:22606   */\n      add\n        /* \"#utility.yul\":22759:22761   */\n      0x20\n        /* \"#utility.yul\":22747:22757   */\n      dup6\n        /* \"#utility.yul\":22744:22762   */\n      lt\n        /* \"#utility.yul\":22741:22790   */\n      iszero\n      tag_490\n      jumpi\n        /* \"#utility.yul\":22780:22788   */\n      dup2\n        /* \"#utility.yul\":22765:22788   */\n      swap1\n      pop\n        /* \"#utility.yul\":22741:22790   */\n    tag_490:\n        /* \"#utility.yul\":22803:22883   */\n      tag_491\n        /* \"#utility.yul\":22859:22881   */\n      tag_492\n        /* \"#utility.yul\":22877:22880   */\n      dup6\n        /* \"#utility.yul\":22859:22881   */\n      tag_261\n      jump\t// in\n    tag_492:\n        /* \"#utility.yul\":22849:22857   */\n      dup4\n        /* \"#utility.yul\":22845:22882   */\n      add\n        /* \"#utility.yul\":22832:22843   */\n      dup3\n        /* \"#utility.yul\":22803:22883   */\n      tag_270\n      jump\t// in\n    tag_491:\n        /* \"#utility.yul\":22462:22893   */\n      pop\n      pop\n        /* \"#utility.yul\":22447:22893   */\n    tag_487:\n        /* \"#utility.yul\":22357:22900   */\n      pop\n      pop\n      pop\n      jump\t// out\n        /* \"#utility.yul\":22906:23023   */\n    tag_272:\n        /* \"#utility.yul\":22960:22968   */\n      0x00\n        /* \"#utility.yul\":23010:23015   */\n      dup3\n        /* \"#utility.yul\":23004:23008   */\n      dup3\n        /* \"#utility.yul\":23000:23016   */\n      shr\n        /* \"#utility.yul\":22979:23016   */\n      swap1\n      pop\n        /* \"#utility.yul\":22906:23023   */\n      swap3\n      swap2\n      pop\n      pop\n      jump\t// out\n        /* \"#utility.yul\":23029:23198   */\n    tag_273:\n        /* \"#utility.yul\":23073:23079   */\n      0x00\n        /* \"#utility.yul\":23106:23157   */\n      tag_495\n        /* \"#utility.yul\":23154:23155   */\n      0x00\n        /* \"#utility.yul\":23150:23156   */\n      not\n        /* \"#utility.yul\":23142:23147   */\n      dup5\n        /* \"#utility.yul\":23139:23140   */\n      0x08\n        /* \"#utility.yul\":23135:23148   */\n      mul\n        /* \"#utility.yul\":23106:23157   */\n      tag_272\n      jump\t// in\n    tag_495:\n        /* \"#utility.yul\":23102:23158   */\n      not\n        /* \"#utility.yul\":23187:23191   */\n      dup1\n        /* \"#utility.yul\":23181:23185   */\n      dup4\n        /* \"#utility.yul\":23177:23192   */\n      and\n        /* \"#utility.yul\":23167:23192   */\n      swap2\n      pop\n        /* \"#utility.yul\":23080:23198   */\n      pop\n        /* \"#utility.yul\":23029:23198   */\n      swap3\n      swap2\n      pop\n      pop\n      jump\t// out\n        /* \"#utility.yul\":23203:23498   */\n    tag_274:\n        /* \"#utility.yul\":23279:23283   */\n      0x00\n        /* \"#utility.yul\":23425:23454   */\n      tag_497\n        /* \"#utility.yul\":23450:23453   */\n      dup4\n        /* \"#utility.yul\":23444:23448   */\n      dup4\n        /* \"#utility.yul\":23425:23454   */\n      tag_273\n      jump\t// in\n    tag_497:\n        /* \"#utility.yul\":23417:23454   */\n      swap2\n      pop\n        /* \"#utility.yul\":23487:23490   */\n      dup3\n        /* \"#utility.yul\":23484:23485   */\n      0x02\n        /* \"#utility.yul\":23480:23491   */\n      mul\n        /* \"#utility.yul\":23474:23478   */\n      dup3\n        /* \"#utility.yul\":23471:23492   */\n      or\n        /* \"#utility.yul\":23463:23492   */\n      swap1\n      pop\n        /* \"#utility.yul\":23203:23498   */\n      swap3\n      swap2\n      pop\n      pop\n      jump\t// out\n        /* \"#utility.yul\":23503:24898   */\n    tag_149:\n        /* \"#utility.yul\":23620:23657   */\n      tag_499\n        /* \"#utility.yul\":23653:23656   */\n      dup3\n        /* \"#utility.yul\":23620:23657   */\n      tag_226\n      jump\t// in\n    tag_499:\n        /* \"#utility.yul\":23722:23740   */\n      0xffffffffffffffff\n        /* \"#utility.yul\":23714:23720   */\n      dup2\n        /* \"#utility.yul\":23711:23741   */\n      gt\n        /* \"#utility.yul\":23708:23764   */\n      iszero\n      tag_500\n      jumpi\n        /* \"#utility.yul\":23744:23762   */\n      tag_501\n      tag_104\n      jump\t// in\n    tag_501:\n        /* \"#utility.yul\":23708:23764   */\n    tag_500:\n        /* \"#utility.yul\":23788:23826   */\n      tag_502\n        /* \"#utility.yul\":23820:23824   */\n      dup3\n        /* \"#utility.yul\":23814:23825   */\n      sload\n        /* \"#utility.yul\":23788:23826   */\n      tag_93\n      jump\t// in\n    tag_502:\n        /* \"#utility.yul\":23873:23940   */\n      tag_503\n        /* \"#utility.yul\":23933:23939   */\n      dup3\n        /* \"#utility.yul\":23925:23931   */\n      dup3\n        /* \"#utility.yul\":23919:23923   */\n      dup6\n        /* \"#utility.yul\":23873:23940   */\n      tag_271\n      jump\t// in\n    tag_503:\n        /* \"#utility.yul\":23967:23968   */\n      0x00\n        /* \"#utility.yul\":23991:23995   */\n      0x20\n        /* \"#utility.yul\":23978:23995   */\n      swap1\n      pop\n        /* \"#utility.yul\":24023:24025   */\n      0x1f\n        /* \"#utility.yul\":24015:24021   */\n      dup4\n        /* \"#utility.yul\":24012:24026   */\n      gt\n        /* \"#utility.yul\":24040:24041   */\n      0x01\n        /* \"#utility.yul\":24035:24653   */\n      dup2\n      eq\n      tag_505\n      jumpi\n        /* \"#utility.yul\":24697:24698   */\n      0x00\n        /* \"#utility.yul\":24714:24720   */\n      dup5\n        /* \"#utility.yul\":24711:24788   */\n      iszero\n      tag_506\n      jumpi\n        /* \"#utility.yul\":24763:24772   */\n      dup3\n        /* \"#utility.yul\":24758:24761   */\n      dup8\n        /* \"#utility.yul\":24754:24773   */\n      add\n        /* \"#utility.yul\":24748:24774   */\n      mload\n        /* \"#utility.yul\":24739:24774   */\n      swap1\n      pop\n        /* \"#utility.yul\":24711:24788   */\n    tag_506:\n        /* \"#utility.yul\":24814:24881   */\n      tag_507\n        /* \"#utility.yul\":24874:24880   */\n      dup6\n        /* \"#utility.yul\":24867:24872   */\n      dup3\n        /* \"#utility.yul\":24814:24881   */\n      tag_274\n      jump\t// in\n    tag_507:\n        /* \"#utility.yul\":24808:24812   */\n      dup7\n        /* \"#utility.yul\":24801:24882   */\n      sstore\n        /* \"#utility.yul\":24670:24892   */\n      pop\n        /* \"#utility.yul\":24005:24892   */\n      jump(tag_504)\n        /* \"#utility.yul\":24035:24653   */\n    tag_505:\n        /* \"#utility.yul\":24087:24091   */\n      0x1f\n        /* \"#utility.yul\":24083:24092   */\n      not\n        /* \"#utility.yul\":24075:24081   */\n      dup5\n        /* \"#utility.yul\":24071:24093   */\n      and\n        /* \"#utility.yul\":24121:24158   */\n      tag_508\n        /* \"#utility.yul\":24153:24157   */\n      dup7\n        /* \"#utility.yul\":24121:24158   */\n      tag_260\n      jump\t// in\n    tag_508:\n        /* \"#utility.yul\":24180:24181   */\n      0x00\n        /* \"#utility.yul\":24194:24402   */\n    tag_509:\n        /* \"#utility.yul\":24208:24215   */\n      dup3\n        /* \"#utility.yul\":24205:24206   */\n      dup2\n        /* \"#utility.yul\":24202:24216   */\n      lt\n        /* \"#utility.yul\":24194:24402   */\n      iszero\n      tag_511\n      jumpi\n        /* \"#utility.yul\":24287:24296   */\n      dup5\n        /* \"#utility.yul\":24282:24285   */\n      dup10\n        /* \"#utility.yul\":24278:24297   */\n      add\n        /* \"#utility.yul\":24272:24298   */\n      mload\n        /* \"#utility.yul\":24264:24270   */\n      dup3\n        /* \"#utility.yul\":24257:24299   */\n      sstore\n        /* \"#utility.yul\":24338:24339   */\n      0x01\n        /* \"#utility.yul\":24330:24336   */\n      dup3\n        /* \"#utility.yul\":24326:24340   */\n      add\n        /* \"#utility.yul\":24316:24340   */\n      swap2\n      pop\n        /* \"#utility.yul\":24385:24387   */\n      0x20\n        /* \"#utility.yul\":24374:24383   */\n      dup6\n        /* \"#utility.yul\":24370:24388   */\n      add\n        /* \"#utility.yul\":24357:24388   */\n      swap5\n      pop\n        /* \"#utility.yul\":24231:24235   */\n      0x20\n        /* \"#utility.yul\":24228:24229   */\n      dup2\n        /* \"#utility.yul\":24224:24236   */\n      add\n        /* \"#utility.yul\":24219:24236   */\n      swap1\n      pop\n        /* \"#utility.yul\":24194:24402   */\n      jump(tag_509)\n    tag_511:\n        /* \"#utility.yul\":24430:24436   */\n      dup7\n        /* \"#utility.yul\":24421:24428   */\n      dup4\n        /* \"#utility.yul\":24418:24437   */\n      lt\n        /* \"#utility.yul\":24415:24594   */\n      iszero\n      tag_512\n      jumpi\n        /* \"#utility.yul\":24488:24497   */\n      dup5\n        /* \"#utility.yul\":24483:24486   */\n      dup10\n        /* \"#utility.yul\":24479:24498   */\n      add\n        /* \"#utility.yul\":24473:24499   */\n      mload\n        /* \"#utility.yul\":24531:24579   */\n      tag_513\n        /* \"#utility.yul\":24573:24577   */\n      0x1f\n        /* \"#utility.yul\":24565:24571   */\n      dup10\n        /* \"#utility.yul\":24561:24578   */\n      and\n        /* \"#utility.yul\":24550:24559   */\n      dup3\n        /* \"#utility.yul\":24531:24579   */\n      tag_273\n      jump\t// in\n    tag_513:\n        /* \"#utility.yul\":24523:24529   */\n      dup4\n        /* \"#utility.yul\":24516:24580   */\n      sstore\n        /* \"#utility.yul\":24438:24594   */\n      pop\n        /* \"#utility.yul\":24415:24594   */\n    tag_512:\n        /* \"#utility.yul\":24640:24641   */\n      0x01\n        /* \"#utility.yul\":24636:24637   */\n      0x02\n        /* \"#utility.yul\":24628:24634   */\n      dup9\n        /* \"#utility.yul\":24624:24638   */\n      mul\n        /* \"#utility.yul\":24620:24642   */\n      add\n        /* \"#utility.yul\":24614:24618   */\n      dup9\n        /* \"#utility.yul\":24607:24643   */\n      sstore\n        /* \"#utility.yul\":24042:24653   */\n      pop\n      pop\n      pop\n        /* \"#utility.yul\":24005:24892   */\n    tag_504:\n      pop\n        /* \"#utility.yul\":23595:24898   */\n      pop\n      pop\n      pop\n        /* \"#utility.yul\":23503:24898   */\n      pop\n      pop\n      jump\t// out\n        /* \"#utility.yul\":24904:25050   */\n    tag_275:\n        /* \"#utility.yul\":25001:25007   */\n      dup3\n        /* \"#utility.yul\":24996:24999   */\n      dup2\n        /* \"#utility.yul\":24991:24994   */\n      dup4\n        /* \"#utility.yul\":24978:25008   */\n      calldatacopy\n        /* \"#utility.yul\":25042:25043   */\n      0x00\n        /* \"#utility.yul\":25033:25039   */\n      dup4\n        /* \"#utility.yul\":25028:25031   */\n      dup4\n        /* \"#utility.yul\":25024:25040   */\n      add\n        /* \"#utility.yul\":25017:25044   */\n      mstore\n        /* \"#utility.yul\":24904:25050   */\n      pop\n      pop\n      pop\n      jump\t// out\n        /* \"#utility.yul\":25080:25397   */\n    tag_276:\n        /* \"#utility.yul\":25178:25181   */\n      0x00\n        /* \"#utility.yul\":25199:25270   */\n      tag_516\n        /* \"#utility.yul\":25263:25269   */\n      dup4\n        /* \"#utility.yul\":25258:25261   */\n      dup6\n        /* \"#utility.yul\":25199:25270   */\n      tag_235\n      jump\t// in\n    tag_516:\n        /* \"#utility.yul\":25192:25270   */\n      swap4\n      pop\n        /* \"#utility.yul\":25280:25336   */\n      tag_517\n        /* \"#utility.yul\":25329:25335   */\n      dup4\n        /* \"#utility.yul\":25324:25327   */\n      dup6\n        /* \"#utility.yul\":25317:25322   */\n      dup5\n        /* \"#utility.yul\":25280:25336   */\n      tag_275\n      jump\t// in\n    tag_517:\n        /* \"#utility.yul\":25361:25390   */\n      tag_518\n        /* \"#utility.yul\":25383:25389   */\n      dup4\n        /* \"#utility.yul\":25361:25390   */\n      tag_229\n      jump\t// in\n    tag_518:\n        /* \"#utility.yul\":25356:25359   */\n      dup5\n        /* \"#utility.yul\":25352:25391   */\n      add\n        /* \"#utility.yul\":25345:25391   */\n      swap1\n      pop\n        /* \"#utility.yul\":25080:25397   */\n      swap4\n      swap3\n      pop\n      pop\n      pop\n      jump\t// out\n        /* \"#utility.yul\":25403:25736   */\n    tag_151:\n        /* \"#utility.yul\":25526:25530   */\n      0x00\n        /* \"#utility.yul\":25564:25566   */\n      0x20\n        /* \"#utility.yul\":25553:25562   */\n      dup3\n        /* \"#utility.yul\":25549:25567   */\n      add\n        /* \"#utility.yul\":25541:25567   */\n      swap1\n      pop\n        /* \"#utility.yul\":25613:25622   */\n      dup2\n        /* \"#utility.yul\":25607:25611   */\n      dup2\n        /* \"#utility.yul\":25603:25623   */\n      sub\n        /* \"#utility.yul\":25599:25600   */\n      0x00\n        /* \"#utility.yul\":25588:25597   */\n      dup4\n        /* \"#utility.yul\":25584:25601   */\n      add\n        /* \"#utility.yul\":25577:25624   */\n      mstore\n        /* \"#utility.yul\":25641:25729   */\n      tag_520\n        /* \"#utility.yul\":25724:25728   */\n      dup2\n        /* \"#utility.yul\":25715:25721   */\n      dup5\n        /* \"#utility.yul\":25707:25713   */\n      dup7\n        /* \"#utility.yul\":25641:25729   */\n      tag_276\n      jump\t// in\n    tag_520:\n        /* \"#utility.yul\":25633:25729   */\n      swap1\n      pop\n        /* \"#utility.yul\":25403:25736   */\n      swap4\n      swap3\n      pop\n      pop\n      pop\n      jump\t// out\n        /* \"#utility.yul\":25742:25963   */\n    tag_277:\n        /* \"#utility.yul\":25882:25916   */\n      0x566f74696e673a20656c656374696f6e20697320616c726561647920636c6f73\n        /* \"#utility.yul\":25878:25879   */\n      0x00\n        /* \"#utility.yul\":25870:25876   */\n      dup3\n        /* \"#utility.yul\":25866:25880   */\n      add\n        /* \"#utility.yul\":25859:25917   */\n      mstore\n        /* \"#utility.yul\":25951:25955   */\n      0x6564000000000000000000000000000000000000000000000000000000000000\n        /* \"#utility.yul\":25946:25948   */\n      0x20\n        /* \"#utility.yul\":25938:25944   */\n      dup3\n        /* \"#utility.yul\":25934:25949   */\n      add\n        /* \"#utility.yul\":25927:25956   */\n      mstore\n        /* \"#utility.yul\":25742:25963   */\n      pop\n      jump\t// out\n        /* \"#utility.yul\":25969:26335   */\n    tag_278:\n        /* \"#utility.yul\":26111:26114   */\n      0x00\n        /* \"#utility.yul\":26132:26199   */\n      tag_523\n        /* \"#utility.yul\":26196:26198   */\n      0x22\n        /* \"#utility.yul\":26191:26194   */\n      dup4\n        /* \"#utility.yul\":26132:26199   */\n      tag_235\n      jump\t// in\n    tag_523:\n        /* \"#utility.yul\":26125:26199   */\n      swap2\n      pop\n        /* \"#utility.yul\":26208:26301   */\n      tag_524\n        /* \"#utility.yul\":26297:26300   */\n      dup3\n        /* \"#utility.yul\":26208:26301   */\n      tag_277\n      jump\t// in\n    tag_524:\n        /* \"#utility.yul\":26326:26328   */\n      0x40\n        /* \"#utility.yul\":26321:26324   */\n      dup3\n        /* \"#utility.yul\":26317:26329   */\n      add\n        /* \"#utility.yul\":26310:26329   */\n      swap1\n      pop\n        /* \"#utility.yul\":25969:26335   */\n      swap2\n      swap1\n      pop\n      jump\t// out\n        /* \"#utility.yul\":26341:26760   */\n    tag_157:\n        /* \"#utility.yul\":26507:26511   */\n      0x00\n        /* \"#utility.yul\":26545:26547   */\n      0x20\n        /* \"#utility.yul\":26534:26543   */\n      dup3\n        /* \"#utility.yul\":26530:26548   */\n      add\n        /* \"#utility.yul\":26522:26548   */\n      swap1\n      pop\n        /* \"#utility.yul\":26594:26603   */\n      dup2\n        /* \"#utility.yul\":26588:26592   */\n      dup2\n        /* \"#utility.yul\":26584:26604   */\n      sub\n        /* \"#utility.yul\":26580:26581   */\n      0x00\n        /* \"#utility.yul\":26569:26578   */\n      dup4\n        /* \"#utility.yul\":26565:26582   */\n      add\n        /* \"#utility.yul\":26558:26605   */\n      mstore\n        /* \"#utility.yul\":26622:26753   */\n      tag_526\n        /* \"#utility.yul\":26748:26752   */\n      dup2\n        /* \"#utility.yul\":26622:26753   */\n      tag_278\n      jump\t// in\n    tag_526:\n        /* \"#utility.yul\":26614:26753   */\n      swap1\n      pop\n        /* \"#utility.yul\":26341:26760   */\n      swap2\n      swap1\n      pop\n      jump\t// out\n        /* \"#utility.yul\":26766:26957   */\n    tag_170:\n        /* \"#utility.yul\":26806:26809   */\n      0x00\n        /* \"#utility.yul\":26825:26845   */\n      tag_528\n        /* \"#utility.yul\":26843:26844   */\n      dup3\n        /* \"#utility.yul\":26825:26845   */\n      tag_207\n      jump\t// in\n    tag_528:\n        /* \"#utility.yul\":26820:26845   */\n      swap2\n      pop\n        /* \"#utility.yul\":26859:26879   */\n      tag_529\n        /* \"#utility.yul\":26877:26878   */\n      dup4\n        /* \"#utility.yul\":26859:26879   */\n      tag_207\n      jump\t// in\n    tag_529:\n        /* \"#utility.yul\":26854:26879   */\n      swap3\n      pop\n        /* \"#utility.yul\":26902:26903   */\n      dup3\n        /* \"#utility.yul\":26899:26900   */\n      dup3\n        /* \"#utility.yul\":26895:26904   */\n      add\n        /* \"#utility.yul\":26888:26904   */\n      swap1\n      pop\n        /* \"#utility.yul\":26923:26926   */\n      dup1\n        /* \"#utility.yul\":26920:26921   */\n      dup3\n        /* \"#utility.yul\":26917:26927   */\n      gt\n        /* \"#utility.yul\":26914:26950   */\n      iszero\n      tag_530\n      jumpi\n        /* \"#utility.yul\":26930:26948   */\n      tag_531\n      tag_248\n      jump\t// in\n    tag_531:\n        /* \"#utility.yul\":26914:26950   */\n    tag_530:\n        /* \"#utility.yul\":26766:26957   */\n      swap3\n      swap2\n      pop\n      pop\n      jump\t// out\n        /* \"#utility.yul\":26963:27199   */\n    tag_279:\n        /* \"#utility.yul\":27103:27137   */\n      0x566f74696e673a20616464206174206c65617374206f6e652063616e64696461\n        /* \"#utility.yul\":27099:27100   */\n      0x00\n        /* \"#utility.yul\":27091:27097   */\n      dup3\n        /* \"#utility.yul\":27087:27101   */\n      add\n        /* \"#utility.yul\":27080:27138   */\n      mstore\n        /* \"#utility.yul\":27172:27191   */\n      0x7465206265666f7265206f70656e696e67000000000000000000000000000000\n        /* \"#utility.yul\":27167:27169   */\n      0x20\n        /* \"#utility.yul\":27159:27165   */\n      dup3\n        /* \"#utility.yul\":27155:27170   */\n      add\n        /* \"#utility.yul\":27148:27192   */\n      mstore\n        /* \"#utility.yul\":26963:27199   */\n      pop\n      jump\t// out\n        /* \"#utility.yul\":27205:27571   */\n    tag_280:\n        /* \"#utility.yul\":27347:27350   */\n      0x00\n        /* \"#utility.yul\":27368:27435   */\n      tag_534\n        /* \"#utility.yul\":27432:27434   */\n      0x31\n        /* \"#utility.yul\":27427:27430   */\n      dup4\n        /* \"#utility.yul\":27368:27435   */\n      tag_235\n      jump\t// in\n    tag_534:\n        /* \"#utility.yul\":27361:27435   */\n      swap2\n      pop\n        /* \"#utility.yul\":27444:27537   */\n      tag_535\n        /* \"#utility.yul\":27533:27536   */\n      dup3\n        /* \"#utility.yul\":27444:27537   */\n      tag_279\n      jump\t// in\n    tag_535:\n        /* \"#utility.yul\":27562:27564   */\n      0x40\n        /* \"#utility.yul\":27557:27560   */\n      dup3\n        /* \"#utility.yul\":27553:27565   */\n      add\n        /* \"#utility.yul\":27546:27565   */\n      swap1\n      pop\n        /* \"#utility.yul\":27205:27571   */\n      swap2\n      swap1\n      pop\n      jump\t// out\n        /* \"#utility.yul\":27577:27996   */\n    tag_177:\n        /* \"#utility.yul\":27743:27747   */\n      0x00\n        /* \"#utility.yul\":27781:27783   */\n      0x20\n        /* \"#utility.yul\":27770:27779   */\n      dup3\n        /* \"#utility.yul\":27766:27784   */\n      add\n        /* \"#utility.yul\":27758:27784   */\n      swap1\n      pop\n        /* \"#utility.yul\":27830:27839   */\n      dup2\n        /* \"#utility.yul\":27824:27828   */\n      dup2\n        /* \"#utility.yul\":27820:27840   */\n      sub\n        /* \"#utility.yul\":27816:27817   */\n      0x00\n        /* \"#utility.yul\":27805:27814   */\n      dup4\n        /* \"#utility.yul\":27801:27818   */\n      add\n        /* \"#utility.yul\":27794:27841   */\n      mstore\n        /* \"#utility.yul\":27858:27989   */\n      tag_537\n        /* \"#utility.yul\":27984:27988   */\n      dup2\n        /* \"#utility.yul\":27858:27989   */\n      tag_280\n      jump\t// in\n    tag_537:\n        /* \"#utility.yul\":27850:27989   */\n      swap1\n      pop\n        /* \"#utility.yul\":27577:27996   */\n      swap2\n      swap1\n      pop\n      jump\t// out\n        /* \"#utility.yul\":28002:28184   */\n    tag_281:\n        /* \"#utility.yul\":28142:28176   */\n      0x566f74696e673a20656c656374696f6e20697320616c7265616479206f70656e\n        /* \"#utility.yul\":28138:28139   */\n      0x00\n        /* \"#utility.yul\":28130:28136   */\n      dup3\n        /* \"#utility.yul\":28126:28140   */\n      add\n        /* \"#utility.yul\":28119:28177   */\n      mstore\n        /* \"#utility.yul\":28002:28184   */\n      pop\n      jump\t// out\n        /* \"#utility.yul\":28190:28556   */\n    tag_282:\n        /* \"#utility.yul\":28332:28335   */\n      0x00\n        /* \"#utility.yul\":28353:28420   */\n      tag_540\n        /* \"#utility.yul\":28417:28419   */\n      0x20\n        /* \"#utility.yul\":28412:28415   */\n      dup4\n        /* \"#utility.yul\":28353:28420   */\n      tag_235\n      jump\t// in\n    tag_540:\n        /* \"#utility.yul\":28346:28420   */\n      swap2\n      pop\n        /* \"#utility.yul\":28429:28522   */\n      tag_541\n        /* \"#utility.yul\":28518:28521   */\n      dup3\n        /* \"#utility.yul\":28429:28522   */\n      tag_281\n      jump\t// in\n    tag_541:\n        /* \"#utility.yul\":28547:28549   */\n      0x20\n        /* \"#utility.yul\":28542:28545   */\n      dup3\n        /* \"#utility.yul\":28538:28550   */\n      add\n        /* \"#utility.yul\":28531:28550   */\n      swap1\n      pop\n        /* \"#utility.yul\":28190:28556   */\n      swap2\n      swap1\n      pop\n      jump\t// out\n        /* \"#utility.yul\":28562:28981   */\n    tag_180:\n        /* \"#utility.yul\":28728:28732   */\n      0x00\n        /* \"#utility.yul\":28766:28768   */\n      0x20\n        /* \"#utility.yul\":28755:28764   */\n      dup3\n        /* \"#utility.yul\":28751:28769   */\n      add\n        /* \"#utility.yul\":28743:28769   */\n      swap1\n      pop\n        /* \"#utility.yul\":28815:28824   */\n      dup2\n        /* \"#utility.yul\":28809:28813   */\n      dup2\n        /* \"#utility.yul\":28805:28825   */\n      sub\n        /* \"#utility.yul\":28801:28802   */\n      0x00\n        /* \"#utility.yul\":28790:28799   */\n      dup4\n        /* \"#utility.yul\":28786:28803   */\n      add\n        /* \"#utility.yul\":28779:28826   */\n      mstore\n        /* \"#utility.yul\":28843:28974   */\n      tag_543\n        /* \"#utility.yul\":28969:28973   */\n      dup2\n        /* \"#utility.yul\":28843:28974   */\n      tag_282\n      jump\t// in\n    tag_543:\n        /* \"#utility.yul\":28835:28974   */\n      swap1\n      pop\n        /* \"#utility.yul\":28562:28981   */\n      swap2\n      swap1\n      pop\n      jump\t// out\n\n    auxdata: 0xa26469706673582212202cb416b67ea772a99e71d650d15da08a1ef3b5c9c408c8880e8c7c54e7bd843f64736f6c63430008180033\n}\n",
				"bytecode": {
					"linkReferences": {},
					"object": "608060405234801562000010575f80fd5b50335f73ffffffffffffffffffffffffffffffffffffffff168173ffffffffffffffffffffffffffffffffffffffff160362000085575f6040517f1e4fbdf70000000000000000000000000000000000000000000000000000000081526004016200007c9190620001ba565b60405180910390fd5b6200009681620000b660201b60201c565b505f60045f6101000a81548160ff021916908315150217905550620001d5565b5f805f9054906101000a900473ffffffffffffffffffffffffffffffffffffffff169050815f806101000a81548173ffffffffffffffffffffffffffffffffffffffff021916908373ffffffffffffffffffffffffffffffffffffffff1602179055508173ffffffffffffffffffffffffffffffffffffffff168173ffffffffffffffffffffffffffffffffffffffff167f8be0079c531659141344cd1fd0a4f28419497f9722a3daafe3b4186f6b6457e060405160405180910390a35050565b5f73ffffffffffffffffffffffffffffffffffffffff82169050919050565b5f620001a28262000177565b9050919050565b620001b48162000196565b82525050565b5f602082019050620001cf5f830184620001a9565b92915050565b611ddb80620001e35f395ff3fe608060405234801561000f575f80fd5b50600436106100e8575f3560e01c80636c6c32d01161008a5780639a0e7d66116100645780639a0e7d6614610212578063a9a981a314610230578063c5d00f5d1461024e578063f2fde38b14610258576100e8565b80636c6c32d0146101e0578063715018a6146101ea5780638da5cb5b146101f4576100e8565b80632e6997fe116100c65780632e6997fe146101545780633477ee2e14610174578063462e91ec146101a65780634a39d442146101c2576100e8565b80630121b93f146100ec57806309e9d7e21461010857806309eef43e14610124575b5f80fd5b61010660048036038101906101019190610f22565b610274565b005b610122600480360381019061011d9190610f22565b610461565b005b61013e60048036038101906101399190610fa7565b6105d3565b60405161014b9190610fec565b60405180910390f35b61015c6105f0565b60405161016b93929190611201565b60405180910390f35b61018e60048036038101906101899190610f22565b61084d565b60405161019d939291906112a2565b60405180910390f35b6101c060048036038101906101bb919061133f565b6108f9565b005b6101ca610a8a565b6040516101d79190610fec565b60405180910390f35b6101e8610a9c565b005b6101f2610b44565b005b6101fc610b57565b6040516102099190611399565b60405180910390f35b61021a610b7e565b60405161022791906113b2565b60405180910390f35b610238610bc7565b60405161024591906113b2565b60405180910390f35b610256610bcd565b005b610272600480360381019061026d9190610fa7565b610cbc565b005b60045f9054906101000a900460ff166102c2576040517f08c379a00000000000000000000000000000000000000000000000000000000081526004016102b99061143b565b60405180910390fd5b5f811180156102d357506003548111155b610312576040517f08c379a0000000000000000000000000000000000000000000000000000000008152600401610309906114a3565b60405180910390fd5b60025f3373ffffffffffffffffffffffffffffffffffffffff1673ffffffffffffffffffffffffffffffffffffffff1681526020019081526020015f205f9054906101000a900460ff161561039c576040517f08c379a000000000000000000000000000000000000000000000000000000000815260040161039390611531565b60405180910390fd5b600160025f3373ffffffffffffffffffffffffffffffffffffffff1673ffffffffffffffffffffffffffffffffffffffff1681526020019081526020015f205f6101000a81548160ff02191690831515021790555060015f8281526020019081526020015f206002015f8154809291906104159061157c565b9190505550803373ffffffffffffffffffffffffffffffffffffffff167f4d99b957a2bc29a30ebd96a7be8e68fe50a3c701db28a91436490b7d53870ca460405160405180910390a350565b610469610d40565b60045f9054906101000a900460ff16156104b8576040517f08c379a00000000000000000000000000000000000000000000000000000000081526004016104af90611633565b60405180910390fd5b5f811180156104c957506003548111155b610508576040517f08c379a00000000000000000000000000000000000000000000000000000000081526004016104ff906114a3565b60405180910390fd5b5f60015f8381526020019081526020015f2060010180546105289061167e565b90501161056a576040517f08c379a00000000000000000000000000000000000000000000000000000000081526004016105619061171e565b60405180910390fd5b60015f8281526020019081526020015f205f8082015f9055600182015f6105919190610e8f565b600282015f90555050807fe83b2a43e7e82d975c8a0a6d2f045153c869e111136a34d1889ab7b598e396a36040516105c89061175f565b60405180910390a250565b6002602052805f5260405f205f915054906101000a900460ff1681565b606080606060035467ffffffffffffffff8111156106115761061061177d565b5b60405190808252806020026020018201604052801561063f5781602001602082028036833780820191505090505b50925060035467ffffffffffffffff81111561065e5761065d61177d565b5b60405190808252806020026020018201604052801561069157816020015b606081526020019060019003908161067c5790505b50915060035467ffffffffffffffff8111156106b0576106af61177d565b5b6040519080825280602002602001820160405280156106de5781602001602082028036833780820191505090505b5090505f600190505b60035481116108475760015f8281526020019081526020015f205f01548460018361071291906117aa565b81518110610723576107226117dd565b5b60200260200101818152505060015f8281526020019081526020015f20600101805461074e9061167e565b80601f016020809104026020016040519081016040528092919081815260200182805461077a9061167e565b80156107c55780601f1061079c576101008083540402835291602001916107c5565b820191905f5260205f20905b8154815290600101906020018083116107a857829003601f168201915b5050505050836001836107d891906117aa565b815181106107e9576107e86117dd565b5b602002602001018190525060015f8281526020019081526020015f20600201548260018361081791906117aa565b81518110610828576108276117dd565b5b602002602001018181525050808061083f9061157c565b9150506106e7565b50909192565b6001602052805f5260405f205f91509050805f0154908060010180546108729061167e565b80601f016020809104026020016040519081016040528092919081815260200182805461089e9061167e565b80156108e95780601f106108c0576101008083540402835291602001916108e9565b820191905f5260205f20905b8154815290600101906020018083116108cc57829003601f168201915b5050505050908060020154905083565b610901610d40565b60045f9054906101000a900460ff1615610950576040517f08c379a00000000000000000000000000000000000000000000000000000000081526004016109479061187a565b60405180910390fd5b5f8282905011610995576040517f08c379a000000000000000000000000000000000000000000000000000000000815260040161098c90611908565b60405180910390fd5b60035f8154809291906109a79061157c565b91905055506040518060600160405280600354815260200183838080601f0160208091040260200160405190810160405280939291908181526020018383808284375f81840152601f19601f8201169050808301925050505050505081526020015f81525060015f60035481526020019081526020015f205f820151815f01556020820151816001019081610a3c9190611ac3565b50604082015181600201559050506003547fe83b2a43e7e82d975c8a0a6d2f045153c869e111136a34d1889ab7b598e396a38383604051610a7e929190611bcc565b60405180910390a25050565b60045f9054906101000a900460ff1681565b610aa4610d40565b60045f9054906101000a900460ff16610af2576040517f08c379a0000000000000000000000000000000000000000000000000000000008152600401610ae990611c5e565b60405180910390fd5b5f60045f6101000a81548160ff0219169083151502179055507fe87fa5a9385947fdf4bf79b7b6d9e791d5c1bf2460fd1192586fa4f98a38e15a5f604051610b3a9190610fec565b60405180910390a1565b610b4c610d40565b610b555f610dc7565b565b5f805f9054906101000a900473ffffffffffffffffffffffffffffffffffffffff16905090565b5f80600190505b6003548111610bc35760015f8281526020019081526020015f206002015482610bae9190611c7c565b91508080610bbb9061157c565b915050610b85565b5090565b60035481565b610bd5610d40565b5f60035411610c19576040517f08c379a0000000000000000000000000000000000000000000000000000000008152600401610c1090611d1f565b60405180910390fd5b60045f9054906101000a900460ff1615610c68576040517f08c379a0000000000000000000000000000000000000000000000000000000008152600401610c5f90611d87565b60405180910390fd5b600160045f6101000a81548160ff0219169083151502179055507fe87fa5a9385947fdf4bf79b7b6d9e791d5c1bf2460fd1192586fa4f98a38e15a6001604051610cb29190610fec565b60405180910390a1565b610cc4610d40565b5f73ffffffffffffffffffffffffffffffffffffffff168173ffffffffffffffffffffffffffffffffffffffff1603610d34575f6040517f1e4fbdf7000000000000000000000000000000000000000000000000000000008152600401610d2b9190611399565b60405180910390fd5b610d3d81610dc7565b50565b610d48610e88565b73ffffffffffffffffffffffffffffffffffffffff16610d66610b57565b73ffffffffffffffffffffffffffffffffffffffff1614610dc557610d89610e88565b6040517f118cdaa7000000000000000000000000000000000000000000000000000000008152600401610dbc9190611399565b60405180910390fd5b565b5f805f9054906101000a900473ffffffffffffffffffffffffffffffffffffffff169050815f806101000a81548173ffffffffffffffffffffffffffffffffffffffff021916908373ffffffffffffffffffffffffffffffffffffffff1602179055508173ffffffffffffffffffffffffffffffffffffffff168173ffffffffffffffffffffffffffffffffffffffff167f8be0079c531659141344cd1fd0a4f28419497f9722a3daafe3b4186f6b6457e060405160405180910390a35050565b5f33905090565b508054610e9b9061167e565b5f825580601f10610eac5750610ec9565b601f0160209004905f5260205f2090810190610ec89190610ecc565b5b50565b5b80821115610ee3575f815f905550600101610ecd565b5090565b5f80fd5b5f80fd5b5f819050919050565b610f0181610eef565b8114610f0b575f80fd5b50565b5f81359050610f1c81610ef8565b92915050565b5f60208284031215610f3757610f36610ee7565b5b5f610f4484828501610f0e565b91505092915050565b5f73ffffffffffffffffffffffffffffffffffffffff82169050919050565b5f610f7682610f4d565b9050919050565b610f8681610f6c565b8114610f90575f80fd5b50565b5f81359050610fa181610f7d565b92915050565b5f60208284031215610fbc57610fbb610ee7565b5b5f610fc984828501610f93565b91505092915050565b5f8115159050919050565b610fe681610fd2565b82525050565b5f602082019050610fff5f830184610fdd565b92915050565b5f81519050919050565b5f82825260208201905092915050565b5f819050602082019050919050565b61103781610eef565b82525050565b5f611048838361102e565b60208301905092915050565b5f602082019050919050565b5f61106a82611005565b611074818561100f565b935061107f8361101f565b805f5b838110156110af578151611096888261103d565b97506110a183611054565b925050600181019050611082565b5085935050505092915050565b5f81519050919050565b5f82825260208201905092915050565b5f819050602082019050919050565b5f81519050919050565b5f82825260208201905092915050565b5f5b8381101561111c578082015181840152602081019050611101565b5f8484015250505050565b5f601f19601f8301169050919050565b5f611141826110e5565b61114b81856110ef565b935061115b8185602086016110ff565b61116481611127565b840191505092915050565b5f61117a8383611137565b905092915050565b5f602082019050919050565b5f611198826110bc565b6111a281856110c6565b9350836020820285016111b4856110d6565b805f5b858110156111ef57848403895281516111d0858261116f565b94506111db83611182565b925060208a019950506001810190506111b7565b50829750879550505050505092915050565b5f6060820190508181035f8301526112198186611060565b9050818103602083015261122d818561118e565b905081810360408301526112418184611060565b9050949350505050565b61125481610eef565b82525050565b5f82825260208201905092915050565b5f611274826110e5565b61127e818561125a565b935061128e8185602086016110ff565b61129781611127565b840191505092915050565b5f6060820190506112b55f83018661124b565b81810360208301526112c7818561126a565b90506112d6604083018461124b565b949350505050565b5f80fd5b5f80fd5b5f80fd5b5f8083601f8401126112ff576112fe6112de565b5b8235905067ffffffffffffffff81111561131c5761131b6112e2565b5b602083019150836001820283011115611338576113376112e6565b5b9250929050565b5f806020838503121561135557611354610ee7565b5b5f83013567ffffffffffffffff81111561137257611371610eeb565b5b61137e858286016112ea565b92509250509250929050565b61139381610f6c565b82525050565b5f6020820190506113ac5f83018461138a565b92915050565b5f6020820190506113c55f83018461124b565b92915050565b7f566f74696e673a20656c656374696f6e206973206e6f742063757272656e746c5f8201527f79206f70656e0000000000000000000000000000000000000000000000000000602082015250565b5f61142560268361125a565b9150611430826113cb565b604082019050919050565b5f6020820190508181035f83015261145281611419565b9050919050565b7f566f74696e673a20696e76616c69642063616e646964617465204944000000005f82015250565b5f61148d601c8361125a565b915061149882611459565b602082019050919050565b5f6020820190508181035f8301526114ba81611481565b9050919050565b7f566f74696e673a20796f75206861766520616c7265616479206361737420796f5f8201527f757220766f746500000000000000000000000000000000000000000000000000602082015250565b5f61151b60278361125a565b9150611526826114c1565b604082019050919050565b5f6020820190508181035f8301526115488161150f565b9050919050565b7f4e487b71000000000000000000000000000000000000000000000000000000005f52601160045260245ffd5b5f61158682610eef565b91507fffffffffffffffffffffffffffffffffffffffffffffffffffffffffffffffff82036115b8576115b761154f565b5b600182019050919050565b7f566f74696e673a2063616e6e6f742072656d6f7665207768696c6520656c65635f8201527f74696f6e206973206f70656e0000000000000000000000000000000000000000602082015250565b5f61161d602c8361125a565b9150611628826115c3565b604082019050919050565b5f6020820190508181035f83015261164a81611611565b9050919050565b7f4e487b71000000000000000000000000000000000000000000000000000000005f52602260045260245ffd5b5f600282049050600182168061169557607f821691505b6020821081036116a8576116a7611651565b5b50919050565b7f566f74696e673a2063616e64696461746520616c72656164792072656d6f76655f8201527f6400000000000000000000000000000000000000000000000000000000000000602082015250565b5f61170860218361125a565b9150611713826116ae565b604082019050919050565b5f6020820190508181035f830152611735816116fc565b9050919050565b50565b5f61174a5f8361125a565b91506117558261173c565b5f82019050919050565b5f6020820190508181035f8301526117768161173f565b9050919050565b7f4e487b71000000000000000000000000000000000000000000000000000000005f52604160045260245ffd5b5f6117b482610eef565b91506117bf83610eef565b92508282039050818111156117d7576117d661154f565b5b92915050565b7f4e487b71000000000000000000000000000000000000000000000000000000005f52603260045260245ffd5b7f566f74696e673a2063616e6e6f74206164642063616e646964617465732077685f8201527f696c6520656c656374696f6e206973206f70656e000000000000000000000000602082015250565b5f61186460348361125a565b915061186f8261180a565b604082019050919050565b5f6020820190508181035f83015261189181611858565b9050919050565b7f566f74696e673a2063616e646964617465206e616d652063616e6e6f742062655f8201527f20656d7074790000000000000000000000000000000000000000000000000000602082015250565b5f6118f260268361125a565b91506118fd82611898565b604082019050919050565b5f6020820190508181035f83015261191f816118e6565b9050919050565b5f819050815f5260205f209050919050565b5f6020601f8301049050919050565b5f82821b905092915050565b5f600883026119827fffffffffffffffffffffffffffffffffffffffffffffffffffffffffffffffff82611947565b61198c8683611947565b95508019841693508086168417925050509392505050565b5f819050919050565b5f6119c76119c26119bd84610eef565b6119a4565b610eef565b9050919050565b5f819050919050565b6119e0836119ad565b6119f46119ec826119ce565b848454611953565b825550505050565b5f90565b611a086119fc565b611a138184846119d7565b505050565b5b81811015611a3657611a2b5f82611a00565b600181019050611a19565b5050565b601f821115611a7b57611a4c81611926565b611a5584611938565b81016020851015611a64578190505b611a78611a7085611938565b830182611a18565b50505b505050565b5f82821c905092915050565b5f611a9b5f1984600802611a80565b1980831691505092915050565b5f611ab38383611a8c565b9150826002028217905092915050565b611acc826110e5565b67ffffffffffffffff811115611ae557611ae461177d565b5b611aef825461167e565b611afa828285611a3a565b5f60209050601f831160018114611b2b575f8415611b19578287015190505b611b238582611aa8565b865550611b8a565b601f198416611b3986611926565b5f5b82811015611b6057848901518255600182019150602085019450602081019050611b3b565b86831015611b7d5784890151611b79601f891682611a8c565b8355505b6001600288020188555050505b505050505050565b828183375f83830152505050565b5f611bab838561125a565b9350611bb8838584611b92565b611bc183611127565b840190509392505050565b5f6020820190508181035f830152611be5818486611ba0565b90509392505050565b7f566f74696e673a20656c656374696f6e20697320616c726561647920636c6f735f8201527f6564000000000000000000000000000000000000000000000000000000000000602082015250565b5f611c4860228361125a565b9150611c5382611bee565b604082019050919050565b5f6020820190508181035f830152611c7581611c3c565b9050919050565b5f611c8682610eef565b9150611c9183610eef565b9250828201905080821115611ca957611ca861154f565b5b92915050565b7f566f74696e673a20616464206174206c65617374206f6e652063616e646964615f8201527f7465206265666f7265206f70656e696e67000000000000000000000000000000602082015250565b5f611d0960318361125a565b9150611d1482611caf565b604082019050919050565b5f6020820190508181035f830152611d3681611cfd565b9050919050565b7f566f74696e673a20656c656374696f6e20697320616c7265616479206f70656e5f82015250565b5f611d7160208361125a565b9150611d7c82611d3d565b602082019050919050565b5f6020820190508181035f830152611d9e81611d65565b905091905056fea26469706673582212202cb416b67ea772a99e71d650d15da08a1ef3b5c9c408c8880e8c7c54e7bd843f64736f6c63430008180033",
					"opcodes": "PUSH1 0x80 PUSH1 0x40 MSTORE CALLVALUE DUP1 ISZERO PUSH3 0x10 JUMPI PUSH0 DUP1 REVERT JUMPDEST POP CALLER PUSH0 PUSH20 0xFFFFFFFFFFFFFFFFFFFFFFFFFFFFFFFFFFFFFFFF AND DUP2 PUSH20 0xFFFFFFFFFFFFFFFFFFFFFFFFFFFFFFFFFFFFFFFF AND SUB PUSH3 0x85 JUMPI PUSH0 PUSH1 0x40 MLOAD PUSH32 0x1E4FBDF700000000000000000000000000000000000000000000000000000000 DUP2 MSTORE PUSH1 0x4 ADD PUSH3 0x7C SWAP2 SWAP1 PUSH3 0x1BA JUMP JUMPDEST PUSH1 0x40 MLOAD DUP1 SWAP2 SUB SWAP1 REVERT JUMPDEST PUSH3 0x96 DUP2 PUSH3 0xB6 PUSH1 0x20 SHL PUSH1 0x20 SHR JUMP JUMPDEST POP PUSH0 PUSH1 0x4 PUSH0 PUSH2 0x100 EXP DUP2 SLOAD DUP2 PUSH1 0xFF MUL NOT AND SWAP1 DUP4 ISZERO ISZERO MUL OR SWAP1 SSTORE POP PUSH3 0x1D5 JUMP JUMPDEST PUSH0 DUP1 PUSH0 SWAP1 SLOAD SWAP1 PUSH2 0x100 EXP SWAP1 DIV PUSH20 0xFFFFFFFFFFFFFFFFFFFFFFFFFFFFFFFFFFFFFFFF AND SWAP1 POP DUP2 PUSH0 DUP1 PUSH2 0x100 EXP DUP2 SLOAD DUP2 PUSH20 0xFFFFFFFFFFFFFFFFFFFFFFFFFFFFFFFFFFFFFFFF MUL NOT AND SWAP1 DUP4 PUSH20 0xFFFFFFFFFFFFFFFFFFFFFFFFFFFFFFFFFFFFFFFF AND MUL OR SWAP1 SSTORE POP DUP2 PUSH20 0xFFFFFFFFFFFFFFFFFFFFFFFFFFFFFFFFFFFFFFFF AND DUP2 PUSH20 0xFFFFFFFFFFFFFFFFFFFFFFFFFFFFFFFFFFFFFFFF AND PUSH32 0x8BE0079C531659141344CD1FD0A4F28419497F9722A3DAAFE3B4186F6B6457E0 PUSH1 0x40 MLOAD PUSH1 0x40 MLOAD DUP1 SWAP2 SUB SWAP1 LOG3 POP POP JUMP JUMPDEST PUSH0 PUSH20 0xFFFFFFFFFFFFFFFFFFFFFFFFFFFFFFFFFFFFFFFF DUP3 AND SWAP1 POP SWAP2 SWAP1 POP JUMP JUMPDEST PUSH0 PUSH3 0x1A2 DUP3 PUSH3 0x177 JUMP JUMPDEST SWAP1 POP SWAP2 SWAP1 POP JUMP JUMPDEST PUSH3 0x1B4 DUP2 PUSH3 0x196 JUMP JUMPDEST DUP3 MSTORE POP POP JUMP JUMPDEST PUSH0 PUSH1 0x20 DUP3 ADD SWAP1 POP PUSH3 0x1CF PUSH0 DUP4 ADD DUP5 PUSH3 0x1A9 JUMP JUMPDEST SWAP3 SWAP2 POP POP JUMP JUMPDEST PUSH2 0x1DDB DUP1 PUSH3 0x1E3 PUSH0 CODECOPY PUSH0 RETURN INVALID PUSH1 0x80 PUSH1 0x40 MSTORE CALLVALUE DUP1 ISZERO PUSH2 0xF JUMPI PUSH0 DUP1 REVERT JUMPDEST POP PUSH1 0x4 CALLDATASIZE LT PUSH2 0xE8 JUMPI PUSH0 CALLDATALOAD PUSH1 0xE0 SHR DUP1 PUSH4 0x6C6C32D0 GT PUSH2 0x8A JUMPI DUP1 PUSH4 0x9A0E7D66 GT PUSH2 0x64 JUMPI DUP1 PUSH4 0x9A0E7D66 EQ PUSH2 0x212 JUMPI DUP1 PUSH4 0xA9A981A3 EQ PUSH2 0x230 JUMPI DUP1 PUSH4 0xC5D00F5D EQ PUSH2 0x24E JUMPI DUP1 PUSH4 0xF2FDE38B EQ PUSH2 0x258 JUMPI PUSH2 0xE8 JUMP JUMPDEST DUP1 PUSH4 0x6C6C32D0 EQ PUSH2 0x1E0 JUMPI DUP1 PUSH4 0x715018A6 EQ PUSH2 0x1EA JUMPI DUP1 PUSH4 0x8DA5CB5B EQ PUSH2 0x1F4 JUMPI PUSH2 0xE8 JUMP JUMPDEST DUP1 PUSH4 0x2E6997FE GT PUSH2 0xC6 JUMPI DUP1 PUSH4 0x2E6997FE EQ PUSH2 0x154 JUMPI DUP1 PUSH4 0x3477EE2E EQ PUSH2 0x174 JUMPI DUP1 PUSH4 0x462E91EC EQ PUSH2 0x1A6 JUMPI DUP1 PUSH4 0x4A39D442 EQ PUSH2 0x1C2 JUMPI PUSH2 0xE8 JUMP JUMPDEST DUP1 PUSH4 0x121B93F EQ PUSH2 0xEC JUMPI DUP1 PUSH4 0x9E9D7E2 EQ PUSH2 0x108 JUMPI DUP1 PUSH4 0x9EEF43E EQ PUSH2 0x124 JUMPI JUMPDEST PUSH0 DUP1 REVERT JUMPDEST PUSH2 0x106 PUSH1 0x4 DUP1 CALLDATASIZE SUB DUP2 ADD SWAP1 PUSH2 0x101 SWAP2 SWAP1 PUSH2 0xF22 JUMP JUMPDEST PUSH2 0x274 JUMP JUMPDEST STOP JUMPDEST PUSH2 0x122 PUSH1 0x4 DUP1 CALLDATASIZE SUB DUP2 ADD SWAP1 PUSH2 0x11D SWAP2 SWAP1 PUSH2 0xF22 JUMP JUMPDEST PUSH2 0x461 JUMP JUMPDEST STOP JUMPDEST PUSH2 0x13E PUSH1 0x4 DUP1 CALLDATASIZE SUB DUP2 ADD SWAP1 PUSH2 0x139 SWAP2 SWAP1 PUSH2 0xFA7 JUMP JUMPDEST PUSH2 0x5D3 JUMP JUMPDEST PUSH1 0x40 MLOAD PUSH2 0x14B SWAP2 SWAP1 PUSH2 0xFEC JUMP JUMPDEST PUSH1 0x40 MLOAD DUP1 SWAP2 SUB SWAP1 RETURN JUMPDEST PUSH2 0x15C PUSH2 0x5F0 JUMP JUMPDEST PUSH1 0x40 MLOAD PUSH2 0x16B SWAP4 SWAP3 SWAP2 SWAP1 PUSH2 0x1201 JUMP JUMPDEST PUSH1 0x40 MLOAD DUP1 SWAP2 SUB SWAP1 RETURN JUMPDEST PUSH2 0x18E PUSH1 0x4 DUP1 CALLDATASIZE SUB DUP2 ADD SWAP1 PUSH2 0x189 SWAP2 SWAP1 PUSH2 0xF22 JUMP JUMPDEST PUSH2 0x84D JUMP JUMPDEST PUSH1 0x40 MLOAD PUSH2 0x19D SWAP4 SWAP3 SWAP2 SWAP1 PUSH2 0x12A2 JUMP JUMPDEST PUSH1 0x40 MLOAD DUP1 SWAP2 SUB SWAP1 RETURN JUMPDEST PUSH2 0x1C0 PUSH1 0x4 DUP1 CALLDATASIZE SUB DUP2 ADD SWAP1 PUSH2 0x1BB SWAP2 SWAP1 PUSH2 0x133F JUMP JUMPDEST PUSH2 0x8F9 JUMP JUMPDEST STOP JUMPDEST PUSH2 0x1CA PUSH2 0xA8A JUMP JUMPDEST PUSH1 0x40 MLOAD PUSH2 0x1D7 SWAP2 SWAP1 PUSH2 0xFEC JUMP JUMPDEST PUSH1 0x40 MLOAD DUP1 SWAP2 SUB SWAP1 RETURN JUMPDEST PUSH2 0x1E8 PUSH2 0xA9C JUMP JUMPDEST STOP JUMPDEST PUSH2 0x1F2 PUSH2 0xB44 JUMP JUMPDEST STOP JUMPDEST PUSH2 0x1FC PUSH2 0xB57 JUMP JUMPDEST PUSH1 0x40 MLOAD PUSH2 0x209 SWAP2 SWAP1 PUSH2 0x1399 JUMP JUMPDEST PUSH1 0x40 MLOAD DUP1 SWAP2 SUB SWAP1 RETURN JUMPDEST PUSH2 0x21A PUSH2 0xB7E JUMP JUMPDEST PUSH1 0x40 MLOAD PUSH2 0x227 SWAP2 SWAP1 PUSH2 0x13B2 JUMP JUMPDEST PUSH1 0x40 MLOAD DUP1 SWAP2 SUB SWAP1 RETURN JUMPDEST PUSH2 0x238 PUSH2 0xBC7 JUMP JUMPDEST PUSH1 0x40 MLOAD PUSH2 0x245 SWAP2 SWAP1 PUSH2 0x13B2 JUMP JUMPDEST PUSH1 0x40 MLOAD DUP1 SWAP2 SUB SWAP1 RETURN JUMPDEST PUSH2 0x256 PUSH2 0xBCD JUMP JUMPDEST STOP JUMPDEST PUSH2 0x272 PUSH1 0x4 DUP1 CALLDATASIZE SUB DUP2 ADD SWAP1 PUSH2 0x26D SWAP2 SWAP1 PUSH2 0xFA7 JUMP JUMPDEST PUSH2 0xCBC JUMP JUMPDEST STOP JUMPDEST PUSH1 0x4 PUSH0 SWAP1 SLOAD SWAP1 PUSH2 0x100 EXP SWAP1 DIV PUSH1 0xFF AND PUSH2 0x2C2 JUMPI PUSH1 0x40 MLOAD PUSH32 0x8C379A000000000000000000000000000000000000000000000000000000000 DUP2 MSTORE PUSH1 0x4 ADD PUSH2 0x2B9 SWAP1 PUSH2 0x143B JUMP JUMPDEST PUSH1 0x40 MLOAD DUP1 SWAP2 SUB SWAP1 REVERT JUMPDEST PUSH0 DUP2 GT DUP1 ISZERO PUSH2 0x2D3 JUMPI POP PUSH1 0x3 SLOAD DUP2 GT ISZERO JUMPDEST PUSH2 0x312 JUMPI PUSH1 0x40 MLOAD PUSH32 0x8C379A000000000000000000000000000000000000000000000000000000000 DUP2 MSTORE PUSH1 0x4 ADD PUSH2 0x309 SWAP1 PUSH2 0x14A3 JUMP JUMPDEST PUSH1 0x40 MLOAD DUP1 SWAP2 SUB SWAP1 REVERT JUMPDEST PUSH1 0x2 PUSH0 CALLER PUSH20 0xFFFFFFFFFFFFFFFFFFFFFFFFFFFFFFFFFFFFFFFF AND PUSH20 0xFFFFFFFFFFFFFFFFFFFFFFFFFFFFFFFFFFFFFFFF AND DUP2 MSTORE PUSH1 0x20 ADD SWAP1 DUP2 MSTORE PUSH1 0x20 ADD PUSH0 KECCAK256 PUSH0 SWAP1 SLOAD SWAP1 PUSH2 0x100 EXP SWAP1 DIV PUSH1 0xFF AND ISZERO PUSH2 0x39C JUMPI PUSH1 0x40 MLOAD PUSH32 0x8C379A000000000000000000000000000000000000000000000000000000000 DUP2 MSTORE PUSH1 0x4 ADD PUSH2 0x393 SWAP1 PUSH2 0x1531 JUMP JUMPDEST PUSH1 0x40 MLOAD DUP1 SWAP2 SUB SWAP1 REVERT JUMPDEST PUSH1 0x1 PUSH1 0x2 PUSH0 CALLER PUSH20 0xFFFFFFFFFFFFFFFFFFFFFFFFFFFFFFFFFFFFFFFF AND PUSH20 0xFFFFFFFFFFFFFFFFFFFFFFFFFFFFFFFFFFFFFFFF AND DUP2 MSTORE PUSH1 0x20 ADD SWAP1 DUP2 MSTORE PUSH1 0x20 ADD PUSH0 KECCAK256 PUSH0 PUSH2 0x100 EXP DUP2 SLOAD DUP2 PUSH1 0xFF MUL NOT AND SWAP1 DUP4 ISZERO ISZERO MUL OR SWAP1 SSTORE POP PUSH1 0x1 PUSH0 DUP3 DUP2 MSTORE PUSH1 0x20 ADD SWAP1 DUP2 MSTORE PUSH1 0x20 ADD PUSH0 KECCAK256 PUSH1 0x2 ADD PUSH0 DUP2 SLOAD DUP1 SWAP3 SWAP2 SWAP1 PUSH2 0x415 SWAP1 PUSH2 0x157C JUMP JUMPDEST SWAP2 SWAP1 POP SSTORE POP DUP1 CALLER PUSH20 0xFFFFFFFFFFFFFFFFFFFFFFFFFFFFFFFFFFFFFFFF AND PUSH32 0x4D99B957A2BC29A30EBD96A7BE8E68FE50A3C701DB28A91436490B7D53870CA4 PUSH1 0x40 MLOAD PUSH1 0x40 MLOAD DUP1 SWAP2 SUB SWAP1 LOG3 POP JUMP JUMPDEST PUSH2 0x469 PUSH2 0xD40 JUMP JUMPDEST PUSH1 0x4 PUSH0 SWAP1 SLOAD SWAP1 PUSH2 0x100 EXP SWAP1 DIV PUSH1 0xFF AND ISZERO PUSH2 0x4B8 JUMPI PUSH1 0x40 MLOAD PUSH32 0x8C379A000000000000000000000000000000000000000000000000000000000 DUP2 MSTORE PUSH1 0x4 ADD PUSH2 0x4AF SWAP1 PUSH2 0x1633 JUMP JUMPDEST PUSH1 0x40 MLOAD DUP1 SWAP2 SUB SWAP1 REVERT JUMPDEST PUSH0 DUP2 GT DUP1 ISZERO PUSH2 0x4C9 JUMPI POP PUSH1 0x3 SLOAD DUP2 GT ISZERO JUMPDEST PUSH2 0x508 JUMPI PUSH1 0x40 MLOAD PUSH32 0x8C379A000000000000000000000000000000000000000000000000000000000 DUP2 MSTORE PUSH1 0x4 ADD PUSH2 0x4FF SWAP1 PUSH2 0x14A3 JUMP JUMPDEST PUSH1 0x40 MLOAD DUP1 SWAP2 SUB SWAP1 REVERT JUMPDEST PUSH0 PUSH1 0x1 PUSH0 DUP4 DUP2 MSTORE PUSH1 0x20 ADD SWAP1 DUP2 MSTORE PUSH1 0x20 ADD PUSH0 KECCAK256 PUSH1 0x1 ADD DUP1 SLOAD PUSH2 0x528 SWAP1 PUSH2 0x167E JUMP JUMPDEST SWAP1 POP GT PUSH2 0x56A JUMPI PUSH1 0x40 MLOAD PUSH32 0x8C379A000000000000000000000000000000000000000000000000000000000 DUP2 MSTORE PUSH1 0x4 ADD PUSH2 0x561 SWAP1 PUSH2 0x171E JUMP JUMPDEST PUSH1 0x40 MLOAD DUP1 SWAP2 SUB SWAP1 REVERT JUMPDEST PUSH1 0x1 PUSH0 DUP3 DUP2 MSTORE PUSH1 0x20 ADD SWAP1 DUP2 MSTORE PUSH1 0x20 ADD PUSH0 KECCAK256 PUSH0 DUP1 DUP3 ADD PUSH0 SWAP1 SSTORE PUSH1 0x1 DUP3 ADD PUSH0 PUSH2 0x591 SWAP2 SWAP1 PUSH2 0xE8F JUMP JUMPDEST PUSH1 0x2 DUP3 ADD PUSH0 SWAP1 SSTORE POP POP DUP1 PUSH32 0xE83B2A43E7E82D975C8A0A6D2F045153C869E111136A34D1889AB7B598E396A3 PUSH1 0x40 MLOAD PUSH2 0x5C8 SWAP1 PUSH2 0x175F JUMP JUMPDEST PUSH1 0x40 MLOAD DUP1 SWAP2 SUB SWAP1 LOG2 POP JUMP JUMPDEST PUSH1 0x2 PUSH1 0x20 MSTORE DUP1 PUSH0 MSTORE PUSH1 0x40 PUSH0 KECCAK256 PUSH0 SWAP2 POP SLOAD SWAP1 PUSH2 0x100 EXP SWAP1 DIV PUSH1 0xFF AND DUP2 JUMP JUMPDEST PUSH1 0x60 DUP1 PUSH1 0x60 PUSH1 0x3 SLOAD PUSH8 0xFFFFFFFFFFFFFFFF DUP2 GT ISZERO PUSH2 0x611 JUMPI PUSH2 0x610 PUSH2 0x177D JUMP JUMPDEST JUMPDEST PUSH1 0x40 MLOAD SWAP1 DUP1 DUP3 MSTORE DUP1 PUSH1 0x20 MUL PUSH1 0x20 ADD DUP3 ADD PUSH1 0x40 MSTORE DUP1 ISZERO PUSH2 0x63F JUMPI DUP2 PUSH1 0x20 ADD PUSH1 0x20 DUP3 MUL DUP1 CALLDATASIZE DUP4 CALLDATACOPY DUP1 DUP3 ADD SWAP2 POP POP SWAP1 POP JUMPDEST POP SWAP3 POP PUSH1 0x3 SLOAD PUSH8 0xFFFFFFFFFFFFFFFF DUP2 GT ISZERO PUSH2 0x65E JUMPI PUSH2 0x65D PUSH2 0x177D JUMP JUMPDEST JUMPDEST PUSH1 0x40 MLOAD SWAP1 DUP1 DUP3 MSTORE DUP1 PUSH1 0x20 MUL PUSH1 0x20 ADD DUP3 ADD PUSH1 0x40 MSTORE DUP1 ISZERO PUSH2 0x691 JUMPI DUP2 PUSH1 0x20 ADD JUMPDEST PUSH1 0x60 DUP2 MSTORE PUSH1 0x20 ADD SWAP1 PUSH1 0x1 SWAP1 SUB SWAP1 DUP2 PUSH2 0x67C JUMPI SWAP1 POP JUMPDEST POP SWAP2 POP PUSH1 0x3 SLOAD PUSH8 0xFFFFFFFFFFFFFFFF DUP2 GT ISZERO PUSH2 0x6B0 JUMPI PUSH2 0x6AF PUSH2 0x177D JUMP JUMPDEST JUMPDEST PUSH1 0x40 MLOAD SWAP1 DUP1 DUP3 MSTORE DUP1 PUSH1 0x20 MUL PUSH1 0x20 ADD DUP3 ADD PUSH1 0x40 MSTORE DUP1 ISZERO PUSH2 0x6DE JUMPI DUP2 PUSH1 0x20 ADD PUSH1 0x20 DUP3 MUL DUP1 CALLDATASIZE DUP4 CALLDATACOPY DUP1 DUP3 ADD SWAP2 POP POP SWAP1 POP JUMPDEST POP SWAP1 POP PUSH0 PUSH1 0x1 SWAP1 POP JUMPDEST PUSH1 0x3 SLOAD DUP2 GT PUSH2 0x847 JUMPI PUSH1 0x1 PUSH0 DUP3 DUP2 MSTORE PUSH1 0x20 ADD SWAP1 DUP2 MSTORE PUSH1 0x20 ADD PUSH0 KECCAK256 PUSH0 ADD SLOAD DUP5 PUSH1 0x1 DUP4 PUSH2 0x712 SWAP2 SWAP1 PUSH2 0x17AA JUMP JUMPDEST DUP2 MLOAD DUP2 LT PUSH2 0x723 JUMPI PUSH2 0x722 PUSH2 0x17DD JUMP JUMPDEST JUMPDEST PUSH1 0x20 MUL PUSH1 0x20 ADD ADD DUP2 DUP2 MSTORE POP POP PUSH1 0x1 PUSH0 DUP3 DUP2 MSTORE PUSH1 0x20 ADD SWAP1 DUP2 MSTORE PUSH1 0x20 ADD PUSH0 KECCAK256 PUSH1 0x1 ADD DUP1 SLOAD PUSH2 0x74E SWAP1 PUSH2 0x167E JUMP JUMPDEST DUP1 PUSH1 0x1F ADD PUSH1 0x20 DUP1 SWAP2 DIV MUL PUSH1 0x20 ADD PUSH1 0x40 MLOAD SWAP1 DUP2 ADD PUSH1 0x40 MSTORE DUP1 SWAP3 SWAP2 SWAP1 DUP2 DUP2 MSTORE PUSH1 0x20 ADD DUP3 DUP1 SLOAD PUSH2 0x77A SWAP1 PUSH2 0x167E JUMP JUMPDEST DUP1 ISZERO PUSH2 0x7C5 JUMPI DUP1 PUSH1 0x1F LT PUSH2 0x79C JUMPI PUSH2 0x100 DUP1 DUP4 SLOAD DIV MUL DUP4 MSTORE SWAP2 PUSH1 0x20 ADD SWAP2 PUSH2 0x7C5 JUMP JUMPDEST DUP3 ADD SWAP2 SWAP1 PUSH0 MSTORE PUSH1 0x20 PUSH0 KECCAK256 SWAP1 JUMPDEST DUP2 SLOAD DUP2 MSTORE SWAP1 PUSH1 0x1 ADD SWAP1 PUSH1 0x20 ADD DUP1 DUP4 GT PUSH2 0x7A8 JUMPI DUP3 SWAP1 SUB PUSH1 0x1F AND DUP3 ADD SWAP2 JUMPDEST POP POP POP POP POP DUP4 PUSH1 0x1 DUP4 PUSH2 0x7D8 SWAP2 SWAP1 PUSH2 0x17AA JUMP JUMPDEST DUP2 MLOAD DUP2 LT PUSH2 0x7E9 JUMPI PUSH2 0x7E8 PUSH2 0x17DD JUMP JUMPDEST JUMPDEST PUSH1 0x20 MUL PUSH1 0x20 ADD ADD DUP2 SWAP1 MSTORE POP PUSH1 0x1 PUSH0 DUP3 DUP2 MSTORE PUSH1 0x20 ADD SWAP1 DUP2 MSTORE PUSH1 0x20 ADD PUSH0 KECCAK256 PUSH1 0x2 ADD SLOAD DUP3 PUSH1 0x1 DUP4 PUSH2 0x817 SWAP2 SWAP1 PUSH2 0x17AA JUMP JUMPDEST DUP2 MLOAD DUP2 LT PUSH2 0x828 JUMPI PUSH2 0x827 PUSH2 0x17DD JUMP JUMPDEST JUMPDEST PUSH1 0x20 MUL PUSH1 0x20 ADD ADD DUP2 DUP2 MSTORE POP POP DUP1 DUP1 PUSH2 0x83F SWAP1 PUSH2 0x157C JUMP JUMPDEST SWAP2 POP POP PUSH2 0x6E7 JUMP JUMPDEST POP SWAP1 SWAP2 SWAP3 JUMP JUMPDEST PUSH1 0x1 PUSH1 0x20 MSTORE DUP1 PUSH0 MSTORE PUSH1 0x40 PUSH0 KECCAK256 PUSH0 SWAP2 POP SWAP1 POP DUP1 PUSH0 ADD SLOAD SWAP1 DUP1 PUSH1 0x1 ADD DUP1 SLOAD PUSH2 0x872 SWAP1 PUSH2 0x167E JUMP JUMPDEST DUP1 PUSH1 0x1F ADD PUSH1 0x20 DUP1 SWAP2 DIV MUL PUSH1 0x20 ADD PUSH1 0x40 MLOAD SWAP1 DUP2 ADD PUSH1 0x40 MSTORE DUP1 SWAP3 SWAP2 SWAP1 DUP2 DUP2 MSTORE PUSH1 0x20 ADD DUP3 DUP1 SLOAD PUSH2 0x89E SWAP1 PUSH2 0x167E JUMP JUMPDEST DUP1 ISZERO PUSH2 0x8E9 JUMPI DUP1 PUSH1 0x1F LT PUSH2 0x8C0 JUMPI PUSH2 0x100 DUP1 DUP4 SLOAD DIV MUL DUP4 MSTORE SWAP2 PUSH1 0x20 ADD SWAP2 PUSH2 0x8E9 JUMP JUMPDEST DUP3 ADD SWAP2 SWAP1 PUSH0 MSTORE PUSH1 0x20 PUSH0 KECCAK256 SWAP1 JUMPDEST DUP2 SLOAD DUP2 MSTORE SWAP1 PUSH1 0x1 ADD SWAP1 PUSH1 0x20 ADD DUP1 DUP4 GT PUSH2 0x8CC JUMPI DUP3 SWAP1 SUB PUSH1 0x1F AND DUP3 ADD SWAP2 JUMPDEST POP POP POP POP POP SWAP1 DUP1 PUSH1 0x2 ADD SLOAD SWAP1 POP DUP4 JUMP JUMPDEST PUSH2 0x901 PUSH2 0xD40 JUMP JUMPDEST PUSH1 0x4 PUSH0 SWAP1 SLOAD SWAP1 PUSH2 0x100 EXP SWAP1 DIV PUSH1 0xFF AND ISZERO PUSH2 0x950 JUMPI PUSH1 0x40 MLOAD PUSH32 0x8C379A000000000000000000000000000000000000000000000000000000000 DUP2 MSTORE PUSH1 0x4 ADD PUSH2 0x947 SWAP1 PUSH2 0x187A JUMP JUMPDEST PUSH1 0x40 MLOAD DUP1 SWAP2 SUB SWAP1 REVERT JUMPDEST PUSH0 DUP3 DUP3 SWAP1 POP GT PUSH2 0x995 JUMPI PUSH1 0x40 MLOAD PUSH32 0x8C379A000000000000000000000000000000000000000000000000000000000 DUP2 MSTORE PUSH1 0x4 ADD PUSH2 0x98C SWAP1 PUSH2 0x1908 JUMP JUMPDEST PUSH1 0x40 MLOAD DUP1 SWAP2 SUB SWAP1 REVERT JUMPDEST PUSH1 0x3 PUSH0 DUP2 SLOAD DUP1 SWAP3 SWAP2 SWAP1 PUSH2 0x9A7 SWAP1 PUSH2 0x157C JUMP JUMPDEST SWAP2 SWAP1 POP SSTORE POP PUSH1 0x40 MLOAD DUP1 PUSH1 0x60 ADD PUSH1 0x40 MSTORE DUP1 PUSH1 0x3 SLOAD DUP2 MSTORE PUSH1 0x20 ADD DUP4 DUP4 DUP1 DUP1 PUSH1 0x1F ADD PUSH1 0x20 DUP1 SWAP2 DIV MUL PUSH1 0x20 ADD PUSH1 0x40 MLOAD SWAP1 DUP2 ADD PUSH1 0x40 MSTORE DUP1 SWAP4 SWAP3 SWAP2 SWAP1 DUP2 DUP2 MSTORE PUSH1 0x20 ADD DUP4 DUP4 DUP1 DUP3 DUP5 CALLDATACOPY PUSH0 DUP2 DUP5 ADD MSTORE PUSH1 0x1F NOT PUSH1 0x1F DUP3 ADD AND SWAP1 POP DUP1 DUP4 ADD SWAP3 POP POP POP POP POP POP POP DUP2 MSTORE PUSH1 0x20 ADD PUSH0 DUP2 MSTORE POP PUSH1 0x1 PUSH0 PUSH1 0x3 SLOAD DUP2 MSTORE PUSH1 0x20 ADD SWAP1 DUP2 MSTORE PUSH1 0x20 ADD PUSH0 KECCAK256 PUSH0 DUP3 ADD MLOAD DUP2 PUSH0 ADD SSTORE PUSH1 0x20 DUP3 ADD MLOAD DUP2 PUSH1 0x1 ADD SWAP1 DUP2 PUSH2 0xA3C SWAP2 SWAP1 PUSH2 0x1AC3 JUMP JUMPDEST POP PUSH1 0x40 DUP3 ADD MLOAD DUP2 PUSH1 0x2 ADD SSTORE SWAP1 POP POP PUSH1 0x3 SLOAD PUSH32 0xE83B2A43E7E82D975C8A0A6D2F045153C869E111136A34D1889AB7B598E396A3 DUP4 DUP4 PUSH1 0x40 MLOAD PUSH2 0xA7E SWAP3 SWAP2 SWAP1 PUSH2 0x1BCC JUMP JUMPDEST PUSH1 0x40 MLOAD DUP1 SWAP2 SUB SWAP1 LOG2 POP POP JUMP JUMPDEST PUSH1 0x4 PUSH0 SWAP1 SLOAD SWAP1 PUSH2 0x100 EXP SWAP1 DIV PUSH1 0xFF AND DUP2 JUMP JUMPDEST PUSH2 0xAA4 PUSH2 0xD40 JUMP JUMPDEST PUSH1 0x4 PUSH0 SWAP1 SLOAD SWAP1 PUSH2 0x100 EXP SWAP1 DIV PUSH1 0xFF AND PUSH2 0xAF2 JUMPI PUSH1 0x40 MLOAD PUSH32 0x8C379A000000000000000000000000000000000000000000000000000000000 DUP2 MSTORE PUSH1 0x4 ADD PUSH2 0xAE9 SWAP1 PUSH2 0x1C5E JUMP JUMPDEST PUSH1 0x40 MLOAD DUP1 SWAP2 SUB SWAP1 REVERT JUMPDEST PUSH0 PUSH1 0x4 PUSH0 PUSH2 0x100 EXP DUP2 SLOAD DUP2 PUSH1 0xFF MUL NOT AND SWAP1 DUP4 ISZERO ISZERO MUL OR SWAP1 SSTORE POP PUSH32 0xE87FA5A9385947FDF4BF79B7B6D9E791D5C1BF2460FD1192586FA4F98A38E15A PUSH0 PUSH1 0x40 MLOAD PUSH2 0xB3A SWAP2 SWAP1 PUSH2 0xFEC JUMP JUMPDEST PUSH1 0x40 MLOAD DUP1 SWAP2 SUB SWAP1 LOG1 JUMP JUMPDEST PUSH2 0xB4C PUSH2 0xD40 JUMP JUMPDEST PUSH2 0xB55 PUSH0 PUSH2 0xDC7 JUMP JUMPDEST JUMP JUMPDEST PUSH0 DUP1 PUSH0 SWAP1 SLOAD SWAP1 PUSH2 0x100 EXP SWAP1 DIV PUSH20 0xFFFFFFFFFFFFFFFFFFFFFFFFFFFFFFFFFFFFFFFF AND SWAP1 POP SWAP1 JUMP JUMPDEST PUSH0 DUP1 PUSH1 0x1 SWAP1 POP JUMPDEST PUSH1 0x3 SLOAD DUP2 GT PUSH2 0xBC3 JUMPI PUSH1 0x1 PUSH0 DUP3 DUP2 MSTORE PUSH1 0x20 ADD SWAP1 DUP2 MSTORE PUSH1 0x20 ADD PUSH0 KECCAK256 PUSH1 0x2 ADD SLOAD DUP3 PUSH2 0xBAE SWAP2 SWAP1 PUSH2 0x1C7C JUMP JUMPDEST SWAP2 POP DUP1 DUP1 PUSH2 0xBBB SWAP1 PUSH2 0x157C JUMP JUMPDEST SWAP2 POP POP PUSH2 0xB85 JUMP JUMPDEST POP SWAP1 JUMP JUMPDEST PUSH1 0x3 SLOAD DUP2 JUMP JUMPDEST PUSH2 0xBD5 PUSH2 0xD40 JUMP JUMPDEST PUSH0 PUSH1 0x3 SLOAD GT PUSH2 0xC19 JUMPI PUSH1 0x40 MLOAD PUSH32 0x8C379A000000000000000000000000000000000000000000000000000000000 DUP2 MSTORE PUSH1 0x4 ADD PUSH2 0xC10 SWAP1 PUSH2 0x1D1F JUMP JUMPDEST PUSH1 0x40 MLOAD DUP1 SWAP2 SUB SWAP1 REVERT JUMPDEST PUSH1 0x4 PUSH0 SWAP1 SLOAD SWAP1 PUSH2 0x100 EXP SWAP1 DIV PUSH1 0xFF AND ISZERO PUSH2 0xC68 JUMPI PUSH1 0x40 MLOAD PUSH32 0x8C379A000000000000000000000000000000000000000000000000000000000 DUP2 MSTORE PUSH1 0x4 ADD PUSH2 0xC5F SWAP1 PUSH2 0x1D87 JUMP JUMPDEST PUSH1 0x40 MLOAD DUP1 SWAP2 SUB SWAP1 REVERT JUMPDEST PUSH1 0x1 PUSH1 0x4 PUSH0 PUSH2 0x100 EXP DUP2 SLOAD DUP2 PUSH1 0xFF MUL NOT AND SWAP1 DUP4 ISZERO ISZERO MUL OR SWAP1 SSTORE POP PUSH32 0xE87FA5A9385947FDF4BF79B7B6D9E791D5C1BF2460FD1192586FA4F98A38E15A PUSH1 0x1 PUSH1 0x40 MLOAD PUSH2 0xCB2 SWAP2 SWAP1 PUSH2 0xFEC JUMP JUMPDEST PUSH1 0x40 MLOAD DUP1 SWAP2 SUB SWAP1 LOG1 JUMP JUMPDEST PUSH2 0xCC4 PUSH2 0xD40 JUMP JUMPDEST PUSH0 PUSH20 0xFFFFFFFFFFFFFFFFFFFFFFFFFFFFFFFFFFFFFFFF AND DUP2 PUSH20 0xFFFFFFFFFFFFFFFFFFFFFFFFFFFFFFFFFFFFFFFF AND SUB PUSH2 0xD34 JUMPI PUSH0 PUSH1 0x40 MLOAD PUSH32 0x1E4FBDF700000000000000000000000000000000000000000000000000000000 DUP2 MSTORE PUSH1 0x4 ADD PUSH2 0xD2B SWAP2 SWAP1 PUSH2 0x1399 JUMP JUMPDEST PUSH1 0x40 MLOAD DUP1 SWAP2 SUB SWAP1 REVERT JUMPDEST PUSH2 0xD3D DUP2 PUSH2 0xDC7 JUMP JUMPDEST POP JUMP JUMPDEST PUSH2 0xD48 PUSH2 0xE88 JUMP JUMPDEST PUSH20 0xFFFFFFFFFFFFFFFFFFFFFFFFFFFFFFFFFFFFFFFF AND PUSH2 0xD66 PUSH2 0xB57 JUMP JUMPDEST PUSH20 0xFFFFFFFFFFFFFFFFFFFFFFFFFFFFFFFFFFFFFFFF AND EQ PUSH2 0xDC5 JUMPI PUSH2 0xD89 PUSH2 0xE88 JUMP JUMPDEST PUSH1 0x40 MLOAD PUSH32 0x118CDAA700000000000000000000000000000000000000000000000000000000 DUP2 MSTORE PUSH1 0x4 ADD PUSH2 0xDBC SWAP2 SWAP1 PUSH2 0x1399 JUMP JUMPDEST PUSH1 0x40 MLOAD DUP1 SWAP2 SUB SWAP1 REVERT JUMPDEST JUMP JUMPDEST PUSH0 DUP1 PUSH0 SWAP1 SLOAD SWAP1 PUSH2 0x100 EXP SWAP1 DIV PUSH20 0xFFFFFFFFFFFFFFFFFFFFFFFFFFFFFFFFFFFFFFFF AND SWAP1 POP DUP2 PUSH0 DUP1 PUSH2 0x100 EXP DUP2 SLOAD DUP2 PUSH20 0xFFFFFFFFFFFFFFFFFFFFFFFFFFFFFFFFFFFFFFFF MUL NOT AND SWAP1 DUP4 PUSH20 0xFFFFFFFFFFFFFFFFFFFFFFFFFFFFFFFFFFFFFFFF AND MUL OR SWAP1 SSTORE POP DUP2 PUSH20 0xFFFFFFFFFFFFFFFFFFFFFFFFFFFFFFFFFFFFFFFF AND DUP2 PUSH20 0xFFFFFFFFFFFFFFFFFFFFFFFFFFFFFFFFFFFFFFFF AND PUSH32 0x8BE0079C531659141344CD1FD0A4F28419497F9722A3DAAFE3B4186F6B6457E0 PUSH1 0x40 MLOAD PUSH1 0x40 MLOAD DUP1 SWAP2 SUB SWAP1 LOG3 POP POP JUMP JUMPDEST PUSH0 CALLER SWAP1 POP SWAP1 JUMP JUMPDEST POP DUP1 SLOAD PUSH2 0xE9B SWAP1 PUSH2 0x167E JUMP JUMPDEST PUSH0 DUP3 SSTORE DUP1 PUSH1 0x1F LT PUSH2 0xEAC JUMPI POP PUSH2 0xEC9 JUMP JUMPDEST PUSH1 0x1F ADD PUSH1 0x20 SWAP1 DIV SWAP1 PUSH0 MSTORE PUSH1 0x20 PUSH0 KECCAK256 SWAP1 DUP2 ADD SWAP1 PUSH2 0xEC8 SWAP2 SWAP1 PUSH2 0xECC JUMP JUMPDEST JUMPDEST POP JUMP JUMPDEST JUMPDEST DUP1 DUP3 GT ISZERO PUSH2 0xEE3 JUMPI PUSH0 DUP2 PUSH0 SWAP1 SSTORE POP PUSH1 0x1 ADD PUSH2 0xECD JUMP JUMPDEST POP SWAP1 JUMP JUMPDEST PUSH0 DUP1 REVERT JUMPDEST PUSH0 DUP1 REVERT JUMPDEST PUSH0 DUP2 SWAP1 POP SWAP2 SWAP1 POP JUMP JUMPDEST PUSH2 0xF01 DUP2 PUSH2 0xEEF JUMP JUMPDEST DUP2 EQ PUSH2 0xF0B JUMPI PUSH0 DUP1 REVERT JUMPDEST POP JUMP JUMPDEST PUSH0 DUP2 CALLDATALOAD SWAP1 POP PUSH2 0xF1C DUP2 PUSH2 0xEF8 JUMP JUMPDEST SWAP3 SWAP2 POP POP JUMP JUMPDEST PUSH0 PUSH1 0x20 DUP3 DUP5 SUB SLT ISZERO PUSH2 0xF37 JUMPI PUSH2 0xF36 PUSH2 0xEE7 JUMP JUMPDEST JUMPDEST PUSH0 PUSH2 0xF44 DUP5 DUP3 DUP6 ADD PUSH2 0xF0E JUMP JUMPDEST SWAP2 POP POP SWAP3 SWAP2 POP POP JUMP JUMPDEST PUSH0 PUSH20 0xFFFFFFFFFFFFFFFFFFFFFFFFFFFFFFFFFFFFFFFF DUP3 AND SWAP1 POP SWAP2 SWAP1 POP JUMP JUMPDEST PUSH0 PUSH2 0xF76 DUP3 PUSH2 0xF4D JUMP JUMPDEST SWAP1 POP SWAP2 SWAP1 POP JUMP JUMPDEST PUSH2 0xF86 DUP2 PUSH2 0xF6C JUMP JUMPDEST DUP2 EQ PUSH2 0xF90 JUMPI PUSH0 DUP1 REVERT JUMPDEST POP JUMP JUMPDEST PUSH0 DUP2 CALLDATALOAD SWAP1 POP PUSH2 0xFA1 DUP2 PUSH2 0xF7D JUMP JUMPDEST SWAP3 SWAP2 POP POP JUMP JUMPDEST PUSH0 PUSH1 0x20 DUP3 DUP5 SUB SLT ISZERO PUSH2 0xFBC JUMPI PUSH2 0xFBB PUSH2 0xEE7 JUMP JUMPDEST JUMPDEST PUSH0 PUSH2 0xFC9 DUP5 DUP3 DUP6 ADD PUSH2 0xF93 JUMP JUMPDEST SWAP2 POP POP SWAP3 SWAP2 POP POP JUMP JUMPDEST PUSH0 DUP2 ISZERO ISZERO SWAP1 POP SWAP2 SWAP1 POP JUMP JUMPDEST PUSH2 0xFE6 DUP2 PUSH2 0xFD2 JUMP JUMPDEST DUP3 MSTORE POP POP JUMP JUMPDEST PUSH0 PUSH1 0x20 DUP3 ADD SWAP1 POP PUSH2 0xFFF PUSH0 DUP4 ADD DUP5 PUSH2 0xFDD JUMP JUMPDEST SWAP3 SWAP2 POP POP JUMP JUMPDEST PUSH0 DUP2 MLOAD SWAP1 POP SWAP2 SWAP1 POP JUMP JUMPDEST PUSH0 DUP3 DUP3 MSTORE PUSH1 0x20 DUP3 ADD SWAP1 POP SWAP3 SWAP2 POP POP JUMP JUMPDEST PUSH0 DUP2 SWAP1 POP PUSH1 0x20 DUP3 ADD SWAP1 POP SWAP2 SWAP1 POP JUMP JUMPDEST PUSH2 0x1037 DUP2 PUSH2 0xEEF JUMP JUMPDEST DUP3 MSTORE POP POP JUMP JUMPDEST PUSH0 PUSH2 0x1048 DUP4 DUP4 PUSH2 0x102E JUMP JUMPDEST PUSH1 0x20 DUP4 ADD SWAP1 POP SWAP3 SWAP2 POP POP JUMP JUMPDEST PUSH0 PUSH1 0x20 DUP3 ADD SWAP1 POP SWAP2 SWAP1 POP JUMP JUMPDEST PUSH0 PUSH2 0x106A DUP3 PUSH2 0x1005 JUMP JUMPDEST PUSH2 0x1074 DUP2 DUP6 PUSH2 0x100F JUMP JUMPDEST SWAP4 POP PUSH2 0x107F DUP4 PUSH2 0x101F JUMP JUMPDEST DUP1 PUSH0 JUMPDEST DUP4 DUP2 LT ISZERO PUSH2 0x10AF JUMPI DUP2 MLOAD PUSH2 0x1096 DUP9 DUP3 PUSH2 0x103D JUMP JUMPDEST SWAP8 POP PUSH2 0x10A1 DUP4 PUSH2 0x1054 JUMP JUMPDEST SWAP3 POP POP PUSH1 0x1 DUP2 ADD SWAP1 POP PUSH2 0x1082 JUMP JUMPDEST POP DUP6 SWAP4 POP POP POP POP SWAP3 SWAP2 POP POP JUMP JUMPDEST PUSH0 DUP2 MLOAD SWAP1 POP SWAP2 SWAP1 POP JUMP JUMPDEST PUSH0 DUP3 DUP3 MSTORE PUSH1 0x20 DUP3 ADD SWAP1 POP SWAP3 SWAP2 POP POP JUMP JUMPDEST PUSH0 DUP2 SWAP1 POP PUSH1 0x20 DUP3 ADD SWAP1 POP SWAP2 SWAP1 POP JUMP JUMPDEST PUSH0 DUP2 MLOAD SWAP1 POP SWAP2 SWAP1 POP JUMP JUMPDEST PUSH0 DUP3 DUP3 MSTORE PUSH1 0x20 DUP3 ADD SWAP1 POP SWAP3 SWAP2 POP POP JUMP JUMPDEST PUSH0 JUMPDEST DUP4 DUP2 LT ISZERO PUSH2 0x111C JUMPI DUP1 DUP3 ADD MLOAD DUP2 DUP5 ADD MSTORE PUSH1 0x20 DUP2 ADD SWAP1 POP PUSH2 0x1101 JUMP JUMPDEST PUSH0 DUP5 DUP5 ADD MSTORE POP POP POP POP JUMP JUMPDEST PUSH0 PUSH1 0x1F NOT PUSH1 0x1F DUP4 ADD AND SWAP1 POP SWAP2 SWAP1 POP JUMP JUMPDEST PUSH0 PUSH2 0x1141 DUP3 PUSH2 0x10E5 JUMP JUMPDEST PUSH2 0x114B DUP2 DUP6 PUSH2 0x10EF JUMP JUMPDEST SWAP4 POP PUSH2 0x115B DUP2 DUP6 PUSH1 0x20 DUP7 ADD PUSH2 0x10FF JUMP JUMPDEST PUSH2 0x1164 DUP2 PUSH2 0x1127 JUMP JUMPDEST DUP5 ADD SWAP2 POP POP SWAP3 SWAP2 POP POP JUMP JUMPDEST PUSH0 PUSH2 0x117A DUP4 DUP4 PUSH2 0x1137 JUMP JUMPDEST SWAP1 POP SWAP3 SWAP2 POP POP JUMP JUMPDEST PUSH0 PUSH1 0x20 DUP3 ADD SWAP1 POP SWAP2 SWAP1 POP JUMP JUMPDEST PUSH0 PUSH2 0x1198 DUP3 PUSH2 0x10BC JUMP JUMPDEST PUSH2 0x11A2 DUP2 DUP6 PUSH2 0x10C6 JUMP JUMPDEST SWAP4 POP DUP4 PUSH1 0x20 DUP3 MUL DUP6 ADD PUSH2 0x11B4 DUP6 PUSH2 0x10D6 JUMP JUMPDEST DUP1 PUSH0 JUMPDEST DUP6 DUP2 LT ISZERO PUSH2 0x11EF JUMPI DUP5 DUP5 SUB DUP10 MSTORE DUP2 MLOAD PUSH2 0x11D0 DUP6 DUP3 PUSH2 0x116F JUMP JUMPDEST SWAP5 POP PUSH2 0x11DB DUP4 PUSH2 0x1182 JUMP JUMPDEST SWAP3 POP PUSH1 0x20 DUP11 ADD SWAP10 POP POP PUSH1 0x1 DUP2 ADD SWAP1 POP PUSH2 0x11B7 JUMP JUMPDEST POP DUP3 SWAP8 POP DUP8 SWAP6 POP POP POP POP POP POP SWAP3 SWAP2 POP POP JUMP JUMPDEST PUSH0 PUSH1 0x60 DUP3 ADD SWAP1 POP DUP2 DUP2 SUB PUSH0 DUP4 ADD MSTORE PUSH2 0x1219 DUP2 DUP7 PUSH2 0x1060 JUMP JUMPDEST SWAP1 POP DUP2 DUP2 SUB PUSH1 0x20 DUP4 ADD MSTORE PUSH2 0x122D DUP2 DUP6 PUSH2 0x118E JUMP JUMPDEST SWAP1 POP DUP2 DUP2 SUB PUSH1 0x40 DUP4 ADD MSTORE PUSH2 0x1241 DUP2 DUP5 PUSH2 0x1060 JUMP JUMPDEST SWAP1 POP SWAP5 SWAP4 POP POP POP POP JUMP JUMPDEST PUSH2 0x1254 DUP2 PUSH2 0xEEF JUMP JUMPDEST DUP3 MSTORE POP POP JUMP JUMPDEST PUSH0 DUP3 DUP3 MSTORE PUSH1 0x20 DUP3 ADD SWAP1 POP SWAP3 SWAP2 POP POP JUMP JUMPDEST PUSH0 PUSH2 0x1274 DUP3 PUSH2 0x10E5 JUMP JUMPDEST PUSH2 0x127E DUP2 DUP6 PUSH2 0x125A JUMP JUMPDEST SWAP4 POP PUSH2 0x128E DUP2 DUP6 PUSH1 0x20 DUP7 ADD PUSH2 0x10FF JUMP JUMPDEST PUSH2 0x1297 DUP2 PUSH2 0x1127 JUMP JUMPDEST DUP5 ADD SWAP2 POP POP SWAP3 SWAP2 POP POP JUMP JUMPDEST PUSH0 PUSH1 0x60 DUP3 ADD SWAP1 POP PUSH2 0x12B5 PUSH0 DUP4 ADD DUP7 PUSH2 0x124B JUMP JUMPDEST DUP2 DUP2 SUB PUSH1 0x20 DUP4 ADD MSTORE PUSH2 0x12C7 DUP2 DUP6 PUSH2 0x126A JUMP JUMPDEST SWAP1 POP PUSH2 0x12D6 PUSH1 0x40 DUP4 ADD DUP5 PUSH2 0x124B JUMP JUMPDEST SWAP5 SWAP4 POP POP POP POP JUMP JUMPDEST PUSH0 DUP1 REVERT JUMPDEST PUSH0 DUP1 REVERT JUMPDEST PUSH0 DUP1 REVERT JUMPDEST PUSH0 DUP1 DUP4 PUSH1 0x1F DUP5 ADD SLT PUSH2 0x12FF JUMPI PUSH2 0x12FE PUSH2 0x12DE JUMP JUMPDEST JUMPDEST DUP3 CALLDATALOAD SWAP1 POP PUSH8 0xFFFFFFFFFFFFFFFF DUP2 GT ISZERO PUSH2 0x131C JUMPI PUSH2 0x131B PUSH2 0x12E2 JUMP JUMPDEST JUMPDEST PUSH1 0x20 DUP4 ADD SWAP2 POP DUP4 PUSH1 0x1 DUP3 MUL DUP4 ADD GT ISZERO PUSH2 0x1338 JUMPI PUSH2 0x1337 PUSH2 0x12E6 JUMP JUMPDEST JUMPDEST SWAP3 POP SWAP3 SWAP1 POP JUMP JUMPDEST PUSH0 DUP1 PUSH1 0x20 DUP4 DUP6 SUB SLT ISZERO PUSH2 0x1355 JUMPI PUSH2 0x1354 PUSH2 0xEE7 JUMP JUMPDEST JUMPDEST PUSH0 DUP4 ADD CALLDATALOAD PUSH8 0xFFFFFFFFFFFFFFFF DUP2 GT ISZERO PUSH2 0x1372 JUMPI PUSH2 0x1371 PUSH2 0xEEB JUMP JUMPDEST JUMPDEST PUSH2 0x137E DUP6 DUP3 DUP7 ADD PUSH2 0x12EA JUMP JUMPDEST SWAP3 POP SWAP3 POP POP SWAP3 POP SWAP3 SWAP1 POP JUMP JUMPDEST PUSH2 0x1393 DUP2 PUSH2 0xF6C JUMP JUMPDEST DUP3 MSTORE POP POP JUMP JUMPDEST PUSH0 PUSH1 0x20 DUP3 ADD SWAP1 POP PUSH2 0x13AC PUSH0 DUP4 ADD DUP5 PUSH2 0x138A JUMP JUMPDEST SWAP3 SWAP2 POP POP JUMP JUMPDEST PUSH0 PUSH1 0x20 DUP3 ADD SWAP1 POP PUSH2 0x13C5 PUSH0 DUP4 ADD DUP5 PUSH2 0x124B JUMP JUMPDEST SWAP3 SWAP2 POP POP JUMP JUMPDEST PUSH32 0x566F74696E673A20656C656374696F6E206973206E6F742063757272656E746C PUSH0 DUP3 ADD MSTORE PUSH32 0x79206F70656E0000000000000000000000000000000000000000000000000000 PUSH1 0x20 DUP3 ADD MSTORE POP JUMP JUMPDEST PUSH0 PUSH2 0x1425 PUSH1 0x26 DUP4 PUSH2 0x125A JUMP JUMPDEST SWAP2 POP PUSH2 0x1430 DUP3 PUSH2 0x13CB JUMP JUMPDEST PUSH1 0x40 DUP3 ADD SWAP1 POP SWAP2 SWAP1 POP JUMP JUMPDEST PUSH0 PUSH1 0x20 DUP3 ADD SWAP1 POP DUP2 DUP2 SUB PUSH0 DUP4 ADD MSTORE PUSH2 0x1452 DUP2 PUSH2 0x1419 JUMP JUMPDEST SWAP1 POP SWAP2 SWAP1 POP JUMP JUMPDEST PUSH32 0x566F74696E673A20696E76616C69642063616E64696461746520494400000000 PUSH0 DUP3 ADD MSTORE POP JUMP JUMPDEST PUSH0 PUSH2 0x148D PUSH1 0x1C DUP4 PUSH2 0x125A JUMP JUMPDEST SWAP2 POP PUSH2 0x1498 DUP3 PUSH2 0x1459 JUMP JUMPDEST PUSH1 0x20 DUP3 ADD SWAP1 POP SWAP2 SWAP1 POP JUMP JUMPDEST PUSH0 PUSH1 0x20 DUP3 ADD SWAP1 POP DUP2 DUP2 SUB PUSH0 DUP4 ADD MSTORE PUSH2 0x14BA DUP2 PUSH2 0x1481 JUMP JUMPDEST SWAP1 POP SWAP2 SWAP1 POP JUMP JUMPDEST PUSH32 0x566F74696E673A20796F75206861766520616C7265616479206361737420796F PUSH0 DUP3 ADD MSTORE PUSH32 0x757220766F746500000000000000000000000000000000000000000000000000 PUSH1 0x20 DUP3 ADD MSTORE POP JUMP JUMPDEST PUSH0 PUSH2 0x151B PUSH1 0x27 DUP4 PUSH2 0x125A JUMP JUMPDEST SWAP2 POP PUSH2 0x1526 DUP3 PUSH2 0x14C1 JUMP JUMPDEST PUSH1 0x40 DUP3 ADD SWAP1 POP SWAP2 SWAP1 POP JUMP JUMPDEST PUSH0 PUSH1 0x20 DUP3 ADD SWAP1 POP DUP2 DUP2 SUB PUSH0 DUP4 ADD MSTORE PUSH2 0x1548 DUP2 PUSH2 0x150F JUMP JUMPDEST SWAP1 POP SWAP2 SWAP1 POP JUMP JUMPDEST PUSH32 0x4E487B7100000000000000000000000000000000000000000000000000000000 PUSH0 MSTORE PUSH1 0x11 PUSH1 0x4 MSTORE PUSH1 0x24 PUSH0 REVERT JUMPDEST PUSH0 PUSH2 0x1586 DUP3 PUSH2 0xEEF JUMP JUMPDEST SWAP2 POP PUSH32 0xFFFFFFFFFFFFFFFFFFFFFFFFFFFFFFFFFFFFFFFFFFFFFFFFFFFFFFFFFFFFFFFF DUP3 SUB PUSH2 0x15B8 JUMPI PUSH2 0x15B7 PUSH2 0x154F JUMP JUMPDEST JUMPDEST PUSH1 0x1 DUP3 ADD SWAP1 POP SWAP2 SWAP1 POP JUMP JUMPDEST PUSH32 0x566F74696E673A2063616E6E6F742072656D6F7665207768696C6520656C6563 PUSH0 DUP3 ADD MSTORE PUSH32 0x74696F6E206973206F70656E0000000000000000000000000000000000000000 PUSH1 0x20 DUP3 ADD MSTORE POP JUMP JUMPDEST PUSH0 PUSH2 0x161D PUSH1 0x2C DUP4 PUSH2 0x125A JUMP JUMPDEST SWAP2 POP PUSH2 0x1628 DUP3 PUSH2 0x15C3 JUMP JUMPDEST PUSH1 0x40 DUP3 ADD SWAP1 POP SWAP2 SWAP1 POP JUMP JUMPDEST PUSH0 PUSH1 0x20 DUP3 ADD SWAP1 POP DUP2 DUP2 SUB PUSH0 DUP4 ADD MSTORE PUSH2 0x164A DUP2 PUSH2 0x1611 JUMP JUMPDEST SWAP1 POP SWAP2 SWAP1 POP JUMP JUMPDEST PUSH32 0x4E487B7100000000000000000000000000000000000000000000000000000000 PUSH0 MSTORE PUSH1 0x22 PUSH1 0x4 MSTORE PUSH1 0x24 PUSH0 REVERT JUMPDEST PUSH0 PUSH1 0x2 DUP3 DIV SWAP1 POP PUSH1 0x1 DUP3 AND DUP1 PUSH2 0x1695 JUMPI PUSH1 0x7F DUP3 AND SWAP2 POP JUMPDEST PUSH1 0x20 DUP3 LT DUP2 SUB PUSH2 0x16A8 JUMPI PUSH2 0x16A7 PUSH2 0x1651 JUMP JUMPDEST JUMPDEST POP SWAP2 SWAP1 POP JUMP JUMPDEST PUSH32 0x566F74696E673A2063616E64696461746520616C72656164792072656D6F7665 PUSH0 DUP3 ADD MSTORE PUSH32 0x6400000000000000000000000000000000000000000000000000000000000000 PUSH1 0x20 DUP3 ADD MSTORE POP JUMP JUMPDEST PUSH0 PUSH2 0x1708 PUSH1 0x21 DUP4 PUSH2 0x125A JUMP JUMPDEST SWAP2 POP PUSH2 0x1713 DUP3 PUSH2 0x16AE JUMP JUMPDEST PUSH1 0x40 DUP3 ADD SWAP1 POP SWAP2 SWAP1 POP JUMP JUMPDEST PUSH0 PUSH1 0x20 DUP3 ADD SWAP1 POP DUP2 DUP2 SUB PUSH0 DUP4 ADD MSTORE PUSH2 0x1735 DUP2 PUSH2 0x16FC JUMP JUMPDEST SWAP1 POP SWAP2 SWAP1 POP JUMP JUMPDEST POP JUMP JUMPDEST PUSH0 PUSH2 0x174A PUSH0 DUP4 PUSH2 0x125A JUMP JUMPDEST SWAP2 POP PUSH2 0x1755 DUP3 PUSH2 0x173C JUMP JUMPDEST PUSH0 DUP3 ADD SWAP1 POP SWAP2 SWAP1 POP JUMP JUMPDEST PUSH0 PUSH1 0x20 DUP3 ADD SWAP1 POP DUP2 DUP2 SUB PUSH0 DUP4 ADD MSTORE PUSH2 0x1776 DUP2 PUSH2 0x173F JUMP JUMPDEST SWAP1 POP SWAP2 SWAP1 POP JUMP JUMPDEST PUSH32 0x4E487B7100000000000000000000000000000000000000000000000000000000 PUSH0 MSTORE PUSH1 0x41 PUSH1 0x4 MSTORE PUSH1 0x24 PUSH0 REVERT JUMPDEST PUSH0 PUSH2 0x17B4 DUP3 PUSH2 0xEEF JUMP JUMPDEST SWAP2 POP PUSH2 0x17BF DUP4 PUSH2 0xEEF JUMP JUMPDEST SWAP3 POP DUP3 DUP3 SUB SWAP1 POP DUP2 DUP2 GT ISZERO PUSH2 0x17D7 JUMPI PUSH2 0x17D6 PUSH2 0x154F JUMP JUMPDEST JUMPDEST SWAP3 SWAP2 POP POP JUMP JUMPDEST PUSH32 0x4E487B7100000000000000000000000000000000000000000000000000000000 PUSH0 MSTORE PUSH1 0x32 PUSH1 0x4 MSTORE PUSH1 0x24 PUSH0 REVERT JUMPDEST PUSH32 0x566F74696E673A2063616E6E6F74206164642063616E64696461746573207768 PUSH0 DUP3 ADD MSTORE PUSH32 0x696C6520656C656374696F6E206973206F70656E000000000000000000000000 PUSH1 0x20 DUP3 ADD MSTORE POP JUMP JUMPDEST PUSH0 PUSH2 0x1864 PUSH1 0x34 DUP4 PUSH2 0x125A JUMP JUMPDEST SWAP2 POP PUSH2 0x186F DUP3 PUSH2 0x180A JUMP JUMPDEST PUSH1 0x40 DUP3 ADD SWAP1 POP SWAP2 SWAP1 POP JUMP JUMPDEST PUSH0 PUSH1 0x20 DUP3 ADD SWAP1 POP DUP2 DUP2 SUB PUSH0 DUP4 ADD MSTORE PUSH2 0x1891 DUP2 PUSH2 0x1858 JUMP JUMPDEST SWAP1 POP SWAP2 SWAP1 POP JUMP JUMPDEST PUSH32 0x566F74696E673A2063616E646964617465206E616D652063616E6E6F74206265 PUSH0 DUP3 ADD MSTORE PUSH32 0x20656D7074790000000000000000000000000000000000000000000000000000 PUSH1 0x20 DUP3 ADD MSTORE POP JUMP JUMPDEST PUSH0 PUSH2 0x18F2 PUSH1 0x26 DUP4 PUSH2 0x125A JUMP JUMPDEST SWAP2 POP PUSH2 0x18FD DUP3 PUSH2 0x1898 JUMP JUMPDEST PUSH1 0x40 DUP3 ADD SWAP1 POP SWAP2 SWAP1 POP JUMP JUMPDEST PUSH0 PUSH1 0x20 DUP3 ADD SWAP1 POP DUP2 DUP2 SUB PUSH0 DUP4 ADD MSTORE PUSH2 0x191F DUP2 PUSH2 0x18E6 JUMP JUMPDEST SWAP1 POP SWAP2 SWAP1 POP JUMP JUMPDEST PUSH0 DUP2 SWAP1 POP DUP2 PUSH0 MSTORE PUSH1 0x20 PUSH0 KECCAK256 SWAP1 POP SWAP2 SWAP1 POP JUMP JUMPDEST PUSH0 PUSH1 0x20 PUSH1 0x1F DUP4 ADD DIV SWAP1 POP SWAP2 SWAP1 POP JUMP JUMPDEST PUSH0 DUP3 DUP3 SHL SWAP1 POP SWAP3 SWAP2 POP POP JUMP JUMPDEST PUSH0 PUSH1 0x8 DUP4 MUL PUSH2 0x1982 PUSH32 0xFFFFFFFFFFFFFFFFFFFFFFFFFFFFFFFFFFFFFFFFFFFFFFFFFFFFFFFFFFFFFFFF DUP3 PUSH2 0x1947 JUMP JUMPDEST PUSH2 0x198C DUP7 DUP4 PUSH2 0x1947 JUMP JUMPDEST SWAP6 POP DUP1 NOT DUP5 AND SWAP4 POP DUP1 DUP7 AND DUP5 OR SWAP3 POP POP POP SWAP4 SWAP3 POP POP POP JUMP JUMPDEST PUSH0 DUP2 SWAP1 POP SWAP2 SWAP1 POP JUMP JUMPDEST PUSH0 PUSH2 0x19C7 PUSH2 0x19C2 PUSH2 0x19BD DUP5 PUSH2 0xEEF JUMP JUMPDEST PUSH2 0x19A4 JUMP JUMPDEST PUSH2 0xEEF JUMP JUMPDEST SWAP1 POP SWAP2 SWAP1 POP JUMP JUMPDEST PUSH0 DUP2 SWAP1 POP SWAP2 SWAP1 POP JUMP JUMPDEST PUSH2 0x19E0 DUP4 PUSH2 0x19AD JUMP JUMPDEST PUSH2 0x19F4 PUSH2 0x19EC DUP3 PUSH2 0x19CE JUMP JUMPDEST DUP5 DUP5 SLOAD PUSH2 0x1953 JUMP JUMPDEST DUP3 SSTORE POP POP POP POP JUMP JUMPDEST PUSH0 SWAP1 JUMP JUMPDEST PUSH2 0x1A08 PUSH2 0x19FC JUMP JUMPDEST PUSH2 0x1A13 DUP2 DUP5 DUP5 PUSH2 0x19D7 JUMP JUMPDEST POP POP POP JUMP JUMPDEST JUMPDEST DUP2 DUP2 LT ISZERO PUSH2 0x1A36 JUMPI PUSH2 0x1A2B PUSH0 DUP3 PUSH2 0x1A00 JUMP JUMPDEST PUSH1 0x1 DUP2 ADD SWAP1 POP PUSH2 0x1A19 JUMP JUMPDEST POP POP JUMP JUMPDEST PUSH1 0x1F DUP3 GT ISZERO PUSH2 0x1A7B JUMPI PUSH2 0x1A4C DUP2 PUSH2 0x1926 JUMP JUMPDEST PUSH2 0x1A55 DUP5 PUSH2 0x1938 JUMP JUMPDEST DUP2 ADD PUSH1 0x20 DUP6 LT ISZERO PUSH2 0x1A64 JUMPI DUP2 SWAP1 POP JUMPDEST PUSH2 0x1A78 PUSH2 0x1A70 DUP6 PUSH2 0x1938 JUMP JUMPDEST DUP4 ADD DUP3 PUSH2 0x1A18 JUMP JUMPDEST POP POP JUMPDEST POP POP POP JUMP JUMPDEST PUSH0 DUP3 DUP3 SHR SWAP1 POP SWAP3 SWAP2 POP POP JUMP JUMPDEST PUSH0 PUSH2 0x1A9B PUSH0 NOT DUP5 PUSH1 0x8 MUL PUSH2 0x1A80 JUMP JUMPDEST NOT DUP1 DUP4 AND SWAP2 POP POP SWAP3 SWAP2 POP POP JUMP JUMPDEST PUSH0 PUSH2 0x1AB3 DUP4 DUP4 PUSH2 0x1A8C JUMP JUMPDEST SWAP2 POP DUP3 PUSH1 0x2 MUL DUP3 OR SWAP1 POP SWAP3 SWAP2 POP POP JUMP JUMPDEST PUSH2 0x1ACC DUP3 PUSH2 0x10E5 JUMP JUMPDEST PUSH8 0xFFFFFFFFFFFFFFFF DUP2 GT ISZERO PUSH2 0x1AE5 JUMPI PUSH2 0x1AE4 PUSH2 0x177D JUMP JUMPDEST JUMPDEST PUSH2 0x1AEF DUP3 SLOAD PUSH2 0x167E JUMP JUMPDEST PUSH2 0x1AFA DUP3 DUP3 DUP6 PUSH2 0x1A3A JUMP JUMPDEST PUSH0 PUSH1 0x20 SWAP1 POP PUSH1 0x1F DUP4 GT PUSH1 0x1 DUP2 EQ PUSH2 0x1B2B JUMPI PUSH0 DUP5 ISZERO PUSH2 0x1B19 JUMPI DUP3 DUP8 ADD MLOAD SWAP1 POP JUMPDEST PUSH2 0x1B23 DUP6 DUP3 PUSH2 0x1AA8 JUMP JUMPDEST DUP7 SSTORE POP PUSH2 0x1B8A JUMP JUMPDEST PUSH1 0x1F NOT DUP5 AND PUSH2 0x1B39 DUP7 PUSH2 0x1926 JUMP JUMPDEST PUSH0 JUMPDEST DUP3 DUP2 LT ISZERO PUSH2 0x1B60 JUMPI DUP5 DUP10 ADD MLOAD DUP3 SSTORE PUSH1 0x1 DUP3 ADD SWAP2 POP PUSH1 0x20 DUP6 ADD SWAP5 POP PUSH1 0x20 DUP2 ADD SWAP1 POP PUSH2 0x1B3B JUMP JUMPDEST DUP7 DUP4 LT ISZERO PUSH2 0x1B7D JUMPI DUP5 DUP10 ADD MLOAD PUSH2 0x1B79 PUSH1 0x1F DUP10 AND DUP3 PUSH2 0x1A8C JUMP JUMPDEST DUP4 SSTORE POP JUMPDEST PUSH1 0x1 PUSH1 0x2 DUP9 MUL ADD DUP9 SSTORE POP POP POP JUMPDEST POP POP POP POP POP POP JUMP JUMPDEST DUP3 DUP2 DUP4 CALLDATACOPY PUSH0 DUP4 DUP4 ADD MSTORE POP POP POP JUMP JUMPDEST PUSH0 PUSH2 0x1BAB DUP4 DUP6 PUSH2 0x125A JUMP JUMPDEST SWAP4 POP PUSH2 0x1BB8 DUP4 DUP6 DUP5 PUSH2 0x1B92 JUMP JUMPDEST PUSH2 0x1BC1 DUP4 PUSH2 0x1127 JUMP JUMPDEST DUP5 ADD SWAP1 POP SWAP4 SWAP3 POP POP POP JUMP JUMPDEST PUSH0 PUSH1 0x20 DUP3 ADD SWAP1 POP DUP2 DUP2 SUB PUSH0 DUP4 ADD MSTORE PUSH2 0x1BE5 DUP2 DUP5 DUP7 PUSH2 0x1BA0 JUMP JUMPDEST SWAP1 POP SWAP4 SWAP3 POP POP POP JUMP JUMPDEST PUSH32 0x566F74696E673A20656C656374696F6E20697320616C726561647920636C6F73 PUSH0 DUP3 ADD MSTORE PUSH32 0x6564000000000000000000000000000000000000000000000000000000000000 PUSH1 0x20 DUP3 ADD MSTORE POP JUMP JUMPDEST PUSH0 PUSH2 0x1C48 PUSH1 0x22 DUP4 PUSH2 0x125A JUMP JUMPDEST SWAP2 POP PUSH2 0x1C53 DUP3 PUSH2 0x1BEE JUMP JUMPDEST PUSH1 0x40 DUP3 ADD SWAP1 POP SWAP2 SWAP1 POP JUMP JUMPDEST PUSH0 PUSH1 0x20 DUP3 ADD SWAP1 POP DUP2 DUP2 SUB PUSH0 DUP4 ADD MSTORE PUSH2 0x1C75 DUP2 PUSH2 0x1C3C JUMP JUMPDEST SWAP1 POP SWAP2 SWAP1 POP JUMP JUMPDEST PUSH0 PUSH2 0x1C86 DUP3 PUSH2 0xEEF JUMP JUMPDEST SWAP2 POP PUSH2 0x1C91 DUP4 PUSH2 0xEEF JUMP JUMPDEST SWAP3 POP DUP3 DUP3 ADD SWAP1 POP DUP1 DUP3 GT ISZERO PUSH2 0x1CA9 JUMPI PUSH2 0x1CA8 PUSH2 0x154F JUMP JUMPDEST JUMPDEST SWAP3 SWAP2 POP POP JUMP JUMPDEST PUSH32 0x566F74696E673A20616464206174206C65617374206F6E652063616E64696461 PUSH0 DUP3 ADD MSTORE PUSH32 0x7465206265666F7265206F70656E696E67000000000000000000000000000000 PUSH1 0x20 DUP3 ADD MSTORE POP JUMP JUMPDEST PUSH0 PUSH2 0x1D09 PUSH1 0x31 DUP4 PUSH2 0x125A JUMP JUMPDEST SWAP2 POP PUSH2 0x1D14 DUP3 PUSH2 0x1CAF JUMP JUMPDEST PUSH1 0x40 DUP3 ADD SWAP1 POP SWAP2 SWAP1 POP JUMP JUMPDEST PUSH0 PUSH1 0x20 DUP3 ADD SWAP1 POP DUP2 DUP2 SUB PUSH0 DUP4 ADD MSTORE PUSH2 0x1D36 DUP2 PUSH2 0x1CFD JUMP JUMPDEST SWAP1 POP SWAP2 SWAP1 POP JUMP JUMPDEST PUSH32 0x566F74696E673A20656C656374696F6E20697320616C7265616479206F70656E PUSH0 DUP3 ADD MSTORE POP JUMP JUMPDEST PUSH0 PUSH2 0x1D71 PUSH1 0x20 DUP4 PUSH2 0x125A JUMP JUMPDEST SWAP2 POP PUSH2 0x1D7C DUP3 PUSH2 0x1D3D JUMP JUMPDEST PUSH1 0x20 DUP3 ADD SWAP1 POP SWAP2 SWAP1 POP JUMP JUMPDEST PUSH0 PUSH1 0x20 DUP3 ADD SWAP1 POP DUP2 DUP2 SUB PUSH0 DUP4 ADD MSTORE PUSH2 0x1D9E DUP2 PUSH2 0x1D65 JUMP JUMPDEST SWAP1 POP SWAP2 SWAP1 POP JUMP INVALID LOG2 PUSH5 0x6970667358 0x22 SLT KECCAK256 0x2C 0xB4 AND 0xB6 PUSH31 0xA772A99E71D650D15DA08A1EF3B5C9C408C8880E8C7C54E7BD843F64736F6C PUSH4 0x43000818 STOP CALLER "
				},
				"gasEstimates": {
					"creation": {
						"codeDepositCost": "1528600",
						"executionCost": "infinite",
						"totalCost": "infinite"
					},
					"external": {
						"addCandidate(string)": "infinite",
						"candidateCount()": "2469",
						"candidates(uint256)": "infinite",
						"closeElection()": "infinite",
						"electionOpen()": "2555",
						"getAllCandidates()": "infinite",
						"getTotalVotes()": "infinite",
						"hasVoted(address)": "2901",
						"openElection()": "infinite",
						"owner()": "2582",
						"removeCandidate(uint256)": "infinite",
						"renounceOwnership()": "infinite",
						"transferOwnership(address)": "infinite",
						"vote(uint256)": "infinite"
					}
				},
				"methodIdentifiers": {
					"addCandidate(string)": "462e91ec",
					"candidateCount()": "a9a981a3",
					"candidates(uint256)": "3477ee2e",
					"closeElection()": "6c6c32d0",
					"electionOpen()": "4a39d442",
					"getAllCandidates()": "2e6997fe",
					"getTotalVotes()": "9a0e7d66",
					"hasVoted(address)": "09eef43e",
					"openElection()": "c5d00f5d",
					"owner()": "8da5cb5b",
					"removeCandidate(uint256)": "09e9d7e2",
					"renounceOwnership()": "715018a6",
					"transferOwnership(address)": "f2fde38b",
					"vote(uint256)": "0121b93f"
				}
			},
			"storageLayout": {
				"storage": [
					{
						"astId": 8,
						"contract": "contracts/Voting.sol:Voting",
						"label": "_owner",
						"offset": 0,
						"slot": "0",
						"type": "t_address"
					},
					{
						"astId": 197,
						"contract": "contracts/Voting.sol:Voting",
						"label": "candidates",
						"offset": 0,
						"slot": "1",
						"type": "t_mapping(t_uint256,t_struct(Candidate)191_storage)"
					},
					{
						"astId": 202,
						"contract": "contracts/Voting.sol:Voting",
						"label": "hasVoted",
						"offset": 0,
						"slot": "2",
						"type": "t_mapping(t_address,t_bool)"
					},
					{
						"astId": 205,
						"contract": "contracts/Voting.sol:Voting",
						"label": "candidateCount",
						"offset": 0,
						"slot": "3",
						"type": "t_uint256"
					},
					{
						"astId": 208,
						"contract": "contracts/Voting.sol:Voting",
						"label": "electionOpen",
						"offset": 0,
						"slot": "4",
						"type": "t_bool"
					}
				],
				"types": {
					"t_address": {
						"encoding": "inplace",
						"label": "address",
						"numberOfBytes": "20"
					},
					"t_bool": {
						"encoding": "inplace",
						"label": "bool",
						"numberOfBytes": "1"
					},
					"t_mapping(t_address,t_bool)": {
						"encoding": "mapping",
						"key": "t_address",
						"label": "mapping(address => bool)",
						"numberOfBytes": "32",
						"value": "t_bool"
					},
					"t_mapping(t_uint256,t_struct(Candidate)191_storage)": {
						"encoding": "mapping",
						"key": "t_uint256",
						"label": "mapping(uint256 => struct Voting.Candidate)",
						"numberOfBytes": "32",
						"value": "t_struct(Candidate)191_storage"
					},
					"t_string_storage": {
						"encoding": "bytes",
						"label": "string",
						"numberOfBytes": "32"
					},
					"t_struct(Candidate)191_storage": {
						"encoding": "inplace",
						"label": "struct Voting.Candidate",
						"members": [
							{
								"astId": 186,
								"contract": "contracts/Voting.sol:Voting",
								"label": "id",
								"offset": 0,
								"slot": "0",
								"type": "t_uint256"
							},
							{
								"astId": 188,
								"contract": "contracts/Voting.sol:Voting",
								"label": "name",
								"offset": 0,
								"slot": "1",
								"type": "t_string_storage"
							},
							{
								"astId": 190,
								"contract": "contracts/Voting.sol:Voting",
								"label": "voteCount",
								"offset": 0,
								"slot": "2",
								"type": "t_uint256"
							}
						],
						"numberOfBytes": "96"
					},
					"t_uint256": {
						"encoding": "inplace",
						"label": "uint256",
						"numberOfBytes": "32"
					}
				}
			},
			"userdoc": {
				"events": {
					"CandidateAdded(uint256,string)": {
						"notice": "Emitted when a new candidate is added by the owner."
					},
					"ElectionStatusChanged(bool)": {
						"notice": "Emitted when the owner opens or closes the election."
					},
					"Voted(address,uint256)": {
						"notice": "Emitted when a voter successfully casts their vote."
					}
				},
				"kind": "user",
				"methods": {
					"addCandidate(string)": {
						"notice": "Adds a new candidate to the election."
					},
					"candidateCount()": {
						"notice": "Total number of candidates added. Also serves as the ID counter."
					},
					"candidates(uint256)": {
						"notice": "Maps candidate IDs to their Candidate struct."
					},
					"closeElection()": {
						"notice": "Closes the election, preventing further votes."
					},
					"electionOpen()": {
						"notice": "Whether the election is currently open for voting."
					},
					"getAllCandidates()": {
						"notice": "Returns all candidates and their vote tallies as parallel arrays."
					},
					"getTotalVotes()": {
						"notice": "Returns the total number of votes cast across all candidates."
					},
					"hasVoted(address)": {
						"notice": "Tracks whether an address has already voted. Enforces one-person-one-vote."
					},
					"openElection()": {
						"notice": "Opens the election so voters can start casting votes."
					},
					"vote(uint256)": {
						"notice": "Casts a vote for a specific candidate."
					}
				},
				"version": 1
			}
		}
	}
}